:100000009E1004000000000000000000000000003E
:1000100000000000000000000000000000000000E0
:1000200000000000000000000000000000000000D0
:1000300000000000000000000000000000000000C0
:1000400000000000000000000000000000000000B0
:10213C008F892000F0FF270020A0B700100020009E
:10214C0034A0B700400020004420B700BE100200AD
:10215C0000000000C81002000000000095FF0700FE
:10216C00EAFF0700B7FF0700FEFF3700FFFF37004D
:101FC0008A1F78008B1F78008C1F78001CC0B3001C
:101FD0007BC0B3001420EF0031FF07001820EF0092
:101FE0002BC0B3001420EF002DFF07001820EF00D6
:101FF0001620EF001420EF0029FF0700E009280059
:10200000800578001420EF005DFF07000B582200C8
:102010000C0020000AC2B300C4FF07002BC0B300AD
:10202000DA8320007CFF070038002000578D200055
:102030000E20ED00FEFF3A001020ED00FCFF3A00FC
:102040004F067800CF0578004F05780000000600A5
:101CA0008A1F78008B1F78000A0037000B457800E8
:101CB0008C457800FDFE07000B0037000B457800CF
:101CC0008C45780099FE07000700370010C0B3006C
:101CD000050037006054E100F4FF32006154E10078
:101CE000F6FF3200F9FF3700CF0578004F05780086
:041CF00000000600EA
:1018AC00F0FF2F002AA3B700F0FF2F002CA3B700E6
:1018BC00F0FF2F006CA3B7003E0037001600AE00FF
:1018CC00C702A9001600AF00C702A80052003700DB
:1018DC001600AE00CC22A9001600AF00CC22A80046
:1018EC004D0037001600AE00CC42A9001600AF0028
:1018FC00CC42A800480037001600AE00DEC2A9009A
:10190C001600AF00DEC2A800430037001600AE0080
:10191C00DEE2A9001600AF00DEE2A8003E003700B0
:10192C001600AE00DF02A9001600AF00DF02A8000F
:10193C00390037001600AE00D202A9001600AF0025
:10194C00D202A800340037001600AE00C182A900F4
:10195C001600AF00C182A8002F0037001600AE00A1
:10196C00DE82A9001600AF00DE82A8002A00370034
:10197C001600AE00DEA2A9001600AF00DEA2A80081
:10198C00250037001600AE00C042A9001600AF00BB
:10199C00C042A800200037001600AE00C062A900AB
:1019AC001600AF00C062A8001B00370010C0B300C7
:1019BC001A0037006054E100C0FF32006154E100AE
:1019CC00C3FF32006254E100C6FF32006354E100F1
:1019DC00C9FF32006454E100CCFF32006554E100D1
:1019EC00CFFF32006654E100D2FF32006754E100B1
:1019FC00D5FF32006854E100D8FF32006954E10091
:101A0C00DBFF32006A54E100DEFF32006B54E10070
:101A1C00E1FF3200E5FF370000C0B3000000060014
:10172C00F0FF2F002AA3B700F0FF2F002CA3B70067
:10173C00F0FF2F006CA3B7003E0037001600AE0080
:10174C00C722A9001600AF00C722A800520037001C
:10175C001600AE00CC62A9001600AF00CC62A80047
:10176C004D0037001600AE00CC82A9001600AF0069
:10177C00CC82A800480037001600AE00DEC2A900DB
:10178C001600AF00DEC2A800430037001600AE0002
:10179C00DEE2A9001600AF00DEE2A8003E00370032
:1017AC001600AE00DF02A9001600AF00DF02A80091
:1017BC00390037001600AE00D222A9001600AF0087
:1017CC00D222A800340037001600AE00C1A2A90036
:1017DC001600AF00C1A2A8002F0037001600AE0003
:1017EC00DF82A9001600AF00DF82A8002A003700B4
:1017FC001600AE00DFA2A9001600AF00DFA2A80001
:10180C00250037001600AE00C042A9001600AF003C
:10181C00C042A800200037001600AE00C062A9002C
:10182C001600AF00C062A8001B00370010C0B30048
:10183C001A0037006054E100C0FF32006154E1002F
:10184C00C3FF32006254E100C6FF32006354E10072
:10185C00C9FF32006454E100CCFF32006554E10052
:10186C00CFFF32006654E100D2FF32006754E10032
:10187C00D5FF32006854E100D8FF32006954E10012
:10188C00DBFF32006A54E100DEFF32006B54E100F2
:10189C00E1FF3200E5FF370000C0B3000000060096
:101D80008A1F7800080037000B05780044FE070022
:101D90000A0037000B05780024FF07000700370012
:101DA00010C0B300050037006054E100F6FF3200B8
:101DB0006154E100F7FF3200F9FF37004F0578006A
:041DC0000000060019
:1016A0008A1F78008B1F78008C1F78008D1F7800B0
:1016B000FC00450091037800F80045001103780014
:1016C000F400450091027800F00045001102780016
:1016D000EC00450091017800E80045001101780018
:1016E000E4004500910078001A0078008306780035
:1016F000020678008105780000057800871F7800D1
:10170000861F7800851F7800841F78000CFD070075
:101710008F00B10000C0B300CF0678004F067800FC
:0C172000CF0578004F057800000006009F
:100B40000000FA00CEB897003EBA97002EB9970081
:100B50009EB997004022EF004222EF00C021200002
:100B60006044880080632000704488000B0075009A
:100B70000C0070000D007000010070000400700097
:100B800082007000202420000388700040C2A90069
:0C0B900041E2A8000080FA00000006000E
:101A2C008A1F78008B1F78008C1F78008D1F780020
:101A3C00FC00450091037800F80045001103780084
:101A4C00F400450091027800F00045001102780086
:101A5C00EC00450091017800E80045001101780088
:101A6C00E4004500910078001A00780083067800A5
:101A7C00020678008105780000057800871F780041
:101A8C00861F7800851F7800841F780029FC0700CA
:101A9C008F00B10000C0B300CF0678004F0678006D
:0C1AAC00CF0578004F0578000000060010
:101F2C008A1F78008B1F78008C1F780012003700F6
:101F3C000B0578008C057800E3FE070019003700CC
:101F4C000B0578008C057800DDFE070015003700C6
:101F5C000B0578008C057800D4FE070011003700C3
:101F6C000B0578008C057800ACFD07000D003700E0
:101F7C0010C0B3000B0037006054E100ECFF3200DE
:101F8C006154E100EEFF320000C2B3000054E100E6
:101F9C00EFFF320000C3B3000054E100F0FF320049
:101FAC00F3FF37004F067800CF0578004F05780017
:041FBC00000006001B
:101AD400F2FC070000642000B04488000020EF00FE
:041AE40000000600F8
:100EA0000800FA000064200020448800A03A2000D6
:100EB000304488004023200040448800E023200084
:100EC000504488003022EF000000280032A2B70012
:100ED0003062A9003AFE07000001BE00803E2000FB
:100EE0000100200073FE07000001BE0037FE07006E
:100EF0004100DE0064004000800078006000470090
:100F00000A88BE008100E900030035001018D000F7
:100F10001090D200FBFF3700829FBE008A9FBE0068
:100F20000200BE000E0190009E0190000002EB0046
:100F300092FE07004F05BE004F01BE00200798003B
:100F4000310798008A9FBE000200BE000E0190008B
:100F50009E0190000002EB005FFE07004F05BE00FF
:100F60008001780001027800600047005001D10044
:100F7000C080D300640047003008E1002090E10009
:100F80000700310061804100E0004A0080027800E3
:100F9000010378000501780086017800020037001F
:100FA00003017800840178000280710033003A0068
:100FB00003FE07000001BE00803E2000010020006B
:100FC0003CFE07000001BE0000FE07004100DE00FD
:100FD00000A0EC0080007800600047000A88BE0096
:100FE0008100E900030035001018D0001090D200F5
:100FF000FBFF3700829FBE000200BE000E01900082
:101000009E0190000002EB005CFE07004F01BE0055
:1010100020079800310798000200BE000E019000E2
:101020009E0190000002EB002BFE0700800178007B
:1010300001027800600047005001D100C080D30059
:10104000640047003008E1002090E1000700310013
:1010500061804100E0004A008002780001037800CE
:10106000050178008601780002003700030178004E
:10107000840178003062A800000037006100510050
:10108000E0805900C01188003222A90031E2A80096
:101090003342A80065FE070064FE07000080FA00E6
:0410A0000000060046
:0C07C00000F421000100200000000600F1
:0807CC002000200000000600DF
:100A2C0038002000578D20000E20ED00FEFF3A000C
:0C0A3C001020ED00FCFF3A000000060056
:1008B4000000FA00020AB800500088000200B800E4
:1008C40081004200032AB800810042000080FA003F
:0408D400000006001A
:10097C000000FA000200070012050400000000004D
:10098C000800E20002003A00100007000000060018
:10099C00811F78000200E20002003D0060001000A0
:1009AC00E08018000600E20002003D00600111002A
:1009BC00E0811900050007004F00E00002003B0039
:1009CC0060001000E0801800000006000200070024
:1009DC000480BE00000006006022B8000602200061
:1009EC000000D0008180D2000482D2008582D20027
:1009FC000000A8000202520083825A0003003B0050
:100A0C000202420083824A000000A1000603E900B2
:100A1C00F3FF3A00000006000080FA000000060018
:1008D8000000FA0002000700BA040400000000004B
:1008E8000800E20002003A001000070000000600BD
:1008F800839F68000200E20002003D0060001000D3
:10090800E08018000600E20002003D0060011100CE
:10091800E0811900050007004F00E00002003B00DD
:1009280060001000E0801800000006006022B80097
:10093800060220000000D0008180D2000482D2008C
:100948008582D2000000A8000202520083825A0069
:1009580003003B000202420083824A000000A1001B
:100968000603E900F3FF3A00000006000080FA00E1
:040978000000060075
:081ACC0060C0B3000000060039
:101AB800F9FC070000642000B04488000020EF0013
:041AC8000000060014
:101628009CFD070020622000B04488000020EF00E5
:0416380000000600A8
:100C9C000800FA002062200020448800603B2000FD
:100CAC0030448800203C200040448800E03920007B
:100CBC00504488002022EF000000280022A2B70038
:100CCC002062A900BBFE07000001BE00803E200090
:100CDC0001002000F4FE07000001BE00B8FE070072
:100CEC004100DE0064004000800078006000470096
:100CFC000A88BE008100E900030035001018D000FE
:100D0C001090D200FBFF3700829FBE008A9FBE006E
:100D1C000200BE000E0190009E0190000002EB004C
:100D2C0013FF07004F05BE004F01BE0020079800BF
:100D3C00310798008A9FBE000200BE000E01900091
:100D4C009E0190000002EB00E0FE07004F05BE0084
:100D5C008001780001027800600047005001D1004A
:100D6C00C080D300640047003008E1002090E1000F
:100D7C000700310061804100E0004A0080027800E9
:100D8C000103780005017800860178000200370025
:100D9C0003017800840178000280710033003A006E
:100DAC0084FE07000001BE00803E200001002000F0
:100DBC00BDFE07000001BE0081FE07004100DE0001
:100DCC0000A0EC0080007800600047000A88BE009C
:100DDC008100E900030035001018D0001090D200FB
:100DEC00FBFF3700829FBE000200BE000E01900088
:100DFC009E0190000002EB00DDFE07004F01BE00DB
:100E0C0020079800310798000200BE000E019000E8
:100E1C009E0190000002EB00ACFE07008001780000
:100E2C0001027800600047005001D100C080D3005F
:100E3C00640047003008E1002090E1000700310019
:100E4C0061804100E0004A008002780001037800D4
:100E5C000501780086017800020037000301780054
:100E6C00840178002062A800000037006100510066
:100E7C00E0805900401188002222A90021E2A8003C
:100E8C002342A800E6FE0700E5FE07000080FA00FA
:040E9C00000006004C
:101E18000200FA008A1F78008A007800D0002000AB
:101E280000479800A00020001047980025003700C0
:101E380001057800F3FD070029003700010078004C
:101E48001004E00008003200801F78008A9FBE005E
:101E580000057800EBFD07004F05BE004F00780035
:101E68000020EC00F6FF37001D0037000100780065
:101E78001004E00008003200801F78008A9FBE002E
:101E880000057800DFFD07004F05BE004F00780011
:101E98000020EC00F6FF3700600047008A9FBE0074
:101EA80000057800D7FD07006100470000057800AD
:101EB800D4FD07004F05BE000900370060C0B3001D
:101EC80007003700605CE100D9FF3200615CE10087
:101ED800DAFF3200625CE100E4FF3200F7FF37000E
:0C1EE8004F0578000080FA0000000600A2
:10160C008A1F78001A85FB00B0448000000001009E
:0C161C000020EF004F05780000000600E1
:100C70000000FA00F0FD07000080FA000000060006
:100438000000FA0040C2A9004022AE0001003700C7
:10044800FDFF37004A1288004002AF000100370064
:10045800FDFF37004882BF000080FA000000060058
:100C60000000FA000BFE07000080FA0000000600FA
:100494000000FA0060C2A9006022AE00010037002B
:1004A400FDFF37004A1388006002AF0001003700E7
:1004B400FDFF37006882BF000080FA0000000600DC
:100C44000000FA002302AF0001003700FDFF370067
:0C0C54002A1188000080FA000000060051
:100C80000000FA003302AF0001003700FDFF37001B
:0C0C9000AA1188000080FA000000060095
:102118008A1F78008B1F7800EB0B2800EA0628003E
:1021280072FF070025FF0700CF0578004F057800EC
:04213800000006009D
:101EF4008A1F78008187200010C0B30080487800D2
:101F04008A1F78000B057800B9FD07004F0578009B
:101F1400C9FD07001AC0B300D043800000000100CF
:081F24004F05780000000600E3
:1015F4001A007800A0438800E2004500110078003A
:08160400E0438800000006002D
:10163C00780045006E004000100078008043880060
:10164C001A007800104488006400450010007800EF
:08165C00D043880000000600E5
:10168C001400AE00CB02A9001400AF00CB02A800DE
:04169C000000060044
:101678001400AE00D022A9001400AF00D022A800A8
:041688000000060058
:101664001400AE00D042A9001400AF00D042A8007C
:04167400000006006C
:101AE8001400AE00E2C2A9001400AF00E2C2A800D0
:041AF80000000600E4
:101BEC001400AE00E2E2A9001400AF00E2E2A8008B
:041BFC0000000600DF
:101B9C001400AE00E302A9001400AF00E302A80099
:041BAC00000006002F
:101BC4001400AE00D602A9001400AF00D602A8008B
:041BD4000000060007
:101BD8001400AE00C582A9001400AF00C582A80099
:041BE80000000600F3
:101BB0001400AE00E282A9001400AF00E282A80087
:041BC000000006001B
:101B88001400AE00E2A2A9001400AF00E2A2A8006F
:041B98000000060043
:101B24001400AE00C442A9001400AF00C442A800CF
:041B340000000600A7
:101B10001400AE00C462A9001400AF00C462A800A3
:041B200000000600BB
:101AFC001400AE00CB22A9001400AF00CB22A8002A
:041B0C0000000600CF
:101B38001400AE00D062A9001400AF00D062A80063
:041B48000000060093
:101B74001400AE00D082A9001400AF00D082A800E7
:041B84000000060057
:101B60001400AE00E2C2A9001400AF00E2C2A80057
:041B7000000006006B
:101B4C001400AE00E2E2A9001400AF00E2E2A8002B
:041B5C00000006007F
:1015E0001400AE00E302A9001400AF00E302A8005B
:0415F00000000600F1
:1011A8001400AE00D622A9001400AF00D622A80071
:0411B800000006002D
:1011BC001400AE00C5A2A9001400AF00C5A2A8007F
:0411CC000000060019
:1011D0001400AE00E382A9001400AF00E382A8006F
:0411E0000000060005
:101180001400AE00E3A2A9001400AF00E3A2A8007F
:041190000000060055
:101194001400AE00C442A9001400AF00C442A80069
:0411A4000000060041
:1011E4001400AE00C462A9001400AF00C462A800D9
:0411F40000000600F1
:101DC4008A1F78008B1F7800FAC4B300A3FD0700B4
:101DD40001C4B3000104E100030032007085200057
:101DE40010407800080037000BC8B3000AC6B300DF
:101DF40014FD07001BC0B3002AC6B30011FD070081
:101E04006085200010407800CF0578004F057800E9
:041E140000000600C4
:101460000200FA008A1F78008B1F78008C1F78001A
:101470008D1F7800600047000A48780080872000B0
:10148000104078006204E10010003A00C3FD07003C
:10149000E0004700908720001DC0B3001C00200022
:1014A0008105780010457800FEFE0700E100470046
:1014B000908720001A20EF001C0020008105780092
:1014C0001045780060FD07001900370060014700F3
:1014D0008A80FB000008200000807000004978002E
:1014E0001420EF00D0438000000001001AC0B300B8
:1014F0001044800000000100600047001B00200035
:1015000000057800BFFD07001420EF0010448000A4
:1015100000000100610047001B002000000578006A
:10152000A7FD07001AC0B300D043800000000100EF
:101530006100470010407800CF0678004F06780021
:10154000CF0578004F0578000080FA000000060003
:100B9C000200FA000000200000079800914380003A
:100BAC0001000100E0004700110070000080FA0015
:040BBC00000006002F
:100654000000FA000260EF000602AF000260EC0046
:100664000060EF000642AF000060EC008180FB00F8
:100674000080FB00808070000060EF000662AF0025
:100684000060EC000080FB00808070000060EF00E0
:100694000682AF000060EC000080FB0080807000E8
:1006A4000060EF000622AF000060EC000080FB0059
:1006B400808070000060EF0009C2AF000060EC00B1
:1006C4000080FB00008070000000E2000060EF008A
:1006D40001003A000060EC000080FB000080FA009A
:0406E400000006000C
:1006E8000000FA000420EF00007122000010E10071
:1006F80006003E00D5FF07000000E20001003200BE
:10070800020037000420EC00F7FF370010712200C8
:100718000010E10002003900F00F2000030037004C
:100728000602A80034FF07000020EF000080FA004E
:0407380000000600B7
:100400000000FA008620AF0001003700FDFF370032
:0C0410008620A9000080FA000000060011
:10056C000000FA000260EF001602AF000260EC001F
:10057C000060EF001642AF000060EC008180FB00D1
:10058C000080FB00808070000060EF001662AF00FE
:10059C000060EC000080FB00808070000060EF00C9
:1005AC001682AF000060EC000080FB0080807000C1
:1005BC000060EF001622AF000060EC000080FB0032
:1005CC00808070000060EF0019C2AF000060EC008A
:1005DC000080FB00008070000000E2000060EF0073
:1005EC0001003A000060EC000080FB000080FA0083
:0405FC0000000600F5
:100600000000FA000420EF00007122000010E10059
:1006100006003E00D5FF07000000E20001003200A6
:10062000020037000420EC00F7FF370010712200B1
:100630000010E10002003900F00F20000300370035
:100640001602A80075FF07000020EF000080FA00E6
:0406500000000600A0
:10041C000000FA008A40AF0001003700FDFF3700F2
:0C042C008A40A9000080FA0000000600D1
:10076C000000FA0000000000000000002682BF001C
:08077C000080FA0000000600F5
:100784000000FA002282BF00610060000080FA00CD
:04079400000006005B
:10073C000000FA000020EF002302AF000020EC00C4
:08074C000080FA000000060025
:100754000000FA0000000000000000003682BF0024
:080764000080FA00000006000D
:100468000000FA003282BF00610060000080FA00DC
:04047800000006007A
:10047C000000FA000020EF003302AF000020EC0077
:08048C000080FA0000000600E8
:1010A4000400FA008A1F780000002000100798004E
:1010B4000B0798000A80FB004100DD008C9FBE00F6
:1010C40000457800F1438000010001004F06BE0096
:1010D40062014700E2004700920870008C0078002B
:1010E40061005600000678000200E2000F003200A2
:1010F4000E0090008C9FBE008A9FBE0010457800B1
:10110400F1438000010001004F05BE004F06BE0000
:1011140062014700E2004700920870008E009000D0
:101124006000470061884000ECFF3700606CE1001C
:1011340006003A00004480008C9FBE008A9FBE00D7
:10114400000001004F05BE004F06BE00616CE100C7
:1011540006003A00904380008C9FBE008A9FBE0028
:10116400000001004F05BE004F06BE001E009000A7
:0C1174004F0578000080FA000000060023
:100514000000FA000A80FB0002A2B70008E2AE0065
:10052400020037001000200002003700B3FF07006C
:0C0534000020EF000080FA00000006002C
:100540000000FA000A80FB0012A2B70018E2AE0019
:10055000020037001000200002003700AFFF070044
:0C0560000020EF000080FA000000060000
:1004C4000000FA000682BF007F0060000000E20026
:1004D40001003200FBFF37000622A800C7FF070017
:0804E4000080FA000000060090
:1004EC000000FA000682BF007F0060000000E200FE
:1004FC0001003200FBFF37000642A800BDFF0700D9
:08050C000080FA000000060067
:100798000000FA000682BF007F0060000000E2004F
:1007A80001003200FBFF37001622A80019FF0700DE
:0807B8000080FA0000000600B9
:1007D4000000FA001682BF007F0060000000E20003
:1007E40001003200FBFF37001642A8000AFF070091
:0807F4000080FA00000006007D
:100A48000400FA008A1F78000000200010079800B0
:100A58000B0798000A80FB004100DD006100700070
:100A68008C9FBE0000457800F14380000100010022
:100A78004F06BE0062014700E2004700920870007E
:100A880061005600000678001800E2000D003200F0
:100A98008C9FBE008A9FBE001420EF00B1438000E7
:100AA800010001004F05BE004F06BE008E009000F9
:100AB800804878008E009000600047006188400000
:100AC800EFFF37008C9FBE008A9FBE001A002000EF
:100AD800B1438000010001004F05BE004F06BE0073
:100AE8008E00900080487800606CE10006003A00B3
:100AF800004480008C9FBE008A9FBE000000010059
:100B08004F05BE004F06BE00616CE10006003A00CA
:100B1800704380008C9FBE008A9FBE0000000100C9
:100B28004F05BE004F06BE001E0090004F0578001E
:080B38000080FA000000060035
:100858000000FA000682BF007F0060000000E2008E
:1008680001003200FBFF37000662A800E2FE070025
:100878000682BF007F0060000000E2000100320035
:10088800FBFF37001400E2000200320006A2A800B5
:100898000100370006A2A9000682A800D6FE0700BC
:0C08A80000C2BF000080FA000000060043
:1007FC000000FA001682BF007F0060000000E200DB
:10080C0001003200FBFF37001662A80000FF070052
:10081C001682BF007F0060000000E2000100320081
:10082C00FBFF37001400E2000200320016A2A80001
:10083C000100370016A2A9001682A800F4FE0700DA
:0C084C0010C2BF000080FA00000006008F
:100C04000A0178008B007800618055008005780027
:100C14000200E20009003200821F78008A9FBE00B1
:100C24001285FB00A0438000000001004F05BE00B8
:100C34004F0178000420EC00F2FF370000000600AA
:100BC0000A0178008B00780061805500800578006C
:100BD0000200E2000A003200821F78008A9FBE00F5
:100BE0001420EF00E1438000010001004F05BE002A
:100BF0004F017800004978000420EC00F1FF370035
:040C000000000600EA
:101248000200FA008A1F78008B1F78008C1F780034
:101258008D1F7800600047000A4878000020EC00E5
:101268000B48780080872000104078006204E10075
:1012780009003A0047FE0700E00047009087200079
:101288001A20EF002C002000810578001045780016
:1012980082FF07000D0037001AC0B3001044800019
:1012A800000001001420EF00D0438000000001007E
:1012B800600047002B002000000578004FFE070063
:1012C8001AC0B300D043800000000100CF067800A8
:1012D8004F067800CF0578004F0578000080FA00A7
:0412E80000000600FC
:102050008A1F78008B1F78008AC6B30025FF07000F
:10206000A04488001BC0B3008A8520006AFF0700D7
:10207000BB802000AA448000E1FE07002BC0B30013
:10208000BA80200064FF0700AAC6B30019FF07004A
:10209000804488001BC0B3003A8620005EFF070022
:1020A000BB8020008A448000D5FE07002BC0B3000F
:1020B000BA80200058FF0700CAC6B3000DFF070012
:1020C000904488001BC0B3000A80200052FF070024
:1020D000BB8020009A448000C9FE07002BC0B300DB
:1020E000BA8020004CFF07002BC0B3003A852000C7
:1020F00049FF070058012000B78525000E20ED009C
:10210000FEFF3A001020ED00FCFF3A00CF057800FA
:082110004F05780000000600F5
:101CF4000200FA0080C6B3000054E10006003A0076
:101D04008A1F78001AC0B3003AFD07004F05780017
:101D14000047980011003700A0C6B3000054E1004A
:101D240006003A008A1F78002AC0B30031FD07007C
:101D34004F0578000047980008003700C0C6B3007C
:101D44000054E10005003A008A1F78004AC0B3003D
:101D540028FD07004F057800004798000E409000CA
:101D64006004E10002003A005FFD07000100370053
:0C1D7400100020000080FA0000000600B3
:1011F8000420EF006A14E1000F003100821F78001C
:101208008A1F78007AC6B300930007004F0578005C
:101218004F0178008080FB000A80FB00008060009E
:101228006000E100020032000020EF0003003700F8
:101238000460EC00EFFF370010C0B30000000600A8
:1012EC000400FA008A1F78008B1F78008C1F78008E
:1012FC008D1F7800600047000A4878008087200026
:10130C00104078006204E10010003A0020FE070053
:10131C00E0004700908720001DC0B3001C00200097
:10132C0081057800104578005BFF0700E10047005D
:10133C00908720001A20EF002C00200081057800F7
:10134C0010457800BDFD07003600370060014700EE
:10135C008A80FB00000820000080700000497800A3
:10136C008A1F78001420EF00D04380000000010099
:10137C001AC0B30010448000000001006000470058
:10138C001B002000000578001BFE07001420EF0056
:10139C001044800000000100610047001B00200089
:1013AC000005780003FE07001AC0B300D04380008C
:1013BC00000001004F057800600147000A80FB0027
:1013CC00E100400000082000008070000049780017
:1013DC001420EF00D0438000000001001AC0B300BD
:1013EC001044800000000100600047001B0020003A
:1013FC000005780000FE07001420EF001044800068
:10140C0000000100610047000020EC001B002000E0
:10141C0000057800E7FD07001AC0B300D043800038
:10142C000000010061014700610041001080FB00D9
:10143C00C800DD001280FB0000807000CF06780031
:10144C004F067800CF0578004F0578000080FA0031
:04145C000000060086
:101C00000000FA008A1F78000820EF000A00780020
:101C10006050E10003003D0014002000600015004A
:101C2000000037000005780049FE0700630020002F
:101C3000040178006018E10006003600838045004A
:101C40006180510000804500904878000620ED003A
:101C5000F8FF370000C2B300804D78000400E200B6
:101C60000C0032000420EF00028045009040780014
:101C700000C2B300000CE10002003A000420EC00B6
:101C8000F9FF37006100510080804500D0C2B300E9
:101C9000804878004F0578000080FA0000000600B8
:101550000200FA000420EF006514E10006003100EB
:101560000280FB008080450000C2B3008048780004
:101570000460EC00F8FF37000280FB00808045002B
:101580000020EF0080487800E14151000380FB001B
:101590000080450000079800A2002000110009000B
:1015A0000285D80000032000808040000E009000DB
:1015B00001487800A2002000110009000285D8002F
:1015C000000578006000E10001003A0002003700E9
:1015D0000660ED00EDFF37000080FA000000060015
:10217C000A8020000B0020004B0009000B1D78008A
:04218C000000060049
:10219000018020000000280036000900B0187800F7
:0421A0000000060035
:020000040001F9
:10000000205A000020610000786900007320000081
:100010003A20000000000000000000000000000086
:1000200000000000000000000000000000000000D0
:1000300000000000000000000000000000000000C0
:1000400000000000000000000000000000000000B0
:1000500000000000000000000000000000000000A0
:100060000000000000000000000000000000000090
:100070000000000000000000002000002D2D000006
:100080002D2000005379000073740000656D00009E
:10009000206900006E690000742000002D2D000012
:0C00A0002D2000000020000020000000C7
:0400AC00000200004E
:1000B00020580000206100007869000073200000D3
:1000C0003A20000000200000592000006178000064
:0C00D00069730000203A000020000000CE
:1000DC00460B00003C0B0000320B0000740D0000BE
:1000EC00F60D0000CE0D0000E20D0000EC0D00003E
:1000FC00D80D0000C40D0000920D0000880D00000A
:10010C00FFFF0000FFFF0000FFFF0000FFFF0000EB
:10011C00FFFF0000FFFF0000FFFF0000FFFF0000DB
:10012C00FFFF0000FFFF0000FFFF0000FFFF0000CB
:10013C002000000000000000000000000000000093
:10014C001000000000000000020000000000000091
:10015C000000000000000000000000000000000093
:10016C000000000000000000000100000000000082
:08017C00380600001C0200001F
:0200000401F009
:20000000CF000000CF00000007000000A2000000850000007F000000E7000000C1000000ED
:00000001FF
