:020000040800F2
:10000000FCFF002061230000592300005923000059
:1000100059230000592300005923000059230000F0
:1000200059230000592300005923000059230000E0
:1000300059230000592300005923000059230000D0
:1000400059230000592300005923000059230000C0
:1000500059230000592300005923000059230000B0
:1000600059230000592300005923000059230000A0
:100070005923000059230000592300005923000090
:100080005923000059230000592300005923000080
:100090005923000059230000592300005923000070
:1000A0005923000059230000592300005923000060
:1000B0005923000059230000592300005923000050
:1000C0005923000059230000592300005923000040
:1000D0005923000059230000592300005923000030
:1000E0005923000059230000592300005923000020
:1000F0005923000059230000592300005923000010
:1001000059230000592300005923000059230000FF
:1001100059230000592300005923000059230000EF
:1001200059230000592300005923000059230000DF
:1001300059230000592300005923000059230000CF
:1001400059230000592300005923000059230000BF
:1001500081B000F218010A68C2F3400181F0010188
:10016000C9B2C8B201B0704781B000F214010A6888
:1001700000F218010968090442EA0101084601B0C9
:100180007047FFFF01480068704700BFA8000020CB
:1001900081B0CDF800E04FF000021949884207D144
:1001A00018490B6818490A6818490A601C460BE090
:1001B0001749884207D117490B6817490A6813493C
:1001C0000A601C4600E0144614490C6003461846B9
:1001D000FFF7BEFF70B91149096851B12CB905206C
:1001E0000A4C2468A047002005E0611E084604462A
:1001F000FFE7ECE70120DDF800E001B0704700BF49
:100200000054004070000020B0000020AC0000202E
:100210000058004074000020B40000207800002046
:1002200081B0CDF800E00B46FFF79EFF00EA030225
:100230009A4240F2000200D10122D0B2DDF800E083
:1002400001B0704783B0CDF800E000F0FF031A0959
:10025000104603F00F02134614E0194A02921FE001
:10026000184A02921CE0184A029219E0174A0292B8
:1002700016E0174A029213E0164A029210E0164A5C
:1002800002920DE00028E8D00128E9D00228EAD047
:100290000328EBD00428ECD00528EDD00628EED0BA
:1002A000012212B29A40ADF8042002980A46BDF825
:1002B000041000F01DFDDDF800E003B0704700BF42
:1002C00000080140000C01400010014000140140F2
:1002D00000180140001C01400020014082B0CDF810
:1002E00000E0CFB201469846029B4FF000064FF067
:1002F0000005C44CA14207D1C34CD4F80090C34CB4
:100300002568C34C25600BE0C24CA14207D1C24C0A
:100310002068C24C2568BE4C2560814600E0A94695
:10032000BF4CC4F80090F4E101F210057C00A4B2C7
:1003300044F00104A4B22C60019616464F46019A7F
:1003400001F214042568C5F3400464B9B44C246870
:1003500044B127B90320AE4C2468A047E2E1781EDF
:100360000746FFE7ECE700250C6865F38A240C607C
:1003700001F21404206800BF01F218042468240468
:1003800040EA04042046012B05D101250C6865F3E1
:1003900049240C6004E001250C6865F308240C6016
:1003A0009F4C25689146984637460E469D493046F3
:1003B000FFF736FF68B99A4C24684CB125B9032081
:1003C000934C2468A047ADE16C1E20460546FFE72C
:1003D000ECE707EB090506F2100424682C70B8F16D
:1003E000010F13D18E4C216830460568C5F34024B7
:1003F0005CB98B4C24683CB121B90320844C24683F
:10040000A0478FE1491EFFE7EFE712E0844C216827
:1004100030460568C5F300245CB9814C24683CB1C2
:1004200021B903207A4C2468A0477BE1491EFFE7ED
:10043000EFE777E101250C6865F38A240C6001255C
:100440000C6865F3CB240C6001F210057C00A4B2AB
:1004500044F00104A4B22C604F4601F21404256854
:10046000C5F3400464B96E4C246844B127B9032035
:10047000674C2468A04755E1781E0746FFE7ECE784
:1004800001F21404206800BF01F218042468240457
:10049000204300250C6865F38A240C60604C2768B3
:1004A00001F214042568C5F3800464B95C4C246827
:1004B00044B127B90320564C2468A04732E1781E86
:1004C0000746FFE7ECE7012B05D101250C6865F332
:1004D00049240C6004E001250C6865F308240C60D5
:1004E000951901F2100424682C70741C151901F27E
:1004F000100424682C70012B14D1494C22680D681B
:10050000C5F3402464B9464C246844B122B90320A1
:100510003F4C2468A04705E1501E0246FFE7EEE786
:10052000084613E03E4C22680D68C5F3002464B908
:100530003B4C246844B122B90320354C2468A047C1
:10054000F0E0501E0246FFE7EEE70846002504688B
:1005500065F3CB240460E5E001250C6865F38A248B
:100560000C6001F210057C00A4B244F00104A4B2B6
:100570002C604646C846894617461D462A494846C5
:10058000FFF74EFE78B9264C24685CB1B8F1000F35
:1005900004D103201E4C2468A047C3E0A8F1010049
:1005A0008046FFE7EAE70021A8464A46B1463B46B7
:1005B000A9F10304A14222D2194C25688A461746A4
:1005C0001E4618493846FFF72BFE60B9144C2468C4
:1005D00044B125B903200E4C2468A047A2E0681E50
:1005E0000546FFE7EDE706EB0A0507F2100424686D
:1005F0002C700AF10104214633463A46D8E7084CEC
:1006000000F014B80054004070000020B00000203A
:10061000AC0000200058004074000020B40000200E
:1006200078000020400003000200030027680193C7
:100630000B4616464246019906F214042568C5F396
:10064000800464B9394C246844B127B90320384C7C
:100650002468A04766E0781E0746FFE7ECE7002520
:10066000346865F38A243460CD1806F210042468D7
:100670002C70581C2D4C23681746024606F21404B1
:100680002568C5F3800464B9284C246844B123B9B3
:100690000320274C2468A04744E0581E0346FFE788
:1006A000ECE7012F07D10125346865F34924346054
:1006B0001046324621E00125346865F30824346091
:1006C0001A4CD4F8008017460D461A493046FFF7F9
:1006D000A7FD78B9154C24685CB1B8F1000F04D1BE
:1006E0000320134C2468A0471CE0A8F101008046B9
:1006F000FFE7EAE72946324638460D1802F21004B1
:1007000024682C70441C0D1902F2100424682C700B
:1007100008E0B8F1010F3FF407AEB8F1020F3FF463
:1007200089AE19E7DDF800E002B0704778000020DC
:10073000AC0000200100030081B00268C2F3401148
:1007400001B9FAE7011D096888B201B07047FFFFDF
:1007500082B0CDF800E0029E4FF00005564CA0425A
:1007600006D1564C2768564C2568564C25600AE041
:10077000554CA04206D1554C2768554C2568514C24
:10078000256000E02F46534C276000F210054C0016
:10079000A4B22C60B9460746904635461E464E49DF
:1007A0003846FFF73DFD88B94A4C24686CB1B9F171
:1007B000000F06D10420434C2468A0474FF6FF7079
:1007C00076E0A9F101008146FFE7E8E70020019704
:1007D00029463746019E7C1EA04226D206F210050D
:1007E00008EB000424782C603A4CD4F80090824640
:1007F0000D463A493046FFF713FD88B9354C246859
:100800006CB1B9F1000F06D104202E4C2468A0472A
:100810004FF6FF704CE0A9F101008146FFE7E8E7E1
:100820000AF1010420462946D5E706F2100508EB37
:10083000000424782C60274C27680D462849304650
:10084000FFF7EEFC70B9234C246854B137B904208B
:100850001C4C2468A0474FF6FF7029E0781E07461D
:10086000FFE7EBE7012D05D10125346865F3492445
:1008700034601CE00125346865F308243460154CAD
:100880002768354617492846FFF7CAFC78B9114C46
:1008900024685CB137B904200A4C2468A0474FF69D
:1008A000FF7005E07C1E20460746FFE7EAE70020D0
:1008B000DDF800E002B070470054004070000020F6
:1008C000B0000020AC000020005800407400002060
:1008D000B40000207800002082000700800007009C
:1008E000840007000100030081B00168C1F380109B
:1008F00001B0704782B0CDF800E00346194601917F
:10090000FFF740FC40F2E83100FB01F201990A6078
:100910001F490978C1F30311C8B21E4909180878A4
:10092000C0B21A1D1968C140116019490988C1F384
:10093000022188B2174909180878C0B203F20802E8
:10094000191D0968C140116011490988C1F3C2210C
:1009500088B2104909180878C0B203F20C02191DB8
:100960000968C14011600A490988C1F3813188B220
:10097000094909180978C8B203F2100203F20C0100
:100980000968B1FBF0F11160DDF800E002B07047DA
:1009900004100240442700007027000081B0016865
:1009A000C1F3401001B0704781B0194900EA01015C
:1009B000084600220EE0042022E0082020E010205B
:1009C0001EE020201CE040201AE0802018E040F2C9
:1009D000001015E00F498842EDD00F498842ECD055
:1009E0000E498842EBD00E498842EAD00D49884230
:1009F000E9D00D498842E8D00C498842E7D010463A
:100A00000B49096841EA000209490A6001B07047D0
:100A100000FCFFFF00080140000C014000100140F5
:100A20000014014000180140001C0140002001405A
:100A30001810024083B0CDF800E003464FF00000EC
:100A400026498B4206D126490C6826490A68264960
:100A50000A600BE025498B4207D1254908682549E2
:100A60000A6821490A60044600E0044622490C60F5
:100A7000019402931846FFF78BFB029B019C10B96F
:100A80004FF6FF7025E00122196862F30821196012
:100A900003F214010A68C2F3402111B14FF6FF704E
:100AA00017E025461C4615492046FFF7B9FB78B9E3
:100AB0001149096859B135B906200B4C2468A04783
:100AC0004FF6FF7005E0691E08460546FFE7EAE7B6
:100AD0000020DDF800E003B0704700BF0054004084
:100AE00070000020B0000020AC0000200058004042
:100AF00074000020B40000207800002001000300F2
:100B000081B0CDF800E00348FFF7EEFEDDF800E02D
:100B100001B070470044004081B0ADF800100146BC
:100B2000BDF800000B68C3F3C01202B9FAE70A1D52
:100B3000106001B07047FFFF81B0CDF800E00348BE
:100B4000FFF7FAFDDDF800E001B070470048004013
:100B500081B0CDF800E00348FFF7EEFDDDF800E0DE
:100B600001B070470044004081B0CDF800E008B407
:100B700013460A46C1B20448FFF7EAFD01B0DDF8AA
:100B800000E001B0704700BF0054004081B0CDF8D4
:100B900000E00348FFF702FFDDF800E001B0704716
:100BA0000044004081B000F20C02116000F2080223
:100BB0001368C3F3000202B9F8E700F20C021268EE
:100BC00090B201B07047FFFF81B0CDF800E003485C
:100BD000FFF7E4FEDDF800E001B070470050004090
:100BE00081B0CDF800E00348FFF77EFEDDF800E0BD
:100BF00001B070470050004081B0CDF800E00348DC
:100C0000FFF772FEDDF800E001B07047004C0040D5
:100C100081B0CDF800E00348FFF78EFDDDF800E07D
:100C200001B070470050004081B0CDF800E00348AB
:100C3000FFF75AFEDDF800E001B0704700480040C1
:100C400081B0CDF800E00348FFF7A8FEDDF800E032
:100C500001B070470048004081B0CDF800E0034883
:100C6000FFF79CFEDDF800E001B07047004C00404B
:100C700081B0CDF800E00348FFF75EFDDDF800E04D
:100C800001B07047004C004081B0CDF800E008B4DE
:100C900013460A46C1B20448FFF720FB01B0DDF855
:100CA00000E001B0704700BF0058004081B0002351
:100CB0000360CB009BB242EA030304689BB244EAA0
:100CC00003030360051D13141C462B6864F38203A1
:100CD0002B6000F21C0500242B6864F3CB232B60EF
:100CE0000124036864F38613036001B07047FFFFBB
:100CF00081B0CDF800E08CB21546774B00EA0303D3
:100D00001E461846FFF750FEB4F1FF0F0CD1734B8F
:100D10009D4203D14FF033333360D9E0422D03D1EC
:100D20004FF044333360D3E04FF6FF739C4214D14D
:100D30006A4B9D4207D14FF033333360341D4FF07F
:100D400033332360C4E0422D07D14FF04433336086
:100D5000341D4FF044332360BAE00021002005F039
:100D600001030BB100211DE005F0020333B105F4CE
:100D7000C0730BB1082100E0042113E005F0040367
:100D800033B105F020030BB1042100E0002109E09C
:100D900005F0080333B105F020030BB10C2100E08E
:100DA0000821FFE74E4B05EA03030BB1032009E0DE
:100DB00005F400730BB1022004E005F480630BB16D
:100DC0000120FFE705F00C030BB10143FFE704F03E
:100DD000FF039BB2002B3BD0376800201FFA84F83A
:100DE00032462E4608282CD24FF0010303FA00F4B5
:100DF00008EA0403A34222D185004FF00F03AB4061
:100E0000DB4307EA030401FA05F344EA03031D4642
:100E100006F48173B3F5817F05D102F214044FF01B
:100E200001038340236006F08203822B05D102F286
:100E300010044FF00103834023602F46FFE7401C5E
:100E4000D0E717601FFA88F00F463146164602E0D9
:100E50000F462946A0B2B0F1FF0F39D9331DD3F8A0
:100E600000800022082A30D202F208044FF0010369
:100E700003FA04F400EA0403A34224D195004FF0DE
:100E80000F03AB40DB4308EA030807FA05F348EA1F
:100E9000030801F48173B3F5817F07D106F21405CD
:100EA00002F208044FF00103A3402B6001F082031B
:100EB000822B07D106F2100502F208044FF001035D
:100EC000A3402B60FFE7521CCCE7331DC3F8008022
:100ED000DDF800E001B0704700FCFFFF14000800DF
:100EE0000008080081B0CDF800E008B413460A46B7
:100EF000C1B20448FFF7F2F901B0DDF800E001B03B
:100F0000704700BF0054004081B0CDF800E00348B6
:100F1000FFF712FCDDF800E001B070470038014037
:100F200081B0CDF800E00348FFF784FDDDF800E074
:100F300001B070470058004081B0CDF800E081B2A8
:100F40000348FFF72FFEDDF800E001B0704700BF57
:100F50000030014081B0CDF800E0012252B23E499C
:100F60000A6000F268010B686FF0006103EA010299
:100F7000144603F00061C90E0B4602F00041B1F1C6
:100F8000004F02D135490A6801E035490A6804F486
:100F90007021090C0E464FF6FF7104EA01010D465F
:100FA00004F44011B1F5401F0DD16FF0706102EAF9
:100FB00001010E462A490A686FF070610A4028490B
:100FC0000A60324616E004F48011B1F5801F09D1A1
:100FD0004FF00301B140C94302EA010141F07061E1
:100FE0000A4607E0610D090105FA01F1C9430A400B
:100FF00042F070622BB1610D090105FA01F10A435B
:10100000FFE704F00041B1F1004F02D113490A603B
:1010100001E013490A6040F2000A81464FEA8A0162
:1010200009EB01010968B1F1FF3F10D009F134016A
:101030004FEA8A03C91809680A4609EB03010968DF
:1010400008461146FFF7FEF80AF1010AE6E7DDF867
:1010500000E001B0704700BF000342421C000140A5
:101060000400014081B0CDF800E008B413460A4600
:10107000C1B20448FFF76CFB01B0DDF800E001B03D
:10108000704700BF0058004081B0CDF800E0034831
:10109000FFF72AFCDDF800E001B07047003801409E
:1010A00081B0CDF800E00348FFF7C4FCDDF800E0B4
:1010B00001B070470054004081B0CDF800E0034813
:1010C000FFF76CFCDDF800E001B07047003801402C
:1010D00089B0CDF800E0834698B28C46BDF8241064
:1010E0000A9E04ACADF80410ADF808002046FFF7E6
:1010F00001FCBDF80800BDF80410644CA34512D1F2
:1011000001256DB2624C2560624D634C2560634DD4
:10111000634C2560634D644C2560644D644C2560D0
:10112000079C039456E0634CA34512D101256DB290
:10113000614C2560614D584C2560614D584C2560CF
:10114000604D594C2560604D594C2560069C0394B8
:1011500040E05E4CA34512D101256DB25C4C256088
:101160005C4D4D4C25605C4D4D4C25605B4D4E4CAF
:1011700025605B4D4E4C2560069C03942AE0594C3B
:10118000A34512D101256DB2574C2560574D424CF5
:101190002560574D424C2560564D434C2560564DB9
:1011A000434C2560069C039414E0544CA34511D194
:1011B00001256DB2524C2560524D374C2560524D81
:1011C000374C2560514D384C2560514D384C2560C9
:1011D000069C0394ADF80410ADF808003046FFF704
:1011E000B9FEBDF80800BDF804100BF1100500248D
:1011F0002C600BF110052C680C432C600BF10C05D6
:1012000000242C6018B140F4806080B2FFE70BF13D
:101210000C052C6804432C600BF10C060125346886
:1012200065F34D3434600BF10C060125346865F329
:10123000C30434600BF10C060125346865F38204A5
:1012400034600BF1140500242C60039D19246543C0
:101250004FEA8C04B5FBF4F76424B7FBF4F42601E1
:10126000350964246C433C1B240104F232056424D8
:10127000B5FBF4F404F00F0446EA04040BF108058E
:10128000A4B22C60DDF800E009B0704700380140DE
:101290003803424285150000C0000020090F0000FD
:1012A000C4000020B9100000C80000208910000010
:1012B000CC00002000440040C4034242311500002D
:1012C000510B00008D0B0000010B00000048004096
:1012D000C803424215150000390B0000410C000004
:1012E000290C0000004C0040CC034242691500006C
:1012F000710C0000590C0000F90B00000050004078
:10130000D00342424D150000110C0000C90B000033
:10131000E10B000081B0CDF800E081B20348FFF797
:1013200041FCDDF800E001B0704700BF003800402C
:1013300081B0CDF800E081B20348FFF733FCDDF85F
:1013400000E001B0704700BF003C004082B0CDF823
:1013500000E040F20004ADF80440064C2468A047C9
:10136000BDF9041041EA000000B2DDF800E002B06F
:10137000704700BFA400002082B0CDF800E040F22A
:101380000004ADF80440044C2468A047BDF90400F3
:10139000DDF800E002B07047A000002081B0CDF879
:1013A00000E0019D2C4610B408B493B28AB2014605
:1013B0000348FFF78DFE02B0DDF800E001B0704792
:1013C0000048004081B0CDF800E0019D2C4610B4EB
:1013D00008B493B28AB201460348FFF779FE02B01F
:1013E000DDF800E001B070470038014081B0CDF871
:1013F00000E0019D2C4610B408B493B28AB20146B5
:101400000348FFF765FE02B0DDF800E001B0704769
:101410000044004083B0CDF800E08DF80400029154
:101420000B4C0C4B1C600C4C0C4B1C60012464B22C
:101430000B4B1C601046FFF78DFD029A9DF80410BF
:101440000848FFF733FCDDF800E003B0704700BF49
:1014500031130000B8000020E5150000BC0000209A
:10146000BC034242003C004081B0CDF800E0044A99
:1014700089B2FFF73DFCDDF800E001B0704700BF26
:101480001400080081B0CDF800E04FF0420289B2AC
:10149000FFF72EFCDDF800E001B0704783B0CDF817
:1014A00000E08AB2014690B283B2421E90B26BB1A4
:1014B0000A78D4B2ADF804000291A0B2054C2468B9
:1014C000A0470299BDF80400491CEDE7DDF800E0F3
:1014D00003B070479C00002083B0CDF800E0ADF869
:1014E00008100190BDF80830BDF80820521EADF874
:1014F00008204BB1FF20064C2468A047019A1070C9
:10150000019A521C0192EDE7DDF800E003B070474C
:101510009400002081B0CDF800E081B20348FFF7CD
:10152000FBFADDF800E001B0704700BF0048004062
:1015300081B0CDF800E081B20348FFF7EDFADDF8A5
:1015400000E001B0704700BF0044004081B0CDF81A
:1015500000E081B20348FFF7DFFADDF800E001B0F8
:10156000704700BF0050004081B0CDF800E081B26C
:101570000348FFF7D1FADDF800E001B0704700BF83
:10158000004C004081B0CDF800E081B20348FFF785
:10159000C3FADDF800E001B0704700BF0038014039
:1015A00081B0CDF800E081B20348FFF7FBFADDF827
:1015B00000E001B0704700BF0030014082B0CDF8BC
:1015C00000E040F20004ADF80440054C2468A04758
:1015D000BDF90440044320B2DDF800E002B07047DA
:1015E0009800002081B0CDF800E081B20348FFF7F9
:1015F000D9FADDF800E001B0704700BF003C0040C0
:1016000081B0CDF800E081B20348FFF7CBFADDF8F6
:1016100000E001B0704700BF0038004081B00A46CA
:1016200081B200208DB21146052805D20B18202268
:101630001A70401CC0B2F7E70B1800221A70401E47
:10164000C0B20C180A23B5FBF3F203FB125292B29C
:10165000303222700A22B5FBF2F292B295B202B990
:1016600002E0401EC0B2ECE701B0704782B0CDF896
:1016700000E001A9087020490978022915D1FFF777
:1016800065FE01AA1D4909780023C8B2114601224E
:10169000FFF794FF0DF10502184909780123C8B23C
:1016A00011460122FFF768FE1EE001AA40F080010A
:1016B00011700020124C2468A0470120114C2468AE
:1016C000A04701A908460121FFF7E8FE00200D4CC4
:1016D0002468A0470DF1050108460121FFF7FCFE33
:1016E0000120074C2468A0470DF105010978C8B214
:1016F000DDF800E002B07047840000208500002083
:101700008C0000208800002083B0CDF800E08DF828
:10171000080001AA9DF808101170374909780229BC
:1017200015D1FFF713FE01AA344909780023C8B286
:1017300011460122FFF742FF0DF105022F490978FA
:101740000123C8B211460222FFF716FE44E001AAA7
:101750009DF8081041F0800111700020284C246889
:10176000A0470120274C2468A04701A90846012171
:10177000FFF794FE0020234C2468A0470DF10501DB
:1017800008460121FFF7A8FE01201D4C2468A04750
:1017900001AA9DF80810491C09B241F0800111709E
:1017A0000020174C2468A0470120164C2468A0474D
:1017B00001A908460121FFF771FE0020114C2468A1
:1017C000A0470DF10501491C08460121FFF784FEE1
:1017D00001200B4C2468A0470DF10503591C097822
:1017E000C8B2020212B2197842EA010108B2DDF869
:1017F00000E003B0704700BF840000208500002097
:101800008C0000208800002082B0CDF800E001AA02
:101810001070521C1170124A1278022A0BD1FFF775
:1018200095FD01AB0F4A127819460123D0B202226E
:10183000FFF7C4FE10E001200B4C2468A0470020F5
:101840000A4C2468A04701AA02211046FFF726FE91
:101850000120064C2468A047DDF800E002B0704784
:101860008400002085000020880000208C000020DB
:1018700082B0CDF800E08DF8040000218DF805104D
:101880009DF805100A2910D26720FFF7EFFE9DF89A
:10189000041000EA0101C9B209B1002006E09DF878
:1018A0000510491C8DF80510EAE70120DDF800E07D
:1018B00002B0704700F230011C310A6805490A6025
:1018C00000F208010A6804490A60011D0A68034918
:1018D0000A607047900000208C00002088000020E3
:1018E00001490860704700BFB48122420149086085
:1018F000704700BFA801224201490860704700BF3D
:101900009001214201490860704700BF88012242CE
:1019100001490860704700BF800121420149086009
:10192000704700BFA881224201490860704700BF8C
:10193000AC01224201490860704700BFB001224259
:1019400081B0CDF800E00178CCB2A0B2034C24689D
:10195000A0470020DDF800E001B0704780000020C3
:1019600081B0CDF800E0011D0A680168C8B21146D7
:10197000034AFFF74FFD0020DDF800E001B070479B
:101980007826000081B0CDF800E0011D0A680168EA
:10199000C8B21146034AFFF73DFD0020DDF800E024
:1019A00001B070477826000081B0CDF800E0A9E0D2
:1019B000012905D140F210016548FFF763FD04E0FD
:1019C00040F210016248FFF74FFDBBE0012905D14D
:1019D00040F204015F48FFF755FD04E040F20401C6
:1019E0005C48FFF741FDADE0012905D142F200015D
:1019F0005948FFF747FD04E042F200015648FFF75F
:101A000033FD9FE0012905D140F200415148FFF725
:101A100039FD04E040F200414E48FFF725FD91E01A
:101A2000012905D140F600014A48FFF72BFD04E0EB
:101A300040F600014748FFF717FD83E0012905D173
:101A400041F200014348FFF71DFD04E041F20001AF
:101A50004048FFF709FD75E0012905D140F2010179
:101A60003B48FFF70FFD04E040F201013848FFF763
:101A7000FBFC67E0012905D140F200413648FFF741
:101A800001FD04E040F200413348FFF7EDFC59E06E
:101A9000012905D140F200212F48FFF7F3FC04E0B3
:101AA00040F200212C48FFF7DFFC4BE0012905D173
:101AB00040F200112848FFF7E5FC04E040F2001175
:101AC0002548FFF7D1FC3DE0012905D140F2400156
:101AD0002248FFF7D7FC04E040F240011F48FFF71F
:101AE000C3FC2FE0012905D140F280011B48FFF71C
:101AF000C9FC04E040F280011848FFF7B5FC21E082
:101B0000012020E000283FF453AF01283FF45EAFEE
:101B100002283FF469AF03283FF474AF04283FF470
:101B20007FAF05283FF48AAF06283FF495AF07281A
:101B3000A0D00828ACD00928B8D00A28C4D00B28D7
:101B4000D0D0DDE70020DDF800E001B0704700BF35
:101B5000000801400010014000140140000C014049
:101B600081B0CDF800E0A9E0012905D140F22001C3
:101B70006548FFF787FC04E040F220016248FFF768
:101B800073FCBBE0012905D140F208015F48FFF773
:101B900079FC04E040F208015C48FFF765FCADE029
:101BA000012905D144F200015948FFF76BFC04E01C
:101BB00044F200015648FFF757FC9FE0012905D188
:101BC00040F200415148FFF75DFC04E040F2004163
:101BD0004E48FFF749FC91E0012905D140F600018C
:101BE0004A48FFF74FFC04E040F600014748FFF782
:101BF0003BFC83E0012905D141F200014348FFF796
:101C000041FC04E041F200014048FFF72DFC75E083
:101C1000012905D141F200013D48FFF733FC04E002
:101C200041F200013A48FFF71FFC67E0012905D1A6
:101C300040F600013648FFF725FC04E040F60001BD
:101C40003348FFF711FC59E0012905D140F240016A
:101C50002F48FFF717FC04E040F240012C48FFF743
:101C600003FC4BE0012905D140F220012848FFF791
:101C700009FC04E040F220012548FFF7F5FB3DE0B8
:101C8000012905D140F240012248FFF7FBFB04E0A7
:101C900040F240011F48FFF7E7FB2FE0012905D183
:101CA00040F280011B48FFF7EDFB04E040F28001A9
:101CB0001848FFF7D9FB21E0012020E000283FF47D
:101CC00053AF01283FF45EAF02283FF469AF032809
:101CD0003FF474AF04283FF47FAF05283FF48AAF88
:101CE00006283FF495AF0728A0D00828ACD00928D3
:101CF000B8D00A28C4D00B28D0D0DDE70020DDF80A
:101D000000E001B0704700BF000801400010014032
:101D100000140140000C014081B0CDF800E00949F9
:101D200002B440F2000340F2000240F20001FFF76B
:101D300049FB01B0044A05490A600020DDF800E0D3
:101D400001B07047A025000085150000800000202C
:101D500081B0CDF800E0094902B440F2000340F23E
:101D6000000240F20001FFF741FB01B0044A0549BF
:101D70000A600020DDF800E001B070470C2600008A
:101D8000311500008000002081B0CDF800E0094945
:101D900002B440F2000340F2000240F20001FFF7FB
:101DA000FDFA01B0044A05490A600020DDF800E0B0
:101DB00001B0704734250000151500008000002098
:101DC00081B0CDF800E0094902B440F2000340F2CE
:101DD000000240F20001FFF709FB01B0044A054987
:101DE0000A600020DDF800E001B070470C2600001A
:101DF000311500008000002001490860704700BFD5
:101E0000A481224201490860704700BFB00122420C
:101E100001490860704700BF988121420268034968
:101E20000A60011D0A6802490A6070479C00002090
:101E30009400002001490860704700BF9C81214246
:101E400001490860704700BF98812242014908603B
:101E5000704700BF9481224201490860704700BF6B
:101E6000B081224201490860704700BFB081224220
:101E700001490860704700BF9C8121420149086008
:101E8000704700BF9401214201490860704700BFBC
:101E9000A081224201490860704700BF9881214219
:101EA00001490860704700BFA8012242014908604B
:101EB000704700BFAC01224201490860704700BF73
:101EC0008C01224201490860704700BFB88122425C
:101ED00081B0CDF800E04F20FFF7C8FB402802D0CA
:101EE0000848007809E080216020FFF78DFC01217F
:101EF0006220FFF789FC04480078DDF800E001B0BB
:101F0000704700BF6C0000206D00002081B0CDF84C
:101F100000E00E46002183B2002805DA012140428C
:101F200080B280B28FB201E098B28FB23146FFF733
:101F300075FB06213446B8B2002908D963184A1E39
:101F400092B2A21812781A70491E89B2F4E72022C0
:101F5000227070B1002081B2204642181278202AE7
:101F600002D1491C89B2F8E74A1E92B283182D2289
:101F70001A70DDF800E001B07047FFFF83B0CDF8C4
:101F800000E08DF808009DF80810682905D10120AF
:101F9000FFF76EFC8DF8040012E09DF808106A2926
:101FA00005D10220FFF764FC8DF8040008E09DF8DD
:101FB00008106C2904D10420FFF75AFC8DF80400A6
:101FC0009DF8041021B99DF80800FFF79DFB01E082
:101FD000012000B2DDF800E003B0704781B0CDF819
:101FE00000E05FFA81F95FFA82FA0FE05FFA8AF1A6
:101FF0005FFA89F0FFF7D8FC0DE05FFA8AF15FFA2B
:1020000089F0FFF7ADFD06E0012004E00028EDD0E7
:102010000128F2D0F8E7DDF800E001B07047FFFFDB
:1020200083B0CDF800E0024610460D228DF808205E
:102030000A228DF809201FE0FFF782FC23E00278D6
:102040002AB10190FFF77CFC0198401CF7E71AE0E9
:1020500002782AB10190FFF773FC0198401CF7E762
:1020600002AA1046FFF76CFC0DF109021046FFF7BB
:1020700067FC08E0062007E00029DDD00129DED05A
:102080000229E5D0F6E70020DDF800E003B0704754
:1020900081B0CDF800E004460123084A13700846D9
:1020A000FFF7BCFE2046FFF705FC0120044C246826
:1020B000A047DDF800E001B0704700BF84000020B9
:1020C0008C00002081B0CDF800E08B4609E0584636
:1020D000FFF746FC0AE05846FFF754FC06E00120F3
:1020E00004E00028F3D00128F5D0F8E7DDF800E09F
:1020F00001B0704781B0CDF800E011E00846FFF76D
:1021000043FE16E00846FFF75BFE12E00846FFF7C5
:1021100003FE0EE00846FFF71BFE0AE0012008E080
:102120000028EBD00128EDD02028EFD03028F1D0C6
:10213000F4E7DDF800E001B07047FFFF81B01CF864
:10214000019B0BF8019BBBEB0A0FF8D101B0704764
:1021500081B01548006840F001011348016013493F
:102160001348016010480168124801400E480160A0
:102170000D4801686FF4802001400B4801600C4855
:1021800001686FF4FE0001400948016006480168DB
:102190006FF0A0500140044801604FF00001064874
:1021A000016001B0704700BF001002400000FFF066
:1021B00004100240FFFFF6FE2C10024081B04FF0E9
:1021C00000094FF0000CBDEB0A0F04DCBDEB0B0F58
:1021D00001DBD446EA464BF8049BBBEB0A0FFAD16D
:1021E000BCEB0A0F05DDE246D9F800B00BF1040B99
:1021F000F1E701B07047FFFF81B0CDF800E00122A8
:1022000007210020FFF7EAFE002202210020FFF74D
:10221000E5FE002201210020FFF7E0FE0E48014606
:102220000020FFF74FFF42F280512020FFF762FFAE
:102230000A480221FFF7F4FE44F67F77C0F2120746
:102240007F1EFDD100BF00BF00BF00BF00BFDDF893
:1022500000E001B0704700BF6027000000000020D0
:1022600081B0CDF800E06820FFF788FE244908809F
:1022700024480121FFF7D4FE2148B0F9000022498B
:10228000FFF744FE02212048FFF7CAFE6A20FFF74D
:1022900075FE1E4908801E480121FFF7C1FE1B483C
:1022A000B0F900001849FFF731FE02211648FFF788
:1022B000B7FE6C20FFF762FE164908801648012120
:1022C000FFF7AEFE1348B0F900000F49FFF71EFEFE
:1022D00002210D48FFF7A4FE10480221FFF7A0FEDF
:1022E00041F6FF27C0F2B7077F1EFDD100BF00BF38
:1022F00000BF00BF00BFDDF800E001B0704700BFC5
:102300006E00002016000020210000207C0000202C
:10231000530000207E0000205E00002069000020A5
:1023200081B0CDF800E005490548FFF7B1FEFFF7A1
:10233000CFFDDDF800E001B0704700BF6827000066
:10234000E426000081B002490248016001B07047F4
:1023500040190100A800002081B0FEE701B07047DD
:1023600000F00EF800F054FAFFF7ECFF00F002FA6C
:10237000FFF742FFFFF7D4FFFFF772FFFCE7FEE72E
:1023800081B0CDF800E0464A464B474C47494BF6F2
:102390008030814206D94648006840F00201444836
:1023A000016011E045F6C050814206D940480068FE
:1023B00040F001013E48016006E03D4801686FF0D1
:1023C000070001403A480160FFF7C2FE3948036048
:1023D00039480460394802EA00013948016002F0D6
:1023E000010040B119463648006800F0020000289C
:1023F00000D1F8E700E0194602F4803040B10B4606
:102400002F48006800F40030002800D1F8E700E011
:102410000B4602F0805068B12948006840F08051B6
:10242000274801602648006800F00050002800D1CD
:10243000F8E7FFE702F0806078B12148006840F0DB
:1024400080611F48016011461A461D48006800F06F
:102450000060002800D1F8E701E011461A4601F0BB
:10246000807070B11648006840F0807114480160B7
:1024700011461348006800F0007000B9F9E70A46F9
:10248000FFE70C48006800F00C01900000F00C0021
:10249000814200D0F5E7DDF800E001B0704700BFF1
:1024A0008100010502841D0044060100401901005D
:1024B00000200240041002402C100240FFFF0F00D9
:1024C00000100240202D2D2D2053797374656D204E
:1024D000696E6974202D2D2D2000205820617869A7
:1024E00073203A20000000000000000000000000FF
:1024F00000000000000000000000000000000000DC
:1025000000000000000000000000000000000000CB
:102510000000000000000020592061786973203A13
:102520002000205A2061786973203A200020200082
:102530000200FFFF3800000039000000FFFFFFFF2E
:10254000000000000000000000000000000000008B
:10255000000000000000000000000000000000007B
:102560000000000000000000180800001800000033
:10257000000000000000000000000000000000005B
:10258000000000000000000000000000000000004B
:1025900000000000000000000000000030001408EF
:1025A000090000000A000000FFFFFFFF000000001C
:1025B000000000000000000000000000000000001B
:1025C000000000000000000000000000000000000B
:1025D00000000000180800001800000000000000C3
:1025E00000000000000000000000000000000000EB
:1025F00000000000000000000000000000000000DB
:102600000000000000000000040000003500000091
:1026100036000000FFFFFFFF000000000000000088
:1026200000000000000000000000000000000000AA
:10263000000000000000000000000000000000009A
:102640001808000018000000000000000000000052
:10265000000000000000000000000000000000007A
:10266000000000000000000000000000000000006A
:1026700000000000080000082A0000002B000000F5
:102680002C000000FFFFFFFF000000000000000022
:10269000000000000000000000000000000000003A
:1026A000000000000000000000000000180800000A
:1026B00018080000180800000000000000000000DA
:1026C000000000000000000000000000000000000A
:1026D00000000000000000000000000000000000FA
:1026E00000112008F918000005190000E118000089
:1026F000ED1800002919000035190000111900001B
:102700001D190000F91D0000891E0000951E000023
:10271000711E0000FFFFFFFFFFFFFFFFFFFFFFFF36
:10272000FFFFFFFFFFFFFFFFFFFFFFFFFFFFFFFFB9
:10273000FFFFFFFFFFFFFFFFFFFFFFFFFFFFFFFFA9
:10274000FFFFFFFF00000000010203040102030479
:10275000060708090000000000000000000000005B
:102760000300000007030000E5150000311300001E
:102770000204060800B5DFF824B0DFF824A0DFF873
:1027800024C0FFF7DBFCDFF820B0DFF820A0DFF883
:1027900020C0FFF7D3FC00BD704700BF0000002041
:1027A0006E000020C4240000700000207C00002087
:1027B00054270000FFFFFFFFFFFFFFFFFFFFFFFFAA
:1027C000FFFFFFFFFFFFFFFFFFFFFFFFFFFFFFFF19
:1027D000FFFFFFFFFFFFFFFFFFFFFFFFFFFFFFFF09
:1027E000FFFFFFFFFFFFFFFFFFFFFFFFFFFFFFFFF9
:1027F000FFFFFFFFFFFFFFFFFFFFFFFFFFFFFFFFE9
:10280000FFFFFFFFFFFFFFFFFFFFFFFFFFFFFFFFD8
:1028100000B5DFF810B0DFF810A0FFF7CFFC00BD67
:10282000704700BF00000020D0000020FFFFFFFF26
:00000001FF
