:10000000FCFF0320B52700006D2700006D270000CE
:100010006D2700006D2700006D2700006D27000090
:100020006D2700006D2700006D2700006D27000080
:100030006D2700006D2700006D2700006D27000070
:100040006D2700006D2700006D2700006D27000060
:100050006D2700006D2700006D2700006D27000050
:100060006D2700006D2700006D2700006D27000040
:100070006D2700006D2700006D2700006D27000030
:100080006D2700006D2700006D2700006D27000020
:100090006D2700006D2700006D2700006D27000010
:1000A0006D2700006D2700006D2700006D27000000
:1000B0006D2700006D2700006D2700006D270000F0
:1000C0006D2700006D2700006D2700006D270000E0
:1000D0006D2700006D2700006D2700006D270000D0
:1000E0006D2700006D2700006D2700006D270000C0
:1000F0006D2700006D2700006D2700006D270000B0
:100100006D2700006D2700006D2700006D2700009F
:100110006D2700006D2700006D2700006D2700008F
:100120006D2700006D2700006D2700006D2700007F
:100130006D2700006D2700006D2700006D2700006F
:100140006D2700006D2700006D2700006D2700005F
:100150006D2700006D2700006D2700006D2700004F
:100160006D2700006D2700006D2700006D2700003F
:100170006D2700006D2700006D2700006D2700002F
:100180006D2700006D2700006D2700006D2700001F
:100190006D2700006D2700006D2700006D2700000F
:1001A0006D2700006D2700006D2700006D270000FF
:1001B0006D2700006D2700006D2700006D270000EF
:1001C0006D2700006D2700006D2700006D270000DF
:1001D0006D2700006D2700006D2700006D270000CF
:1001E0006D2700006D2700006D2700006D270000BF
:1001F0006D2700006D2700006D2700006D270000AF
:080200006D2700006D270000CE
:1027B40000F010F8FFF7DCFF00F036FBFFF7EEFF48
:1027C40000F0E4FAFFF72AFFFFF7BCFFFFF75AFF18
:0427D400FCE7FEE739
:1025B00081B01CF8019B0BF8019BBBEB0A0FF8D113
:0425C00001B07047AF
:1025E00081B04FF000094FF0000CBDEB0A0F04DC86
:1025F000BDEB0B0F01DBD446EA464BF8049BBBEB6B
:102600000A0FFAD1BCEB0A0F05DDE246D9F800B09B
:0A2610000BF1040BF1E701B0704775
:1026200081B0CDF800E0012207210020FFF710FF64
:10263000002202210020FFF70BFF002201210020D1
:10264000FFF706FF0E4801460020FFF775FF42F234
:1026500080512020FFF788FF0A480221FFF71AFF68
:1026600040F6FE07C0F23D077F1EFDD100BF00BF50
:1026700000BF00BF00BFDDF800E001B0704700BF41
:08268000702D00000000002095
:1024500081B0CDF800E05FFA81FA5FFA82FB0FE00D
:102460005FFA8BF15FFA8AF0FFF70AFD0DE05FFA81
:102470008BF15FFA8AF0FFF7CBFD06E0012004E064
:102480000028EDD00128F2D0F8E7DDF800E001B037
:02249000704793
:101E800081B0CDF800E091E0012904D110215A4839
:101E9000FFF70EFC03E010215748FFF7F3FBA5E026
:101EA000012904D101215448FFF702FC03E001217C
:101EB0005148FFF7E7FB99E0012904D101214F4880
:101EC000FFF7F6FB03E001214C48FFF7DBFB8DE059
:101ED000012904D104214A48FFF7EAFB03E0042169
:101EE0004748FFF7CFFB81E0012904D11021444886
:101EF000FFF7DEFB03E010214148FFF7C3FB75E06D
:101F0000012904D120213E48FFF7D2FB03E0202124
:101F10003B48FFF7B7FB69E0012904D101213948AB
:101F2000FFF7C6FB03E001213648FFF7ABFB5DE09E
:101F3000012904D110213448FFF7BAFB03E0102136
:101F40003148FFF79FFB51E0012904D140212F4880
:101F5000FFF7AEFB03E040212C48FFF793FB45E081
:101F6000012904D180212948FFF7A2FB03E0802149
:101F70002648FFF787FB39E0012904D104211F48D7
:101F8000FFF796FB03E004211C48FFF77BFB2DE0E5
:101F9000012904D108211948FFF78AFB03E0082131
:101FA0001648FFF76FFB21E0012020E000283FF4F6
:101FB0006BAF01283FF474AF02283FF47DAF0328D4
:101FC0003FF486AF04283FF48FAF05283FF498AF65
:101FD00006283FF4A1AF0728AAD00828B4D00928C2
:101FE000BED00A28C8D00B28D2D0DDE70020DDF80B
:101FF00000E001B0704700BF00C005400090054000
:102000000080054000B0054000D0054000A005401C
:1016B00081B0CDF800E0002440F240031BB240F2BC
:1016C000001212B21A4393B2002210B4FFF7A2FA2A
:0A16D00001B0DDF800E001B0704742
:100C140082B0CDF800E05FFA81F8D5B29FB29DF8BA
:100C24000830F54C00EA0404A1462046FFF7F6FA22
:100C3400F24CA54208D109F580666FEA0805EDB2C9
:100C440034682C40346008E0ED4CA54205D109F528
:100C540080652C6844EA08042C6040F2010407EA29
:100C64000404A4B234B109F5A2652C6844EA08046A
:100C74002C6007E009F5A2666FEA0805EDB2346856
:100C84002C40346040F2020407EA0404A4B234B1F4
:100C940009F214552C6844EA08042C6007E009F2B0
:100CA40014566FEA0805EDB234682C40346040F203
:100CB400080407EA0404A4B234B109F20C552C6800
:100CC40044EA08042C6007E009F20C566FEA0805B0
:100CD400EDB234682C40346040F2100407EA040496
:100CE400A4B234B109F5A0652C6844EA08042C6068
:100CF40007E009F5A0666FEA0805EDB234682C40F8
:100D0400346040F2200407EA0404A4B234B109F2C6
:100D140004552C6844EA08042C6007E009F20456E0
:100D24006FEA0805EDB234682C40346040F24004A8
:100D340007EA0404A4B234B109F5A1652C6844EAB5
:100D440008042C6007E009F5A1666FEA0805EDB216
:100D540034682C40346041F2000407EA0404A4B26D
:100D6400012C13D042F2000407EA0404A4B2012CBB
:100D74000CD044F2000407EA0404A4B2012C05D008
:100D8400DEB24B46B8B25FFA88F53CE0002000269C
:100D9400DAB2BBB207465FFA88F04946082E13D28E
:100DA40020FA06F4E4B204F00104E4B24CB1750094
:100DB4002DB2032424B2AC4024B247EA04052F46E2
:100DC400FFE7761CF6B2E9E701F6C476FD43346822
:100DD4002C40346001F23C56C543EDB234682C40DB
:100DE400346001F5A166C543EDB234682C4034602B
:100DF40001F20456C543EDB234682C403460C5B2E8
:100E040098B20B46D6B2002141F2000400EA040471
:100E1400A4B23CB300220F46E9B2082A13D221FA45
:100E240002F4E4B204F00104E4B24CB155002DB272
:100E3400012424B2AC4024B247EA04052F46FFE75C
:100E4400521CD2B2E9E703F6C4752C683C432C600B
:100E540003F5A1652C680C432C603D461F4683B204
:100E6400C8B203E01F4683B2E8B20D4642F2000462
:100E740003EA0404A4B26CB30022A8463946082A43
:100E840013D220FA02F4E4B204F00104E4B24CB147
:100E940055002DB2032424B2AC4024B248EA040520
:100EA400A846FFE7521CD2B2E9E701F6C4752C68E4
:100EB40044EA08042C6001F23C552C6804432C607D
:100EC40001F5A1652C6804432C60F7B20E46C2B24A
:100ED40098B205E00197C2B298B2F7B2A846019E53
:100EE40044F2000400EA0404A4B284B30023D1B29F
:100EF400082B14D221FA03F4E4B204F00104E4B29E
:100F040054B15D002DB2032424B2AC4024B248EAAB
:100F1400040422469046FFE75B1CDBB2E8E706F6D2
:100F2400C4752C6844EA08042C6006F23C552C680D
:100F34000C432C6006F5A1652C680C432C6006F26A
:100F440004552C680C432C60FBB2324602E0D1B24B
:100F54003246FBB240F2800400EA0404A4B274B145
:100F640040F2400400EA0404A4B22CB102F5A365E3
:100F74002C680C432C6001E00120FAE006E002F545
:100F8400A366CD43EDB234682C40346040F20014C3
:100F940000EA0404A4B22CB102F21C552C680C43E0
:100FA4002C6006E002F21C56CD43EDB234682C40AE
:100FB400346040F2002400EA0404A4B2002C3AD0C5
:100FC400104CA24240F2000500D001250E4CA24272
:100FD40040F2000400D0012425400C4CA24240F20F
:100FE400000400D001242540094CA24240F2000430
:100FF40000D0012425400DE000F0FFFF00000000B8
:101004000100000000C0054000B00540009005400C
:1010140000100640594CA24240F2000400D00124C2
:1010240005EA04040CB10120A3E002F5A5652C68CF
:101034000C432C602AE0524CA24240F2000500D13D
:101044000125504CA24240F2000400D10124254362
:101054004D4CA24240F2000400D1012425434B4CE4
:10106400A24240F2000400D101242543434CA24291
:1010740040F2000400D1012445EA040434B102F52D
:10108400A566CD43EDB234682C40346040F60004CC
:1010940000EA0404A4B22CB102F5A6652C680C4342
:1010A4002C6006E002F5A666CD43EDB234682C4010
:1010B400346040F2004400EA0404A4B22CB102F506
:1010C40084652C680C432C6006E002F58466CD43ED
:1010D400EDB234682C4034600BB9002049E00F2B8A
:1010E40001D9012045E0002700208DF80430C3B267
:1010F40010469DF80420082B12D221FA03F4E4B21E
:1011040004F00104E4B244B19D002DB24FF00F0489
:10111400AC4047EA04052F46FFE75B1CDBB2EAE775
:1011240000F22C56FD4334682C4034600026002322
:101134008DF80430CBB29DF80410082913D223FA99
:1011440001F4E4B204F00104E4B24CB1D5B28C0071
:1011540024B205FA04F446EA040425462E46FFE7C1
:10116400491CC9B2E9E700F22C552C6834432C60C1
:101174000020DDF800E002B0704700BF00500640D8
:1011840000C0054000B00540009005400010064036
:1002200081B0664900EA010108467DE06449096839
:1002300041F0010262490A60BEE06149096841F08B
:1002400002025F490A60B7E05D49096841F00402B3
:100250005B490A60B0E05A49096841F00802584910
:100260000A60A9E05649096841F0100254490A6041
:10027000A2E05349096841F0200251490A609BE01D
:100280004F49096841F040024D490A6094E04C49E9
:10029000096841F080024A490A608DE048490968CE
:1002A00041F4807246490A6086E04549096841F494
:1002B000007243490A607FE04149096841F4806265
:1002C0003F490A6078E03E49096841F400623C49D0
:1002D0000A6071E03A49096841F4805238490A607D
:1002E0006AE03749096841F4005235490A6063E021
:1002F0003349096841F4804231490A605CE0304981
:10030000096841F400422E490A6055E02C49096809
:1003100041F480322A490A604EE02949096841F4D3
:10032000003227490A6047E0264988423FF47EAF01
:10033000254988423FF481AF244988423FF484AF85
:10034000234988423FF487AF224988423FF48AAF6D
:10035000214988423FF48DAF204988423FF490AF55
:100360001F4988423FF493AF1E4988423FF496AF3D
:100370001D4988423FF499AF1C4988423FF49CAF25
:100380001B4988423FF49FAF1A4988423FF4A2AF0D
:10039000194988423FF4A5AF184988423FF4A8AFF5
:1003A000174988423FF4ABAF164988423FF4AEAFDD
:1003B000154988423FF4B1AF01B0704700F0FFFF2C
:1003C00008E60F40008005400090054000A0054071
:1003D00000B0054000C0054000D0054000E00540E9
:1003E00000F00540000006400010064000200640D6
:1003F00000300640004006400050064000600640C5
:0C0400000070064000800640009006409E
:1016840081B0CDF800E0002440F240031BB240F2E8
:10169400001212B21A4393B2012210B4FFF7B8FA3F
:0A16A40001B0DDF800E001B070476E
:1020100081B0CDF800E091E0012904D120215A4897
:10202000FFF746FB03E020215748FFF72BFBA5E015
:10203000012904D102215448FFF73AFB03E00221B1
:102040005148FFF71FFB99E0012904D120214F4897
:10205000FFF72EFB03E020214C48FFF713FB8DE038
:10206000012904D104214A48FFF722FB03E004219F
:102070004748FFF707FB81E0012904D110214448BC
:10208000FFF716FB03E010214148FFF7FBFA75E06C
:10209000012904D120213E48FFF70AFB03E020215B
:1020A0003B48FFF7EFFA69E0012904D102213948E2
:1020B000FFF7FEFA03E002213648FFF7E3FA5DE09E
:1020C000012904D140213348FFF7F2FA03E040210F
:1020D0003048FFF7D7FA51E0012904D110212E48EA
:1020E000FFF7E6FA03E010212B48FFF7CBFA45E0B3
:1020F000012904D120212848FFF7DAFA03E0202142
:102100002548FFF7BFFA39E0012904D104211F480F
:10211000FFF7CEFA03E004211C48FFF7B3FA2DE0E5
:10212000012904D108211948FFF7C2FA03E0082168
:102130001648FFF7A7FA21E0012020E000283FF42D
:102140006BAF01283FF474AF02283FF47DAF032842
:102150003FF486AF04283FF48FAF05283FF498AFD3
:1021600006283FF4A1AF0728AAD00828B4D0092830
:10217000BED00A28C8D00B28D2D0DDE70020DDF879
:1021800000E001B0704700BF00C00540009005406E
:0C2190000080054000B0054000A00540A4
:1025380081B0CDF800E009E00846FFF771FC0AE039
:102548000846FFF783FC06E0012004E00028F3D0EA
:0E2558000128F5D0F8E7DDF800E001B070478B
:101E280081B0CDF800E000F208010B68011D0A68D6
:101E38000168084691B29AB2034BFFF757FA00209F
:0C1E4800DDF800E001B070479C2B0000AA
:1012F4008AB0CDF800E008901846ADF824200DF12E
:10130400140B0BF10B0ADFF82CC101F04FF9ADF807
:101314000410FFF743FFBDF8041001256DB2464CDD
:101324002560464C206800256DB2454C2560454C2F
:101334002160BDF82450444C2560444D444C256044
:10134400444D454C2560FFF723FF40F2E83400FB91
:1013540004F5089CB5FBF4F4029429B9029C022C10
:1013640001DA0224029404E0029C0C2C01DA0C241D
:101374000294022424B2ADF81040BDF91040B4F137
:10138400FF0F41DA002212B210B2B0F5807F30DADA
:10139400BDF91050441C24B26543029C641B0394A1
:1013A400002C04DA039D4FF0FF346C43039410B90E
:1013B400039C069404E0039D069CAC4200DA18E00A
:1013C400039D059CAC4202DC039C04B107E0039C32
:1013D4000594BDF910408DF81C408DF81D00059C46
:1013E4001CB901248DF81E4003E0441C22B210B243
:1013F400CBE79DF81E40012C00D105E0BDF910405B
:10140400A41CADF81040B8E79DF81C50134C25609F
:101414009DF81D4025022DB20B4C246844EA0505B5
:10142400094C256001256DB2054C2560DDF800E00E
:101434000AB070477C2D000080C3FC431CE60F40BB
:10144400840010420480004000800040E508000051
:10145400F000002055170000F40000201080004028
:1011A00081B0CDF800E040F2000B82460AF1D80190
:1011B00009788B4539D20C210BFB01F10AEB0101B7
:1011C0008C460CF108010978A9B90CF108010978DD
:1011D000CCB20CF1060109888BB20CF1040109783C
:1011E000CAB2DCF800100846D1B2002210B4FFF7F2
:1011F00011FD01B014E00CF108010978CCB20CF13A
:10120000060109888BB20CF104010978CAB2DCF836
:1012100000100846D1B20F2210B4FFF7FBFC01B05A
:101220000BF1010B5FFA8BFBC0E7DDF800E001B0CA
:02123000704705
:0C11940001480068704700BFC400002044
:101E540081B0CDF800E000F208010B68011D0A68AA
:101E64000168084691B29AB2034BFFF741FA002089
:0C1E7400DDF800E001B070479C2B00007E
:1025680081B0CDF800E011E00846FFF713FE16E051
:102578000846FFF743FE12E00846FFF751FE0EE05B
:102588000846FFF719FE0AE0012008E00028EBD012
:102598000128EDD02028EFD03028F1D0F4E7DDF87D
:0625A80000E001B07047E5
:10219C0081B0CDF800E0FFF7C7FB044A04490A60A0
:1021AC000020DDF800E001B0704700BFFD18000012
:0421BC00A00000205F
:1019340082B0CDF800E00346214A22490A60224AD7
:1019440022490A60224A23490A60234A23490A6039
:1019540001932348FFF722FC019B012252B2214943
:101964000A6000BF00BF00BFFFF7C8F8FFF710FC14
:1019740040F2E83100FB01F210461901914205D909
:10198400012252B218490A605A0804E0002252B2F5
:1019940015490A601A46C100B1FBF2F1491C4B0813
:1019A4009A0912490A6003F03F0211490A60602251
:1019B40010490A60FFF7F0F8DDF800E002B0704764
:1019C400FD180000F8000020FFFFFFFFFC000020CE
:1019D400FFFFFFFF00010020FFFFFFFF04010020C5
:1019E400C02A000014C3FC43140622422410014000
:0819F400281001402C100140F5
:100B000081B0002149B204480160044801600448F2
:100B1000016001B0704700BF000622422006224259
:040B20002406224243
:100B9C0081B0012149B20448016004480160044855
:100BAC00016001B0704700BF0006224220062242BD
:040BBC0024062242A7
:1022040081B0CDF800E0FFF719FC044A04490A60E4
:102214000020DDF800E001B0704700BF8517000022
:04222400A0000020F6
:101A400082B0CDF800E00346214A22490A60224ACA
:101A500022490A60224A23490A60234A23490A602C
:101A600001932348FFF79CFB019B012252B22149BD
:101A70000A6000BF00BF00BFFFF770F8FFF78AFBE6
:101A800040F2E83100FB01F210461901914205D9FC
:101A9000012252B218490A605A0804E0002252B2E8
:101AA00015490A601A46C100B1FBF2F1491C4B0806
:101AB0009A0912490A6003F03F0211490A60602244
:101AC00010490A60FFF704FCDDF800E002B070473F
:101AD00085170000F8000020FFFFFFFFFC0000203A
:101AE000FFFFFFFF00010020FFFFFFFF04010020B8
:101AF000E42900001CC3FC431406264224300140A4
:081B0000283001402C300140A7
:100B5C0081B0002149B20448016004480160044896
:100B6C00016001B0704700BF0006264220062642F5
:040B7C0024062642E3
:1012D00081B0012149B2044801600448016004481A
:1012E000016001B0704700BF00062642200626427A
:0412F0002406264268
:1022280081B0CDF800E0FFF7BBF9044A04490A6021
:102238000020DDF800E001B0704700BF1919000068
:04224800A0000020D2
:1015A80082B0CDF800E00346214A22490A60224A67
:1015B80022490A60224A23490A60234A23490A60C9
:1015C80001932348FFF7E8FD019B012252B221490C
:1015D8000A6000BF00BF00BFFFF756FEFFF7D6FD49
:1015E80040F2E83100FB01F210461901914205D999
:1015F800012252B218490A605A0804E0002252B285
:1016080015490A601A46C100B1FBF2F1491C4B08A2
:101618009A0912490A6003F03F0211490A606022E0
:1016280010490A60FFF710FEDDF800E002B07047CD
:1016380019190000F8000020FFFFFFFFFC00002040
:10164800FFFFFFFF00010020FFFFFFFF0401002054
:101658000829000008C3FC4314061C4224E000408B
:0816680028E000402CE00040E6
:1012900081B0002149B2044801600448016004485B
:1012A000016001B0704700BF00061C4220061C42CE
:0412B00024061C42B2
:1012500081B0012149B2044801600448016004489A
:10126000016001B0704700BF00061C4220061C420E
:0412700024061C42F2
:1021C00081B0CDF800E0FFF73BFC044A04490A6007
:1021D0000020DDF800E001B0704700BF8517000067
:0421E000A00000203B
:1024940083B0CDF800E0024610460D228DF80820E6
:1024A4000A228DF809201FE0FFF79AFE23E0027844
:1024B4002AB10190FFF794FE0198401CF7E71AE057
:1024C40002782AB10190FFF78BFE0198401CF7E7D0
:1024D40002AA1046FFF784FE0DF109021046FFF729
:1024E4007FFE08E0062007E00029DDD00129DED0C8
:1024F4000229E5D0F6E70020DDF800E003B07047DC
:1021E40081B0CDF800E00178CCB2A0B2034C2468F1
:1021F400A0470020DDF800E001B07047A0000020F7
:1017540081B0CDF800E0FFF7C3F8DDF800E001B098
:021764007047CC
:1008E40081B0054908600549096801B9FBE7024977
:1008F400086801B0704700BF0880004088011042BA
:1015940081B0CDF800E0FFF793F9DDF800E001B089
:0215A40070478E
:1008C40081B0054908600549096801B9FBE7024997
:1008D400086801B0704700BF0890004088011242C8
:1019FC0081B0CDF800E0FEF74FFFDDF800E001B05C
:021A0C00704721
:1008A40081B0054908600549096801B9FBE70249B7
:1008B400086801B0704700BF08A0004088011442D6
:101A100081B0CDF800E0FEF775FFDDF800E001B021
:021A200070470D
:1009040081B0054908600549096801B9FBE7024956
:10091400086801B0704700BF08B000408801164263
:101B080081B00449096801B1FBE70349086001B0E5
:0C1B1800704700BF1403184200C00040DA
:101A240081B00449096801B1FBE70349086001B0CA
:0C1A3400704700BF14031A4200D00040AD
:1019180081B00449096801B1FBE70349086001B0D7
:0C192800704700BF14031C4200E00040A8
:1018C40081B00449096801B1FBE70349086001B02C
:0C18D400704700BF14031E4200F00040EB
:1018E00081B00449096801B1FBE70349086001B010
:0C18F000704700BF1403204200000140BC
:1018FC0081B00449096801B1FBE70349086001B0F4
:0C190C00704700BF14032242001001408D
:1017680081B00449096801B1FBE70349086001B089
:0C177800704700BF140324420020014011
:1017840081B00449096801B1FBE70349086001B06D
:0C179400704700BF1403264200300140E3
:1027480081B0CDF800E005490548FFF7D7FEFFF74F
:10275800F5FDDDF800E001B0704700BF882D0000EE
:04276800E82C000059
:1025040081B0CDF800E004460123084A1370084660
:10251400FFF7BCFE2046FFF7A3FE0120044C24680D
:10252400A047DDF800E001B0704700BF6F00002055
:04253400A4000020DF
:0C1DD40001490860704700BF907FB842D2
:0C1DE00001490860704700BF807FB842D6
:0C1DBC0001490860704700BF807FB24200
:0C1DC80001490860704700BF887FB042EE
:0C1DEC0001490860704700BF907FB042C2
:0C1E100001490860704700BF947FB04299
:0C1E1C0001490860704700BF807FB6429B
:0C1DF80001490860704700BF907FBA42AC
:0C1E040001490860704700BF987FB4429D
:0C22FC0001490860704700BF9C7FB4429D
:0C23080001490860704700BF887FB242A6
:0C22E40001490860704700BF8C7FB242C7
:0C22F00001490860704700BF947FB842AD
:0C232C0001490860704700BF847FB84280
:0C23380001490860704700BF947FB2426A
:0C23140001490860704700BF887FB0429C
:0C23200001490860704700BF907FB04288
:0C22D80001490860704700BF947FB042CD
:0C224C0001490860704700BF847FB64263
:0C22C00001490860704700BF987FB642DB
:0C22CC0001490860704700BF907FB442D9
:0C22A80001490860704700BF947FB442F9
:0C22B40001490860704700BF887FB242FB
:0C22580001490860704700BF8C7FB24253
:10229000026803490A60011D0A6802490A60704722
:0822A000BC000020B400002086
:1022640000F230011C310A6805490A6000F20801D5
:102274000A6804490A60011D0A6803490A60704734
:0C228400C0000020A4000020A8000020E2
:1023440081B0CDF800E04F20FFF7EAFB402802D02F
:102354000848007809E080216020FFF757FC01213C
:102364006220FFF753FC04480078DDF800E001B078
:0C237400704700BF6D0000206E000020CC
:101B240082B0CDF800E001A90870204909780229A3
:101B340015D1FFF79BFD01AA1D4909780123C8B2FD
:101B440011460122FFF78CFC0DF1050218490978B2
:101B54000023C8B211460122FFF720FE1EE001AAAD
:101B640040F0800111700020124C2468A04701202D
:101B7400114C2468A04701A908460121FFF7ACFDD8
:101B840000200D4C2468A0470DF1050108460121F1
:101B9400FFF7C0FD0120074C2468A0470DF10501A3
:101BA4000978C8B2DDF800E002B070476F00002089
:0C1BB4009E000020A4000020A8000020DB
:1016700040F2000212B201210148017010B270471D
:041680006C000020DA
:1014640085B0CDF800E0ADF80C200A468DF81030B8
:1014740040F20004ADF808401146424C247854B1BF
:1014840001910021404C2468A0470199FFF766FAB6
:1014940000253C4C2570BDF80C40012C0DD10C7876
:1014A4000721E0B2394C2468A047BDF90840044341
:1014B400ADF80840FFF752FA57E0BDF80C40022C93
:1014C4001CD10C7801910321E0B2304C2468A04770
:1014D4000199BDF908400443ADF808404C1C20466E
:1014E400FFF73CFA04780521E0B2284C2468A047B1
:1014F400BDF908400443ADF8084036E00C7801918A
:101504000321E0B2214C2468A0470199BDF90840A9
:101514000443ADF808404B1CFFF720FA1946BDF808
:101524000C40641EA4B2ADF80C40012C12D90C7806
:1015340001910121E0B2154C2468A0470199BDF93D
:1015440008400443ADF808404C1C2346FFF706FA54
:101554001946E4E70C780521E0B20C4C2468A04756
:10156400BDF908400443ADF808409DF81040012C33
:1015740002D10125034C2570BDF90800DDF800E017
:1015840005B070476C000020AC000020B8000020BB
:1009E80081B0CDF800E0CAB2C1B20348FFF708FFF2
:0C09F800DDF800E001B070470000024094
:1008080081B04B009BB213439BB2036001B07047A9
:100A040081B0CDF800E0CAB2C1B20348FFF7FAFEE4
:0C0A1400DDF800E001B070470010024067
:100A200081B0CDF800E0CAB2C1B20348FFF7ECFED6
:0C0A3000DDF800E001B07047002002403B
:1009940081B0CDF800E0CAB2C1B20348FFF732FF1C
:0C09A400DDF800E001B0704700300240B8
:1009B00081B0CDF800E0CAB2C1B20348FFF724FF0E
:0C09C000DDF800E001B0704700000C40C2
:1009CC0081B0CDF800E0CAB2C1B20348FFF716FF00
:0C09DC00DDF800E001B0704700100C4096
:100A3C0081B0CDF800E0CAB2C1B20348FFF7DEFEC8
:0C0A4C00DDF800E001B0704700200C4015
:100AAC0081B0CDF800E0CAB2C1B20348FFF7A6FE90
:0C0ABC00DDF800E001B0704700300C4095
:100AC80081B0CDF800E0CAB2C1B20348FFF798FE82
:0C0AD800DDF800E001B0704700800B402A
:100AE40081B0CDF800E0CAB2C1B20348FFF78AFE74
:0C0AF400DDF800E001B0704700900B40FE
:100A580081B0CDF800E0CAB2C1B20348FFF7D2FCBA
:0C0A6800DDF800E001B070470000024023
:10040C0082B0CDF800E04FF000045D4B984205D16E
:10041C005C4B1D685C4B1B6801935BE05B4B98422B
:10042C0006D15B4B1C685B4B1B680193254651E066
:10043C00594B984206D1594B1C68594B1B68019378
:10044C00234646E0574B984206D1574B1C68574BF6
:10045C001B68019323463CE0554B984206D1554B03
:10046C001C68554B1B680193234632E0534B984252
:10047C0006D1534B1C68534B1B680193234628E051
:10048C00514B984206D1514B1C68514B1B68019340
:10049C0023461EE04F4B984206D14F4B1C684F4BE6
:1004AC001B680193234614E04D4B984206D14D4BEB
:1004BC001C684D4B1B68019323460AE04B4B98423A
:1004CC0006D14B4B1C684B4B1B680193234600E039
:1004DC0023461D4600F208031960072A05D0032A9B
:1004EC0003D004462846D1B215E02E46D1B20246BE
:1004FC002846131D1C68C4F380135BB148B126B9A0
:10050C000420019CA047012036E0731E1C462646A1
:10051C00FFE7EEE71446231D1960FFF76FFEFFF7A8
:10052C006DFEFFF76BFE024625462B1D1C68C4F3BF
:10053C0000034BB138B122B90420019CA047012023
:10054C001AE0521EFFE7F0E72B1D1C68C4F34003B2
:10055C006BB1012902D0032900D008E02B1D1C68C7
:10056C00C4F300131BB92C1D40F2040323602B1D94
:10057C001C68C4F34003D8B2DDF800E002B0704749
:10058C000000024070000020C80000200010024053
:10059C0074000020CC0000200020024078000020D5
:1005AC00D0000020003002407C000020D40000204D
:1005BC0000000C4080000020D800002000100C40EF
:1005CC0084000020DC00002000200C40880000206B
:1005DC00E000002000300C408C000020E4000020E3
:1005EC0000800B4090000020E800002000900B40A1
:0805FC0094000020EC00002037
:1002080040F22607C0F200077F1EFDD100BF00BFE5
:0802180000BF00BF00BF7047EA
:100A740081B0CDF800E0CAB2C1B20348FFF7C4FCAC
:0C0A8400DDF800E001B0704700100240F7
:100A900081B0CDF800E0CAB2C1B20348FFF7B6FC9E
:0C0AA000DDF800E001B0704700200240CB
:1009780081B0CDF800E0CAB2C1B20348FFF742FD2A
:0C098800DDF800E001B0704700300240D4
:1008880081B0CDF800E0CAB2C1B20348FFF7BAFDA3
:0C089800DDF800E001B0704700000C40EB
:10086C0081B0CDF800E0CAB2C1B20348FFF7C8FDB1
:0C087C00DDF800E001B0704700100C40F7
:1008500081B0CDF800E0CAB2C1B20348FFF7D6FDBF
:0C086000DDF800E001B0704700200C4003
:1008180081B0CDF800E0CAB2C1B20348FFF7F2FDDB
:0C082800DDF800E001B0704700300C402B
:1008340081B0CDF800E0CAB2C1B20348FFF7E4FDCD
:0C084400DDF800E001B0704700800B40C0
:1009240081B0CDF800E0CAB2C1B20348FFF76CFD54
:0C093400DDF800E001B0704700900B40BF
:1009600049F63E47C0F200077F1EFDD100BF00BF21
:0809700000BF00BF00BF70478B
:1017A00085B0CDF800E0ADF80C200A468DF8103079
:1017B00040F20004ADF8084011463F4C247854B183
:1017C000019101213D4C2468A0470199FFF7C8F819
:1017D0000025394C2570BDF80C40012C0CD1084671
:1017E0000721374C2468A047BDF908400443ADF8F1
:1017F0000840FFF7B5F851E0BDF80C40022C19D1B4
:10180000019108460B212E4C2468A0470199BDF98F
:1018100008400443ADF808404C1C2046FFF7A0F8F0
:101820000521274C2468A047BDF908400443ADF8C2
:10183000084033E0019108460B21214C2468A04761
:101840000199BDF908400443ADF808404B1CFFF76F
:1018500087F81946BDF80C40641EA4B2ADF80C40E0
:10186000012C11D9019108460921154C2468A04783
:101870000199BDF908400443ADF808404C1C2346CB
:10188000FFF76EF81946E5E7084605210C4C246879
:10189000A047BDF908400443ADF808409DF810404A
:1018A000012C02D10125044C2570BDF90800DDF89A
:1018B00000E005B0704700BF6C000020AC000020C5
:0418C000B000002054
:1009400081B0CDF800E0CAB201460348FFF75AFE75
:0C095000DDF800E001B07047000002403C
:1006040084B0CDF800E0044603914FF00003029358
:100614005E4B9C4206D15E4B1B6802935D4B1B688C
:10062400019358E05C4B9C4206D15C4B1B680293DF
:100634005B4B1B6801934EE05A4B9C4206D15A4BCC
:100644001B680293594B1B68019344E0584B9C422E
:1006540006D1584B1B680293574B1B6801933AE031
:10066400564B9C4206D1564B1B680293554B1B6854
:10067400019330E0544B9C4206D1544B1B680293C7
:10068400534B1B68019326E0524B9C4206D1524BBC
:100694001B680293514B1B6801931CE0504B9C4216
:1006A40006D1504B1B6802934F4B1B68019312E019
:1006B4004E4B9C4206D14E4B1B6802934D4B1B681C
:1006C400019308E04C4B9C4205D14C4B1B680293B0
:1006D4004B4B1B680193072A03D00B2A01D02046F9
:1006E40017E0029E2046D1B2031D1C68C4F3801398
:1006F40073B1029B4BB126B90320019CA047012092
:1007040040E0731E1A46134600E033461E46EBE7EC
:10071400CAB2031D1A60FFF775FDFFF773FDFFF7FB
:1007240071FD029E031D1C68C4F3000363B1029BA8
:100734003BB126B90320019CA047012022E0711E91
:1007440000E031460E46EDE7031D1C68C4F3400388
:1007540073B1092A02D00B2A00D008E0031D1C68DB
:10076400C4F300131BB9041D40F20403236004E026
:1007740000F208031C68039B1C70031D1C68C4F36F
:100784004003D8B2DDF800E004B070470000024036
:1007940070000020C80000200010024074000020F7
:1007A400CC0000200020024078000020D00000206F
:1007B400003002407C000020D400002000000C40E7
:1007C40080000020D800002000100C40840000208D
:1007D400DC00002000200C4088000020E000002005
:1007E40000300C408C000020E400002000800B400E
:1007F40090000020E800002000900B4094000020AE
:04080400EC000020E4
:1012740081B0CDF800E0CAB201460348FFF7C0F9D7
:0C128400DDF800E001B0704700100240EF
:1012B40081B0CDF800E0CAB201460348FFF7A0F9B7
:0C12C400DDF800E001B07047002002409F
:100B800081B0CDF800E0CAB201460348FFF73AFD54
:0C0B9000DDF800E001B0704700300240CA
:100B240081B0CDF800E0CAB201460348FFF768FD82
:0C0B3400DDF800E001B0704700000C404C
:100B400081B0CDF800E0CAB201460348FFF75AFD74
:0C0B5000DDF800E001B0704700100C4020
:100BC00081B0CDF800E0CAB201460348FFF71AFD34
:0C0BD000DDF800E001B0704700200C4090
:1012340081B0CDF800E0CAB201460348FFF7E0F9F7
:0C124400DDF800E001B0704700300C4005
:100BDC0081B0CDF800E0CAB201460348FFF70CFD26
:0C0BEC00DDF800E001B0704700800B4015
:100BF80081B0CDF800E0CAB201460348FFF7FEFC19
:0C0C0800DDF800E001B0704700900B40E8
:1016DC0083B0CDF800E08AB2014690B283B2421ECC
:1016EC0090B26BB10A78D4B2ADF804000291A0B2FA
:1016FC00054C2468A0470299BDF80400491CEDE78D
:0C170C00DDF800E003B07047BC000020D6
:1017180083B0CDF800E0ADF808100190BDF80830AE
:10172800BDF80820521EADF808204BB10020064C29
:101738002468A047019A1070019A521C0192EDE7A3
:0C174800DDF800E003B07047B4000020A2
:101C100082B0CDF800E001AA1070521C1170124A77
:101C20001278022A0BD1FFF723FD01AB0F4A12787D
:101C300019460023D0B20222FFF714FC10E0012065
:101C40000B4C2468A04700200A4C2468A04701AA36
:101C500002211046FFF742FD0120064C2468A047F0
:101C6000DDF800E002B070476F0000209E00002009
:081C7000A8000020A4000020E0
:1026880081B0CDF800E06820FFF7AEFE244908804D
:1026980024480121FFF7FAFE2148B0F90000224939
:1026A800FFF76AFE02212048FFF7F0FE6A20FFF7D5
:1026B8009BFE1E4908801E480121FFF7E7FE1B48C4
:1026C800B0F900001849FFF757FE02211648FFF736
:1026D800DDFE6C20FFF788FE1649088016480121A8
:1026E800FFF7D4FE1348B0F900000F49FFF744FE86
:1026F80002210D48FFF7CAFE10480221FFF7C6FE67
:1027080045F6FE17C0F262277F1EFDD100BF00BF4D
:1027180000BF00BF00BFDDF800E001B0704700BF98
:102728009800002016000020210000209A000020B8
:10273800530000209C0000205E000020690000205B
:1023F00083B0CDF800E08DF808009DF8081068293A
:1024000005D10120FFF738FC8DF8040012E09DF89B
:1024100008106A2905D10220FFF72EFC8DF8040070
:1024200008E09DF808106C2904D10420FFF724FC73
:102430008DF804009DF8041021B99DF80800FFF7FD
:102440003DFC01E0012000B2DDF800E003B0704780
:101C780082B0CDF800E08DF8040000218DF8051041
:101C88009DF805100A2910D26720FFF747FF9DF835
:101C9800041000EA0101C9B209B1002006E09DF86C
:101CA8000510491C8DF80510EAE70120DDF800E071
:041CB80002B07047BF
:101CBC0083B0CDF800E08DF8080001AA9DF808105B
:101CCC00117037490978022915D1FFF7CBFC01AA0D
:101CDC00344909780123C8B211460122FFF7BCFB35
:101CEC000DF105022F4909780023C8B211460222D2
:101CFC00FFF750FD44E001AA9DF8081041F0800167
:101D0C0011700020284C2468A0470120274C24681F
:101D1C00A04701A908460121FFF7DAFC0020234C5B
:101D2C002468A0470DF1050108460121FFF7EEFCE0
:101D3C0001201D4C2468A04701AA9DF80810491CDD
:101D4C0009B241F0800111700020174C2468A047A3
:101D5C000120164C2468A04701A908460121FFF771
:101D6C00B7FC0020114C2468A0470DF10501491C5B
:101D7C0008460121FFF7CAFC01200B4C2468A04740
:101D8C000DF10503591C0978C8B2020212B2197878
:101D9C0042EA010108B2DDF800E003B0704700BF71
:101DAC006F0000209E000020A4000020A80000204E
:1023800081B0CDF800E00E46002183B2002805DAC6
:102390000121404280B280B28FB201E098B28FB288
:1023A0003146FFF70DFC06213446B8B2002908D9A2
:1023B00063184A1E92B2A21812781A70491E89B286
:1023C000F4E72022227070B1002081B2204642182A
:1023D0001278202A02D1491C89B2F8E74A1E92B22B
:0E23E00083182D221A70DDF800E001B070475E
:101BC00081B00A4681B200208DB21146052805D2A7
:101BD0000B1820221A70401CC0B2F7E70B18002225
:101BE0001A70401EC0B20C180A23B5FBF3F203FBB7
:101BF000125292B2303222700A22B5FBF2F292B245
:101C000095B202B902E0401EC0B2ECE701B07047E5
:1027D80081B0CDF800E0344A344B354C354D364E97
:1027E8004FF03011354801600021354801606FF025
:1027F800010003EA000133480160C3F3C00018B9BF
:10280800FFF7DEFEFFF7DCFEC3F3000018B101217D
:1028180049B22D4801602D48864203D92C492748E2
:10282800016021E02B48864203D92B4923480160E7
:102838001AE04CF25030864203D928491F480160FB
:1028480012E047F23050864203D925491B480160FF
:102858000AE0B6F57A5F03D922491848016003E017
:102868004FF03011154801601F4804601F4805608B
:102878006FF0805002EA000111480160012149B25D
:102888001B4801601B48016002F0805038B11A48AB
:10289800006800B9FBE7012149B218480160DDF87A
:1028A80000E001B0704700BF0400303311000000A1
:1028B8001800800000000000C0D40100C0E00F40F4
:1028C800B0E00F407CE00F40800FFC43A086010081
:1028D800960130008038010055013000D3003000E7
:1028E800B20030007100300060E10F4064E10F4039
:1028F8007C16FC437816FC43002DFC437016FC4301
:1025C80041F67E27C0F206077F1EFDD100BF00BF7F
:0825D80000BF00BF00BF704707
:1027A00081B002490248016001B07047C0D4010005
:0427B000C400002041
:08276C0081B0FEE701B07047E7
:1027740081B04EF68850CEF20000016841F4700139
:10278400016000BF00BF00BF00BFF1EE100A40F4BB
:0A2794004000E1EE100A01B07047AA
:102D900000B5DFF824B0DFF824A0DFF824C0FFF787
:102DA00007FCDFF820B0DFF820A0DFF820C0FFF735
:102DB000FFFB00BD704700BF000000206F00002037
:102DC000782C00007000002098000020482D0000A2
:102E2C0000B5DFF810B0DFF810A0FFF7D3FB00BD42
:0C2E3C00704700BF0000002008010020CB
:1029080000B00540100040050100000000B005407F
:102918002000400501000000000000000000000049
:10292800000000000000000000000000000000009F
:10293800000000000000000000000000000000008F
:10294800000000000000000000000000000000007F
:10295800000000000000000000000000000000006F
:10296800000000000000000000000000000000005F
:10297800000000000000000000000000000000004F
:10298800000000000000000000000000000000003F
:10299800000000000000000000000000000000002F
:1029A800000000000000000000000000000000001F
:1029B800000000000000000000000000000000000F
:1029C80000000000000000000000000000000000FF
:0C29D800000000000000000002000000F1
:1029E40000A00540100040050100000000A00540C3
:1029F400200040050100000000000000000000006D
:102A040000000000000000000000000000000000C2
:102A140000000000000000000000000000000000B2
:102A240000000000000000000000000000000000A2
:102A34000000000000000000000000000000000092
:102A44000000000000000000000000000000000082
:102A54000000000000000000000000000000000072
:102A64000000000000000000000000000000000062
:102A74000000000000000000000000000000000052
:102A84000000000000000000000000000000000042
:102A94000000000000000000000000000000000032
:102AA4000000000000000000000000000000000022
:0C2AB40000000000000000000200000014
:102AC00000F00540400040050100000000F0054016
:102AD0008000400501000000000000000000000030
:102AE00000000000000000000000000000000000E6
:102AF00000000000000000000000000000000000D6
:102B000000000000000000000000000000000000C5
:102B100000000000000000000000000000000000B5
:102B200000000000000000000000000000000000A5
:102B30000000000000000000000000000000000095
:102B40000000000000000000000000000000000085
:102B50000000000000000000000000000000000075
:102B60000000000000000000000000000000000065
:102B70000000000000000000000000000000000055
:102B80000000000000000000000000000000000045
:0C2B900000000000000000000200000037
:102B9C0000800540040040050F0000000080054047
:102BAC00100040050F00000000800540200040058B
:102BBC000F000000000000000000000000000000FA
:102BCC0000000000000000000000000000000000F9
:102BDC0000000000000000000000000000000000E9
:102BEC0000000000000000000000000000000000D9
:102BFC0000000000000000000000000000000000C9
:102C0C0000000000000000000000000000000000B8
:102C1C0000000000000000000000000000000000A8
:102C2C000000000000000000000000000000000098
:102C3C000000000000000000000000000000000088
:102C4C000000000000000000000000000000000078
:102C5C000000000000000000000000000000000068
:0C2C6C0000000000000000000300000059
:102C7800202D2D2D2053797374656D20696E69742C
:062C8800202D2D2D20007F
:102C8E0020582061786973203A200000000000006F
:102C9E000000000000000000000000000000000026
:102CAE000000000000000000000000000000000016
:102CBE00000000000000000000000000002059206D
:082CCE0061786973203A2000CF
:0E2CD600205A2061786973203A2000202000E7
:022CE4000002EC
:012CE60000ED
:102CE800D51D0000E11D0000BD1D0000C91D00002C
:102CF800ED1D0000111E00001D1E0000F91D000042
:102D0800051E0000FD22000009230000E522000046
:102D1800FFFFFFFFFFFFFFFFFFFFFFFFFFFFFFFFBB
:102D2800FFFFFFFFFFFFFFFFFFFFFFFFFFFFFFFFAB
:102D3800FFFFFFFFFFFFFFFFFFFFFFFFFFFFFFFF9B
:042D48000000000087
:042D4C000000000083
:042D5000000000007F
:042D5400000000007B
:042D58000000000077
:042D5C000000000073
:042D6000000000006F
:042D6400000000006B
:042D68000000000067
:042D6C000000000063
:0C2D700040420F0000000000C7000000FF
:042D7C00FFFFFF7FD7
:042D8000000000004F
:022D840002004B
:012D8600004C
:082D880055170000E5080000EA
:00000001FF
