:10000000FCFF0320552A00000D2A00000D2A0000E5
:100010000D2A00000D2A00000D2A00000D2A000004
:100020000D2A00000D2A00000D2A00000D2A0000F4
:100030000D2A00000D2A00000D2A00000D2A0000E4
:100040000D2A00000D2A00000D2A00000D2A0000D4
:100050000D2A00000D2A00000D2A00000D2A0000C4
:100060000D2A00000D2A00000D2A00000D2A0000B4
:100070000D2A00000D2A00000D2A00000D2A0000A4
:100080000D2A00000D2A00000D2A00000D2A000094
:100090000D2A00000D2A00000D2A00000D2A000084
:1000A0000D2A00000D2A00000D2A00000D2A000074
:1000B0000D2A00000D2A00000D2A00000D2A000064
:1000C0000D2A00000D2A00000D2A00000D2A000054
:1000D0000D2A00000D2A00000D2A00000D2A000044
:1000E0000D2A00000D2A00000D2A00000D2A000034
:1000F0000D2A00000D2A00000D2A00000D2A000024
:100100000D2A00000D2A00000D2A00000D2A000013
:100110000D2A00000D2A00000D2A00000D2A000003
:100120000D2A00000D2A00000D2A00000D2A0000F3
:100130000D2A00000D2A00000D2A00000D2A0000E3
:100140000D2A00000D2A00000D2A00000D2A0000D3
:100150000D2A00000D2A00000D2A00000D2A0000C3
:100160000D2A00000D2A00000D2A00000D2A0000B3
:100170000D2A00000D2A00000D2A00000D2A0000A3
:100180000D2A00000D2A00000D2A00000D2A000093
:100190000D2A00000D2A00000D2A00000D2A000083
:1001A0000D2A00000D2A00000D2A00000D2A000073
:1001B0000D2A00000D2A00000D2A00000D2A000063
:1001C0000D2A00000D2A00000D2A00000D2A000053
:1001D0000D2A00000D2A00000D2A00000D2A000043
:1001E0000D2A00000D2A00000D2A00000D2A000033
:1001F0000D2A00000D2A00000D2A00000D2A000023
:080200000D2A00000D2A000088
:102A540000F010F8FFF7DCFF00F02CFBFFF7EEFFAF
:102A640000F0DAFAFFF72AFFFFF7BCFFFFF75AFF7F
:042A7400FCE7FEE796
:1028540081B01CF8019B0BF8019BBBEB0A0FF8D16C
:0428640001B0704708
:1028800081B04FF000094FF0000CBDEB0A0F04DCE3
:10289000BDEB0B0F01DBD446EA464BF8049BBBEBC8
:1028A0000A0FFAD1BCEB0A0F05DDE246D9F800B0F9
:0A28B0000BF1040BF1E701B07047D3
:1028C00081B0CDF800E0012207210020FFF70EFFC4
:1028D000002202210020FFF709FF00220121002031
:1028E000FFF704FF0E4801460020FFF777FF42F292
:1028F00080513020FFF78AFF0A480221FFF718FFB6
:1029000040F6FE07C0F23D077F1EFDD100BF00BFAD
:1029100000BF00BF00BFDDF800E001B0704700BF9E
:08292000940A000000000020F1
:1026EC0081B0CDF800E05FFA81FA5FFA82FB0FE06F
:1026FC005FFA8BF15FFA8AF0FFF702FD0DE05FFAEB
:10270C008BF15FFA8AF0FFF7C3FD06E0012004E0CD
:10271C000028EDD00128F2D0F8E7DDF800E001B098
:02272C007047F4
:10210C0081B0CDF800E091E0012904D110215A48AA
:10211C00FFF704FD03E010215748FFF723FDA5E06E
:10212C00012904D101215448FFF7F8FC03E00121F7
:10213C005148FFF717FD99E0012904D101214F48BF
:10214C00FFF7ECFC03E001214C48FFF70BFD8DE0A1
:10215C00012904D104214A48FFF7E0FC03E00421E3
:10216C004748FFF7FFFC81E0012904D110214448C6
:10217C00FFF7D4FC03E010214148FFF7F3FC75E0B6
:10218C00012904D120213E48FFF7C8FC03E020219F
:10219C003B48FFF7E7FC69E0012904D101213948EC
:1021AC00FFF7BCFC03E001213648FFF7DBFC5DE0E8
:1021BC00012904D110213448FFF7B0FC03E01021B1
:1021CC003148FFF7CFFC51E0012904D140212F48C1
:1021DC00FFF7A4FC03E040212C48FFF7C3FC45E0CB
:1021EC00012904D180212948FFF798FC03E08021C4
:1021FC002648FFF7B7FC39E0012904D104211F4818
:10220C00FFF78CFC03E004211C48FFF7ABFC2DE02E
:10221C00012904D108211948FFF780FC03E00821AB
:10222C001648FFF79FFC21E0012020E000283FF436
:10223C006BAF01283FF474AF02283FF47DAF032845
:10224C003FF486AF04283FF48FAF05283FF498AFD6
:10225C0006283FF4A1AF0728AAD00828B4D0092833
:10226C00BED00A28C8D00B28D2D0DDE70020DDF87C
:10227C0000E001B0704700BF00C005400090054071
:10228C000080054000B0054000D0054000A005408E
:101B280081B0CDF800E0002440F240031BB240F23F
:101B3800001212B21A4393B2002210B4FFF75AFAF5
:0A1B480001B0DDF800E001B07047C5
:100FFC0082B0CDF800E05FFA81F8D5B29FB29DF8CF
:10100C000830F54C00EA0404A1462046FFF702F92B
:10101C00F24CA54208D109F580666FEA0805EDB2DD
:10102C0034682C40346008E0ED4CA54205D109F53C
:10103C0080652C6844EA08042C6040F2010407EA3D
:10104C000404A4B234B109F5A2652C6844EA08047E
:10105C002C6007E009F5A2666FEA0805EDB234686A
:10106C002C40346040F2020407EA0404A4B234B108
:10107C0009F214552C6844EA08042C6007E009F2C4
:10108C0014566FEA0805EDB234682C40346040F217
:10109C00080407EA0404A4B234B109F20C552C6814
:1010AC0044EA08042C6007E009F20C566FEA0805C4
:1010BC00EDB234682C40346040F2100407EA0404AA
:1010CC00A4B234B109F5A0652C6844EA08042C607C
:1010DC0007E009F5A0666FEA0805EDB234682C400C
:1010EC00346040F2200407EA0404A4B234B109F2DB
:1010FC0004552C6844EA08042C6007E009F20456F5
:10110C006FEA0805EDB234682C40346040F24004BC
:10111C0007EA0404A4B234B109F5A1652C6844EAC9
:10112C0008042C6007E009F5A1666FEA0805EDB22A
:10113C0034682C40346041F2000407EA0404A4B281
:10114C00012C13D042F2000407EA0404A4B2012CCF
:10115C000CD044F2000407EA0404A4B2012C05D01C
:10116C00DEB24B46B8B25FFA88F53CE000200026B0
:10117C00DAB2BBB207465FFA88F04946082E13D2A2
:10118C0020FA06F4E4B204F00104E4B24CB17500A8
:10119C002DB2032424B2AC4024B247EA04052F46F6
:1011AC00FFE7761CF6B2E9E701F6C476FD43346836
:1011BC002C40346001F23C56C543EDB234682C40EF
:1011CC00346001F5A166C543EDB234682C4034603F
:1011DC0001F20456C543EDB234682C403460C5B2FC
:1011EC0098B20B46D6B2002141F2000400EA040486
:1011FC00A4B23CB300220F46E9B2082A13D221FA5A
:10120C0002F4E4B204F00104E4B24CB155002DB286
:10121C00012424B2AC4024B247EA04052F46FFE770
:10122C00521CD2B2E9E703F6C4752C683C432C601F
:10123C0003F5A1652C680C432C603D461F4683B218
:10124C00C8B203E01F4683B2E8B20D4642F2000476
:10125C0003EA0404A4B26CB30022A8463946082A57
:10126C0013D220FA02F4E4B204F00104E4B24CB15B
:10127C0055002DB2032424B2AC4024B248EA040534
:10128C00A846FFE7521CD2B2E9E701F6C4752C68F8
:10129C0044EA08042C6001F23C552C6804432C6091
:1012AC0001F5A1652C6804432C60F7B20E46C2B25E
:1012BC0098B205E00197C2B298B2F7B2A846019E67
:1012CC0044F2000400EA0404A4B284B30023D1B2B3
:1012DC00082B14D221FA03F4E4B204F00104E4B2B2
:1012EC0054B15D002DB2032424B2AC4024B248EAC0
:1012FC00040422469046FFE75B1CDBB2E8E706F6E7
:10130C00C4752C6844EA08042C6006F23C552C6821
:10131C000C432C6006F5A1652C680C432C6006F27E
:10132C0004552C680C432C60FBB2324602E0D1B25F
:10133C003246FBB240F2800400EA0404A4B274B159
:10134C0040F2400400EA0404A4B22CB102F5A365F7
:10135C002C680C432C6001E00120FAE006E002F559
:10136C00A366CD43EDB234682C40346040F20014D7
:10137C0000EA0404A4B22CB102F21C552C680C43F4
:10138C002C6006E002F21C56CD43EDB234682C40C2
:10139C00346040F2002400EA0404A4B2002C3AD0D9
:1013AC00104CA24240F2000500D001250E4CA24286
:1013BC0040F2000400D0012425400C4CA24240F223
:1013CC00000400D001242540094CA24240F2000444
:1013DC0000D0012425400DE000F0FFFF00000000CC
:1013EC000100000000C0054000B005400090054021
:1013FC0000100640594CA24240F2000400D00124D7
:10140C0005EA04040CB10120A3E002F5A5652C68E3
:10141C000C432C602AE0524CA24240F2000500D151
:10142C000125504CA24240F2000400D10124254376
:10143C004D4CA24240F2000400D1012425434B4CF8
:10144C00A24240F2000400D101242543434CA242A5
:10145C0040F2000400D1012445EA040434B102F541
:10146C00A566CD43EDB234682C40346040F60004E0
:10147C0000EA0404A4B22CB102F5A6652C680C4356
:10148C002C6006E002F5A666CD43EDB234682C4024
:10149C00346040F2004400EA0404A4B22CB102F51A
:1014AC0084652C680C432C6006E002F58466CD4301
:1014BC00EDB234682C4034600BB9002049E00F2B9E
:1014CC0001D9012045E0002700208DF80430C3B27B
:1014DC0010469DF80420082B12D221FA03F4E4B232
:1014EC0004F00104E4B244B19D002DB24FF00F049E
:1014FC00AC4047EA04052F46FFE75B1CDBB2EAE78A
:10150C0000F22C56FD4334682C4034600026002336
:10151C008DF80430CBB29DF80410082913D223FAAD
:10152C0001F4E4B204F00104E4B24CB1D5B28C0085
:10153C0024B205FA04F446EA040425462E46FFE7D5
:10154C00491CC9B2E9E700F22C552C6834432C60D5
:10155C000020DDF800E002B0704700BF00500640EC
:10156C0000C0054000B0054000900540001006404A
:1002200081B0664900EA010108467DE06449096839
:1002300041F0010262490A60BEE06149096841F08B
:1002400002025F490A60B7E05D49096841F00402B3
:100250005B490A60B0E05A49096841F00802584910
:100260000A60A9E05649096841F0100254490A6041
:10027000A2E05349096841F0200251490A609BE01D
:100280004F49096841F040024D490A6094E04C49E9
:10029000096841F080024A490A608DE048490968CE
:1002A00041F4807246490A6086E04549096841F494
:1002B000007243490A607FE04149096841F4806265
:1002C0003F490A6078E03E49096841F400623C49D0
:1002D0000A6071E03A49096841F4805238490A607D
:1002E0006AE03749096841F4005235490A6063E021
:1002F0003349096841F4804231490A605CE0304981
:10030000096841F400422E490A6055E02C49096809
:1003100041F480322A490A604EE02949096841F4D3
:10032000003227490A6047E0264988423FF47EAF01
:10033000254988423FF481AF244988423FF484AF85
:10034000234988423FF487AF224988423FF48AAF6D
:10035000214988423FF48DAF204988423FF490AF55
:100360001F4988423FF493AF1E4988423FF496AF3D
:100370001D4988423FF499AF1C4988423FF49CAF25
:100380001B4988423FF49FAF1A4988423FF4A2AF0D
:10039000194988423FF4A5AF184988423FF4A8AFF5
:1003A000174988423FF4ABAF164988423FF4AEAFDD
:1003B000154988423FF4B1AF01B0704700F0FFFF2C
:1003C00008E60F40008005400090054000A0054071
:1003D00000B0054000C0054000D0054000E00540E9
:1003E00000F00540000006400010064000200640D6
:1003F00000300640004006400050064000600640C5
:0C0400000070064000800640009006409E
:101B700081B0CDF800E0002440F240031BB240F2F7
:101B8000001212B21A4393B2012210B4FFF736FAD0
:0A1B900001B0DDF800E001B070477D
:10229C0081B0CDF800E091E0012904D120215A4809
:1022AC00FFF73CFC03E020215748FFF75BFCA5E05F
:1022BC00012904D102215448FFF730FC03E002212C
:1022CC005148FFF74FFC99E0012904D120214F48D8
:1022DC00FFF724FC03E020214C48FFF743FC8DE082
:1022EC00012904D104214A48FFF718FC03E004211A
:1022FC004748FFF737FC81E0012904D110214448FD
:10230C00FFF70CFC03E010214148FFF72BFC75E0B4
:10231C00012904D120213E48FFF700FC03E02021D5
:10232C003B48FFF71FFC69E0012904D10221394821
:10233C00FFF7F4FB03E002213648FFF713FC5DE0E6
:10234C00012904D140213348FFF7E8FB03E0402189
:10235C003048FFF707FC51E0012904D110212E4829
:10236C00FFF7DCFB03E010212B48FFF7FBFB45E0FC
:10237C00012904D120212848FFF7D0FB03E02021BC
:10238C002548FFF7EFFB39E0012904D104211F4850
:10239C00FFF7C4FB03E004211C48FFF7E3FB2DE02F
:1023AC00012904D108211948FFF7B8FB03E00821E3
:1023BC001648FFF7D7FB21E0012020E000283FF46E
:1023CC006BAF01283FF474AF02283FF47DAF0328B4
:1023DC003FF486AF04283FF48FAF05283FF498AF45
:1023EC0006283FF4A1AF0728AAD00828B4D00928A2
:1023FC00BED00A28C8D00B28D2D0DDE70020DDF8EB
:10240C0000E001B0704700BF00C0054000900540DF
:0C241C000080054000B0054000A0054015
:1027DC0081B0CDF800E009E00846FFF771FC0AE093
:1027EC000846FFF77DFC06E0012004E00028F3D04A
:0E27FC000128F5D0F8E7DDF800E001B07047E5
:1020CC0081B0CDF800E0016808460449FFF73CFDFB
:1020DC000020DDF800E001B0704700BF3C2E00008E
:101B540081B0CDF800E00A4601460348FFF70AF8D1
:0C1B6400DDF800E001B070470000024016
:100B780083B0CDF800E001920A46014601985C4B2B
:100B8800994216D100245B4B1C60012464B25A4B75
:100B98001C605A4C5A4B1C605A4C5B4B1C605B4C9B
:100BA8005B4B1C605B4C5C4B1C605C4C5C4B1C6086
:100BB80065E15C4B994216D100245B4B1C60012413
:100BC80064B25A4B1C605A4C4D4B1C60594C4E4BEE
:100BD8001C60594C4E4B1C60584C4F4B1C60584C79
:100BE8004F4B1C604BE1574B994216D10024564B92
:100BF8001C60012464B2554B1C60554C404B1C6072
:100C0800544C414B1C60544C414B1C60534C424B60
:100C18001C60534C424B1C6031E1524B994216D137
:100C28000024514B1C60012464B2504B1C60504C92
:100C3800334B1C604F4C344B1C604F4C344B1C6086
:100C48004E4C354B1C604E4C354B1C6017E14D4BE0
:100C5800994216D100244C4B1C60012464B24B4BC2
:100C68001C604B4C264B1C604A4C274B1C604A4C62
:100C7800274B1C60494C284B1C60494C284B1C6076
:100C8800FDE0484B994216D10024474B1C600124D3
:100C980064B2464B1C60464C194B1C60454C1A4BC1
:100CA8001C60454C1A4B1C60444C1B4B1C60444C4C
:100CB8001B4B1C60E3E0434B994216D10024424B86
:100CC8001C60012464B2414B1C60414C0C4B1C60FD
:100CD800404C0D4B1C60404C0D4B1C603F4C0E4B68
:100CE8001C603F4C0E4B1C60C9E03E4B99427BE0B8
:100CF800000002407000002000C4FC43FFFFFFFF1B
:100D0800F0000020C50F0000F4000020D908000002
:100D1800F800002035090000FC000020FFFFFFFF5D
:100D280000010020001002407400002004C4FC43AD
:100D3800FFFFFFFFA90F0000090B00005109000089
:100D4800FFFFFFFF002002407800002008C4FC439A
:100D5800FFFFFFFFE10F0000ED0A0000F51500009E
:100D6800FFFFFFFF003002407C0000200CC4FC4362
:100D7800FFFFFFFF7D150000D10A0000B515000038
:100D8800FFFFFFFF00000C408000002010C4FC4360
:100D9800FFFFFFFF8D0F0000050A000091160000FD
:100DA800FFFFFFFF00100C408400002014C4FC4328
:100DB800FFFFFFFF710F0000E9090000591600004E
:100DC800FFFFFFFF00200C408800002018C4FC43F0
:100DD800FFFFFFFFD1160000CD09000075160000C7
:100DE800FFFFFFFF00300C4016D10024414B1C6070
:100DF800012464B2404B1C60404C414B1C60414C88
:100E0800414B1C60414C424B1C60424C424B1C60A5
:100E1800424C434B1C6032E0424B994216D10024AD
:100E2800414B1C60012464B2404B1C60404C344B65
:100E38001C60404C344B1C603F4C354B1C603F4C95
:100E4800354B1C603E4C364B1C6018E03D4B9942BC
:100E580015D100243C4B1C60012464B23B4B1C6040
:100E68003B4C274B1C603B4C274B1C603A4C284B97
:100E78001C603A4C284B1C60394C294B1C60019271
:100E88000291FFF7BDFC0299019A01F22004102398
:100E98002360344B9A4207D106260D1D01242B6886
:100EA80064F304132B6006E014260D1D00242B6840
:100EB80064F304132B60FFF7EDFC40F2E83300FB0A
:100EC80003F506FB02F4B5FBF4F318466343EB1A8B
:100ED8000BB9401EFFE77F2801D97F20FFE70128D3
:100EE80001D20120FFE701F20C031860DDF800E0F1
:100EF80003B070478C0000201CC4FC43FFFFFFFFB9
:100F0800F000002099150000F4000020590A0000A4
:100F1800F80000205D0B0000FC000020FFFFFFFF31
:100F28000001002000800B409000002020C4FC43FA
:100F3800FFFFFFFF190900003D0A0000250B000014
:100F4800FFFFFFFF00900B409400002024C4FC43E7
:100F5800FFFFFFFFB1090000210A0000410B00005C
:080F6800FFFFFFFFD0CF3200B4
:1008080081B0CDF800E040F2000B82460AF1D80131
:1008180009788B4539D20C210BFB01F10AEB010158
:100828008C460CF108010978A9B90CF1080109787E
:10083800CCB20CF1060109888BB20CF104010978DD
:10084800CAB2DCF800100846D1B2002210B400F099
:10085800D1FB01B014E00CF108010978CCB20CF11D
:10086800060109888BB20CF104010978CAB2DCF8D8
:1008780000100846D1B20F2210B400F0BBFB01B043
:100888000BF1010B5FFA8BFBC0E7DDF800E001B06C
:020898007047A7
:0C089C0001480068704700BFC400002045
:1020EC0081B0CDF800E0016808460449FFF72CFDEB
:1020FC000020DDF800E001B0704700BF3C2E00006E
:10280C0081B0CDF800E011E00846FFF707FE16E0B6
:10281C000846FFF737FE12E00846FFF745FE0EE0CC
:10282C000846FFF70DFE0AE0012008E00028EBD077
:10283C000128EDD02028EFD03028F1D0F4E7DDF8D6
:06284C0000E001B070473E
:1024280081B0CDF800E0FFF763FA044A04490A6076
:102438000020DDF800E001B0704700BFB11B0000CC
:04244800A0000020D0
:1018F80082B0CDF800E00346214A22490A60224A14
:1019080022490A60224A23490A60234A23490A6075
:1019180001932348FEF774FF019B012252B221492B
:101928000A6000BF00BF00BFFFF7BCFEFEF7B2FFB2
:1019380040F2E83100FB01F210461901914205D945
:10194800012252B218490A605A0804E0002252B231
:1019580015490A601A46C100B1FBF2F1491C4B084F
:101968009A0912490A6003F03F0211490A6060228D
:1019780010490A60FFF75AFEDDF800E002B0704730
:10198800B11B000004010020FFFFFFFF0801002039
:10199800FFFFFFFF0C010020FFFFFFFF10010020E9
:1019A800602D000014C3FC43140622422410014099
:0819B800281001402C10014031
:1016AC0081B0002149B2044801600448016004483B
:1016BC00016001B0704700BF0006224220062242A2
:0416CC00240622428C
:1016340081B0012149B204480160044801600448B2
:10164400016001B0704700BF00062242200622421A
:041654002406224204
:1024900081B0CDF800E0FFF7CBF9044A04490A60A7
:1024A0000020DDF800E001B0704700BF291D0000EA
:0424B000A000002068
:1018300082B0CDF800E00346214A22490A60224ADC
:1018400022490A60224A23490A60234A23490A603E
:1018500001932348FEF7D8FF019B012252B2214990
:101860000A6000BF00BF00BFFFF7B2FEFFF716F827
:1018700040F2E83100FB01F210461901914205D90E
:10188000012252B218490A605A0804E0002252B2FA
:1018900015490A601A46C100B1FBF2F1491C4B0818
:1018A0009A0912490A6003F03F0211490A60602256
:1018B00010490A60FFF7ACFEDDF800E002B07047A7
:1018C000291D000004010020FFFFFFFF0801002088
:1018D000FFFFFFFF0C010020FFFFFFFF10010020B2
:1018E000A82B00001CC3FC431406264224300140F0
:0818F000283001402C300140BA
:1015D00081B0002149B20448016004480160044818
:1015E000016001B0704700BF000626422006264277
:0415F0002406264265
:1016100081B0012149B204480160044801600448D6
:10162000016001B0704700BF000626422006264236
:041630002406264224
:1024B40081B0CDF800E0FFF781FA044A04490A60CC
:1024C4000020DDF800E001B0704700BFAD1D000042
:0424D400A000002044
:1019C00082B0CDF800E00346214A22490A60224A4B
:1019D00022490A60224A23490A60234A23490A60AD
:1019E00001932348FEF710FF019B012252B22149C7
:1019F0000A6000BF00BF00BFFEF77CFFFEF74EFF8E
:101A000040F2E83100FB01F210461901914205D97C
:101A1000012252B218490A605A0804E0002252B268
:101A200015490A601A46C100B1FBF2F1491C4B0886
:101A30009A0912490A6003F03F0211490A606022C4
:101A400010490A60FEF792FFDDF800E002B070472F
:101A5000AD1D000004010020FFFFFFFF0801002072
:101A6000FFFFFFFF0C010020FFFFFFFF1001002020
:101A7000842C000008C3FC4314061C4224E00040F0
:081A800028E000402CE00040CA
:1008F40081B0002149B20448016004480160044801
:10090400016001B0704700BF00061C4220061C4273
:0409140024061C4257
:10096C0081B0012149B20448016004480160044887
:10097C00016001B0704700BF00061C4220061C42FB
:04098C0024061C42DF
:10244C0081B0CDF800E0FFF7EDF9044A04490A60C9
:10245C000020DDF800E001B0704700BF291D00002E
:04246C00A0000020AC
:1027300083B0CDF800E0024610460D228DF8082047
:102740000A228DF809201FE0FFF792FE23E00278AD
:102750002AB10190FFF78CFE0198401CF7E71AE0C0
:1027600002782AB10190FFF783FE0198401CF7E739
:1027700002AA1046FFF77CFE0DF109021046FFF792
:1027800077FE08E0062007E00029DDD00129DED031
:102790000229E5D0F6E70020DDF800E003B070473D
:1024700081B0CDF800E00178CCB2A0B2034C246862
:10248000A0470020DDF800E001B07047A000002068
:101A9C0081B0CDF800E0FEF775FFDDF800E001B095
:021AAC00704781
:1009900081B0054908600549096801B9FBE70249CA
:1009A000086801B0704700BF08800040880110420D
:101A880081B0CDF800E0FEF713FFDDF800E001B00B
:021A9800704795
:1008B80081B0054908600549096801B9FBE70249A3
:1008C800086801B0704700BF0890004088011242D4
:101B9C0081B0CDF800E0FEF785FFDDF800E001B084
:021BAC00704780
:100AB00081B0054908600549096801B9FBE70249A9
:100AC000086801B0704700BF08A0004088011442C8
:101D600081B0CDF800E0FEF785FEDDF800E001B0BF
:021D70007047BA
:100A740081B0054908600549096801B9FBE70249E5
:100A8400086801B0704700BF08B0004088011642F2
:101D440081B00449096801B1FBE70349086001B0A7
:0C1D5400704700BF1403184200C000409C
:101D740081B00449096801B1FBE70349086001B077
:0C1D8400704700BF14031A4200D000405A
:101DAC0081B00449096801B1FBE70349086001B03F
:0C1DBC00704700BF14031C4200E0004010
:101D900081B00449096801B1FBE70349086001B05B
:0C1DA000704700BF14031E4200F000401A
:101BCC0081B00449096801B1FBE70349086001B021
:0C1BDC00704700BF1403204200000140CD
:101BB00081B00449096801B1FBE70349086001B03D
:0C1BC000704700BF1403224200100140D7
:101BE80081B00449096801B1FBE70349086001B005
:0C1BF800704700BF14032442002001408D
:101D280081B00449096801B1FBE70349086001B0C3
:0C1D3800704700BF140326420030014039
:1029E80081B0CDF800E01E2204490548FFF7D4FE67
:1029F800FFF7F2FDDDF800E001B07047103000008D
:042A0800882F000013
:1027A00081B0CDF800E00546094B1A700224094BB0
:1027B0001C700846FFF7B2FE2846FFF799FE01207D
:1027C000054C2468A047DDF800E001B0704700BF69
:0C27D0009E0000206F000020B4000020DC
:0C20780001490860704700BF907FB8422B
:0C20840001490860704700BF807FB8422F
:0C20600001490860704700BF807FB24259
:0C206C0001490860704700BF887FB04247
:0C20900001490860704700BF907FB0421B
:0C20B40001490860704700BF947FB042F3
:0C20C00001490860704700BF807FB642F5
:0C209C0001490860704700BF907FBA4205
:0C20A80001490860704700BF987FB442F7
:0C25980001490860704700BF9C7FB442FE
:0C25A40001490860704700BF887FB24208
:0C25800001490860704700BF8C7FB24228
:0C258C0001490860704700BF947FB8420E
:0C25C80001490860704700BF847FB842E2
:0C25D40001490860704700BF947FB242CC
:0C25B00001490860704700BF887FB042FE
:0C25BC0001490860704700BF907FB042EA
:0C25740001490860704700BF947FB0422E
:0C24D80001490860704700BF847FB642D5
:0C255C0001490860704700BF987FB6423C
:0C25680001490860704700BF907FB4423A
:0C25440001490860704700BF947FB4425A
:0C25500001490860704700BF887FB2425C
:0C24E40001490860704700BF8C7FB242C5
:10251C00026806490A60011D0A6805490A6000F252
:10252C0008010A6803490A60704700BFA400002034
:08253C00A8000020AC00002003
:1024F00000F230011C310A6805490A6000F2080147
:102500000A6804490A60011D0A6803490A607047A5
:0C251000B0000020B4000020B800002043
:1025E00081B0CDF800E04F20FFF716FC402802D064
:1025F0000848007809E080216020FFF7DBFC01211A
:102600006220FFF7D7FC04480078DDF800E001B055
:0C261000704700BF6C0000206D0000202F
:101E180082B0CDF800E001A90870204909780229AC
:101E280015D1FFF75FFC01AA1D4909780123C8B243
:101E380011460122FFF760FC0DF1050218490978E7
:101E48000023C8B211460122FFF7D8FE1EE001AAFE
:101E580040F0800111700020124C2468A047012036
:101E6800114C2468A04701A908460121FFF71CFE70
:101E780000200D4C2468A0470DF1050108460121FA
:101E8800FFF730FE0120074C2468A0470DF105013B
:101E98000978C8B2DDF800E002B070476F00002092
:0C1EA8009E000020B4000020B8000020C4
:1016EC0040F2000212B201210148017010B27047A1
:0416FC006E0000205C
:1017000085B0CDF800E0ADF80C200A468DF8103019
:1017100040F20004ADF808401146424C247854B120
:1017200001910021404C2468A0470199FFF7B4F9CA
:1017300000253C4C2570BDF80C40012C0DD10C78D7
:101740000721E0B2394C2468A047BDF908400443A2
:10175000ADF80840FFF7A0F957E0BDF80C40022CA7
:101760001CD10C7801910321E0B2304C2468A047D1
:101770000199BDF908400443ADF808404C1C2046CF
:10178000FFF78AF904780521E0B2284C2468A047C5
:10179000BDF908400443ADF8084036E00C780191EB
:1017A0000321E0B2214C2468A0470199BDF908400B
:1017B0000443ADF808404B1CFFF76EF91946BDF81D
:1017C0000C40641EA4B2ADF80C40012C12D90C7868
:1017D00001910121E0B2154C2468A0470199BDF99F
:1017E00008400443ADF808404C1C2346FFF754F969
:1017F0001946E4E70C780521E0B20C4C2468A047B8
:10180000BDF908400443ADF808409DF81040012C94
:1018100002D10125034C2570BDF90800DDF800E078
:1018200005B070476E000020A4000020A800002032
:100FC40081B0CDF800E0CAB2C1B20348FFF76AFCB1
:0C0FD400DDF800E001B0704700000240B2
:1008A80081B04B009BB213439BB2036001B0704709
:100FA80081B0CDF800E0CAB2C1B20348FFF778FCBF
:0C0FB800DDF800E001B0704700100240BE
:100FE00081B0CDF800E0CAB2C1B20348FFF75CFCA3
:0C0FF000DDF800E001B070470020024076
:10157C0081B0CDF800E0CAB2C1B20348FFF78EF9D2
:0C158C00DDF800E001B0704700300240C4
:100F8C0081B0CDF800E0CAB2C1B20348FFF786FCCD
:0C0F9C00DDF800E001B0704700000C40E0
:100F700081B0CDF800E0CAB2C1B20348FFF794FCDB
:0C0F8000DDF800E001B0704700100C40EC
:1016D00081B0CDF800E0CAB2C1B20348FFF7E4F828
:0C16E000DDF800E001B0704700200C4075
:1015980081B0CDF800E0CAB2C1B20348FFF780F9C4
:0C15A800DDF800E001B0704700300C409E
:1009180081B0CDF800E0CAB2C1B20348FFF7C0FF0A
:0C092800DDF800E001B0704700800B40DB
:1009B00081B0CDF800E0CAB2C1B20348FFF774FFBE
:0C09C000DDF800E001B0704700900B4033
:1008D80081B0CDF800E0CAB2C1B20348FFF794FE78
:0C08E800DDF800E001B0704700000240A5
:1006100082B0CDF800E04FF000045D4B984205D168
:100620005C4B1D685C4B1B6801935BE05B4B984225
:1006300006D15B4B1C685B4B1B680193254651E060
:10064000594B984206D1594B1C68594B1B68019372
:10065000234646E0574B984206D1574B1C68574BF0
:100660001B68019323463CE0554B984206D1554BFD
:100670001C68554B1B680193234632E0534B98424C
:1006800006D1534B1C68534B1B680193234628E04B
:10069000514B984206D1514B1C68514B1B6801933A
:1006A00023461EE04F4B984206D14F4B1C684F4BE0
:1006B0001B680193234614E04D4B984206D14D4BE5
:1006C0001C684D4B1B68019323460AE04B4B984234
:1006D00006D14B4B1C684B4B1B680193234600E033
:1006E00023461D4600F208031960072A05D0032A95
:1006F00003D004462846D1B215E02E46D1B20246B8
:100700002846131D1C68C4F380135BB148B126B999
:100710000420019CA047012036E0731E1C4626469B
:10072000FFE7EEE71446231D1960FFF76DFDFFF7A5
:100730006BFDFFF769FD024625462B1D1C68C4F3BF
:1007400000034BB138B122B90420019CA04701201D
:100750001AE0521EFFE7F0E72B1D1C68C4F34003AC
:100760006BB1012902D0032900D008E02B1D1C68C1
:10077000C4F300131BB92C1D40F2040323602B1D8E
:100780001C68C4F34003D8B2DDF800E002B0704743
:100790000000024070000020C8000020001002404D
:1007A00074000020CC0000200020024078000020CF
:1007B000D0000020003002407C000020D400002047
:1007C00000000C4080000020D800002000100C40E9
:1007D00084000020DC00002000200C408800002065
:1007E000E000002000300C408C000020E4000020DD
:1007F00000800B4090000020E800002000900B409B
:0808000094000020EC00002030
:1002080040F22607C0F200077F1EFDD100BF00BFE5
:0802180000BF00BF00BF7047EA
:100B080081B0CDF800E0CAB2C1B20348FFF77CFD5E
:0C0B1800DDF800E001B070470010024062
:100AEC0081B0CDF800E0CAB2C1B20348FFF78AFD6D
:0C0AFC00DDF800E001B07047002002406F
:100AD00081B0CDF800E0CAB2C1B20348FFF798FD7B
:0C0AE000DDF800E001B07047003002407B
:100A040081B0CDF800E0CAB2C1B20348FFF7FEFDE1
:0C0A1400DDF800E001B0704700000C406D
:1009E80081B0CDF800E0CAB2C1B20348FFF70CFEEF
:0C09F800DDF800E001B0704700100C407A
:1009CC0081B0CDF800E0CAB2C1B20348FFF71AFEFD
:0C09DC00DDF800E001B0704700200C4086
:100A580081B0CDF800E0CAB2C1B20348FFF7D4FDB7
:0C0A6800DDF800E001B0704700300C40E9
:100A3C0081B0CDF800E0CAB2C1B20348FFF7E2FDC5
:0C0A4C00DDF800E001B0704700800B40B6
:100A200081B0CDF800E0CAB2C1B20348FFF7F0FDD3
:0C0A3000DDF800E001B0704700900B40C2
:100A980049F63E47C0F200077F1EFDD100BF00BFE8
:080AA80000BF00BF00BF704752
:101C040085B0CDF800E0ADF80C200A468DF8103010
:101C140040F20004ADF8084011463F4C247854B11A
:101C2400019101213D4C2468A0470199FEF732FF40
:101C34000025394C2570BDF80C40012C0CD1084608
:101C44000721374C2468A047BDF908400443ADF888
:101C54000840FEF71FFF51E0BDF80C40022C19D1DB
:101C6400019108460B212E4C2468A0470199BDF927
:101C740008400443ADF808404C1C2046FEF70AFF18
:101C84000521274C2468A047BDF908400443ADF85A
:101C9400084033E0019108460B21214C2468A047F9
:101CA4000199BDF908400443ADF808404B1CFEF708
:101CB400F1FE1946BDF80C40641EA4B2ADF80C4008
:101CC400012C11D9019108460921154C2468A0471B
:101CD4000199BDF908400443ADF808404C1C234663
:101CE400FEF7D8FE1946E5E7084605210C4C2468A2
:101CF400A047BDF908400443ADF808409DF81040E2
:101D0400012C02D10125044C2570BDF90800DDF831
:101D140000E005B0704700BF6E000020A400002062
:041D2400AC000020EF
:1009340081B0CDF800E0CAB201460348FFF764FD78
:0C094400DDF800E001B070470000024048
:10040C0084B0CDF800E0044603914FF00003029352
:10041C005E4B9C4206D15E4B1B6802935D4B1B6886
:10042C00019358E05C4B9C4206D15C4B1B680293D9
:10043C005B4B1B6801934EE05A4B9C4206D15A4BC6
:10044C001B680293594B1B68019344E0584B9C4228
:10045C0006D1584B1B680293574B1B6801933AE02B
:10046C00564B9C4206D1564B1B680293554B1B684E
:10047C00019330E0544B9C4206D1544B1B680293C1
:10048C00534B1B68019326E0524B9C4206D1524BB6
:10049C001B680293514B1B6801931CE0504B9C4210
:1004AC0006D1504B1B6802934F4B1B68019312E013
:1004BC004E4B9C4206D14E4B1B6802934D4B1B6816
:1004CC00019308E04C4B9C4205D14C4B1B680293AA
:1004DC004B4B1B680193072A03D00B2A01D02046F3
:1004EC0017E0029E2046D1B2031D1C68C4F3801392
:1004FC0073B1029B4BB126B90320019CA04701208C
:10050C0040E0731E1A46134600E033461E46EBE7E6
:10051C00CAB2031D1A60FFF771FEFFF76FFEFFF7FB
:10052C006DFE029E031D1C68C4F3000363B1029BA5
:10053C003BB126B90320019CA047012022E0711E8B
:10054C0000E031460E46EDE7031D1C68C4F3400382
:10055C0073B1092A02D00B2A00D008E0031D1C68D5
:10056C00C4F300131BB9041D40F20403236004E020
:10057C0000F208031C68039B1C70031D1C68C4F369
:10058C004003D8B2DDF800E004B070470000024030
:10059C0070000020C80000200010024074000020F1
:1005AC00CC0000200020024078000020D000002069
:1005BC00003002407C000020D400002000000C40E1
:1005CC0080000020D800002000100C408400002087
:1005DC00DC00002000200C4088000020E0000020FF
:1005EC0000300C408C000020E400002000800B4008
:1005FC0090000020E800002000900B4094000020A8
:04060C00EC000020DE
:1009500081B0CDF800E0CAB201460348FFF756FD6A
:0C096000DDF800E001B07047001002401C
:1015F40081B0CDF800E0CAB201460348FEF704FF0B
:0C160400DDF800E001B07047002002405B
:1015B40081B0CDF800E0CAB201460348FEF724FF2B
:0C15C400DDF800E001B07047003002408C
:1016900081B0CDF800E0CAB201460348FEF7B6FEBD
:0C16A000DDF800E001B0704700000C40D5
:1016580081B0CDF800E0CAB201460348FEF7D2FED9
:0C166800DDF800E001B0704700100C40FD
:1016740081B0CDF800E0CAB201460348FEF7C4FECB
:0C168400DDF800E001B0704700200C40D1
:100B5C0081B0CDF800E0CAB201460348FFF750FC63
:0C0B6C00DDF800E001B0704700300C40E4
:100B240081B0CDF800E0CAB201460348FFF76CFC7F
:0C0B3400DDF800E001B0704700800B40CD
:100B400081B0CDF800E0CAB201460348FFF75EFC71
:0C0B5000DDF800E001B0704700900B40A1
:101AB00083B0CDF800E08AB2014690B283B2421EF4
:101AC00090B26BB10A78D4B2ADF804000291A0B222
:101AD000054C2468A0470299BDF80400491CEDE7B5
:0C1AE000DDF800E003B07047C0000020FB
:101AEC0083B0CDF800E0ADF808100190BDF80830D7
:101AFC00BDF80820521EADF808204BB10020064C52
:101B0C002468A047019A1070019A521C0192EDE7CB
:0C1B1C00DDF800E003B07047BC000020C2
:101FB40082B0CDF800E001AA1070521C1170124AD0
:101FC4001278022A0BD1FFF78FFB01AB0F4A12786C
:101FD40019460023D0B20222FFF790FB10E0012043
:101FE4000B4C2468A04700200A4C2468A04701AA8F
:101FF40002211046FFF75AFD0120064C2468A04731
:10200400DDF800E002B070476F0000209E00002061
:08201400B8000020B400002018
:1029280081B0CDF800E06820FFF7ACFE24490880AC
:1029380024480121FFF7F8FE2148B0F90000224998
:10294800FFF768FE02212048FFF7EEFE6A20FFF736
:1029580099FE1E4908801E480121FFF7E5FE1B4825
:10296800B0F900001849FFF755FE02211648FFF795
:10297800DBFE6C20FFF786FE164908801648012109
:10298800FFF7D2FE1348B0F900000F49FFF742FEE7
:1029980002210D48FFF7C8FE10480221FFF7C4FEC8
:1029A80045F6FE17C0F262277F1EFDD100BF00BFAB
:1029B80000BF00BF00BFDDF800E001B0704700BFF6
:1029C8009800002016000020210000209A00002016
:1029D800530000209C0000205E00002069000020B9
:10268C0083B0CDF800E08DF808009DF8081068299B
:10269C0005D10120FFF7BCFC8DF8040012E09DF879
:1026AC0008106A2905D10220FFF7B2FC8DF804004E
:1026BC0008E09DF808106C2904D10420FFF7A8FC51
:1026CC008DF804009DF8041021B99DF80800FFF75F
:1026DC00EBFB01E0012000B2DDF800E003B0704735
:10201C0082B0CDF800E08DF8040000218DF8051099
:10202C009DF805100A2910D26720FFF7EFFE9DF8E6
:10203C00041000EA0101C9B209B1002006E09DF8C4
:10204C000510491C8DF80510EAE70120DDF800E0C9
:04205C0002B0704717
:101EB40083B0CDF800E08DF8080001AA9DF8081061
:101EC400117037490978022915D1FFF70DFC01AAD1
:101ED400344909780123C8B211460122FFF70EFCE8
:101EE4000DF105022F4909780023C8B211460222D8
:101EF400FFF786FE44E001AA9DF8081041F0800136
:101F040011700020284C2468A0470120274C246825
:101F1400A04701A908460121FFF7C8FD0020234C72
:101F24002468A0470DF1050108460121FFF7DCFDF7
:101F340001201D4C2468A04701AA9DF80810491CE3
:101F440009B241F0800111700020174C2468A047A9
:101F54000120164C2468A04701A908460121FFF777
:101F6400A5FD0020114C2468A0470DF10501491C72
:101F740008460121FFF7B8FD01200B4C2468A04757
:101F84000DF10503591C0978C8B2020212B219787E
:101F940042EA010108B2DDF800E003B0704700BF77
:101FA4006F0000209E000020B4000020B800002034
:10261C0081B0CDF800E00E46002183B2002805DA27
:10262C000121404280B280B28FB201E098B28FB2E9
:10263C003146FFF7C3FB06213446B8B2002908D94E
:10264C0063184A1E92B2A21812781A70491E89B2E7
:10265C00F4E72022227070B1002081B2204642188B
:10266C001278202A02D1491C89B2F8E74A1E92B28C
:0E267C0083182D221A70DDF800E001B07047BF
:101DC80081B00A4681B200208DB21146052805D29D
:101DD8000B1820221A70401CC0B2F7E70B1800221B
:101DE8001A70401EC0B20C180A23B5FBF3F203FBAD
:101DF800125292B2303222700A22B5FBF2F292B23B
:101E080095B202B902E0401EC0B2ECE701B07047DB
:102A780081B0CDF800E0344A344B354C354D364EF4
:102A88004FF03011354801600021354801606FF082
:102A9800010003EA000133480160C3F3C00018B91C
:102AA800FFF7DEFEFFF7DCFEC3F3000018B10121DB
:102AB80049B22D4801602D48864203D92C49274840
:102AC800016021E02B48864203D92B492348016045
:102AD8001AE04CF25030864203D928491F48016059
:102AE80012E047F23050864203D925491B4801605D
:102AF8000AE0B6F57A5F03D922491848016003E075
:102B08004FF03011154801601F4804601F480560E8
:102B18006FF0805002EA000111480160012149B2BA
:102B28001B4801601B48016002F0805038B11A4808
:102B3800006800B9FBE7012149B218480160DDF8D7
:102B480000E001B0704700BF0400303311000000FE
:102B58001800800000000000C0D40100C0E00F4051
:102B6800B0E00F407CE00F40800FFC43A0860100DE
:102B7800960130008038010055013000D300300044
:102B8800B20030007100300060E10F4064E10F4096
:102B98007C16FC437816FC43002DFC437016FC435E
:1028680041F67E27C0F206077F1EFDD100BF00BFDC
:0828780000BF00BF00BF704764
:102A400081B002490248016001B07047C0D4010062
:042A5000C40000209E
:082A0C0081B0FEE701B0704744
:102A140081B04EF68850CEF20000016841F4700196
:102A2400016000BF00BF00BF00BFF1EE100A40F418
:0A2A34004000E1EE100A01B0704707
:10301C0000B5DFF824B0DFF824A0DFF824C0FFF7F8
:10302C0013FCDFF820B0DFF820A0DFF820C0FFF79A
:10303C000BFC00BD704700BF000000206F0000209B
:10304C00182F00007000002098000020E82F0000CE
:1030B80000B5DFF810B0DFF810A0FFF7DDFB00BDAA
:0C30C800704700BF000000201401002031
:040A9400A086010037
:102BA80000A00540100040050100000000A00540FD
:102BB80020004005010000000000000000000000A7
:102BC80000000000000000000000000000000000FD
:102BD80000000000000000000000000000000000ED
:102BE80000000000000000000000000000000000DD
:102BF80000000000000000000000000000000000CD
:102C080000000000000000000000000000000000BC
:102C180000000000000000000000000000000000AC
:102C2800000000000000000000000000000000009C
:102C3800000000000000000000000000000000008C
:102C4800000000000000000000000000000000007C
:102C5800000000000000000000000000000000006C
:102C6800000000000000000000000000000000005C
:0C2C78000000000000000000020000004E
:102C840000B00540100040050100000000B0054000
:102C940020004005010000000000000000000000CA
:102CA4000000000000000000000000000000000020
:102CB4000000000000000000000000000000000010
:102CC4000000000000000000000000000000000000
:102CD40000000000000000000000000000000000F0
:102CE40000000000000000000000000000000000E0
:102CF40000000000000000000000000000000000D0
:102D040000000000000000000000000000000000BF
:102D140000000000000000000000000000000000AF
:102D2400000000000000000000000000000000009F
:102D3400000000000000000000000000000000008F
:102D4400000000000000000000000000000000007F
:0C2D540000000000000000000200000071
:102D600000F00540400040050100000000F0054073
:102D7000800040050100000000000000000000008D
:102D80000000000000000000000000000000000043
:102D90000000000000000000000000000000000033
:102DA0000000000000000000000000000000000023
:102DB0000000000000000000000000000000000013
:102DC0000000000000000000000000000000000003
:102DD00000000000000000000000000000000000F3
:102DE00000000000000000000000000000000000E3
:102DF00000000000000000000000000000000000D3
:102E000000000000000000000000000000000000C2
:102E100000000000000000000000000000000000B2
:102E200000000000000000000000000000000000A2
:0C2E300000000000000000000200000094
:102E3C000090054004004005020000000090054091
:102E4C00080008050200000000000000000000005F
:102E5C000000000000000000000000000000000066
:102E6C000000000000000000000000000000000056
:102E7C000000000000000000000000000000000046
:102E8C000000000000000000000000000000000036
:102E9C000000000000000000000000000000000026
:102EAC000000000000000000000000000000000016
:102EBC000000000000000000000000000000000006
:102ECC0000000000000000000000000000000000F6
:102EDC0000000000000000000000000000000000E6
:102EEC0000000000000000000000000000000000D6
:102EFC0000000000000000000000000000000000C6
:0C2F0C00000000000000000002000000B7
:102F1800202D2D2D2053797374656D20696E697489
:062F2800202D2D2D2000DC
:102F2E0020582061786973203A20000000000000CC
:102F3E000000000000000000000000000000000083
:102F4E000000000000000000000000000000000073
:102F5E0000000000000000000000000000205920CA
:082F6E0061786973203A20002C
:0E2F7600205A2061786973203A200020200044
:022F8400020049
:012F8600004A
:102F88007920000085200000612000006D200000ED
:102F980091200000B5200000C12000009D20000005
:102FA800A920000099250000A52500008125000022
:102FB800FFFFFFFFFFFFFFFFFFFFFFFFFFFFFFFF19
:102FC800FFFFFFFFFFFFFFFFFFFFFFFFFFFFFFFF09
:102FD800FFFFFFFFFFFFFFFFFFFFFFFFFFFFFFFFF9
:042FE80000000000E5
:042FEC0000000000E1
:042FF00000000000DD
:042FF40000000000D9
:042FF80000000000D5
:042FFC0000000000D1
:0430000000000000CC
:0430040000000000C8
:0430080000000000C4
:04300C0000000000C0
:0C301000C50F0000D908000035090000C1
:00000001FF
