:100000003CEF10F00000000000EF00F000000000E6
:0A0010000000000000000000F3D71C
:0E001C00010115B102D08B9601D08B86120027
:0E002A00010115B102D08B9C01D08B8C12000D
:0E003800010115B102D08B9801D08B88120007
:0E004600010115B102D08D9601D08D861200F9
:0E005400010115B102D0899401D089841200F7
:0E006200010115B102D08B9A01D08B8A1200D9
:0E007000010115B102D08B9801D08B881200CF
:0E007E00010115B102D08B9401D08B841200C9
:0E008C00010115B102D08B9E01D08B8E1200A7
:0E009A00010115B102D08A9201D08A821200B3
:0E00A800010115B102D08F9401D08F84120097
:0E00B600010115B102D08A9401D08A84120093
:0E00C400010115B102D08F9201D08F8212007F
:0E00D200010115B102D08B9801D08B8812006D
:0E00E000010115B102D08B9601D08B86120063
:0E00EE00010115B102D08B9601D08B86120055
:0E00FC00010115B102D08D9401D08D84120047
:0E010A00010115B102D08B9801D08B88120034
:0E011800010115B102D08F9001D08F8012002E
:0E012600010115B102D08B9A01D08B8A120014
:0E013400010115B102D08D9001D08D80120016
:0E014200010115B102D08B9001D08B8012000C
:0E015000010115B102D08B9601D08B861200F2
:0E015E00010115B102D08B9A01D08B8A1200DC
:0E016C00010115B102D08B9801D08B881200D2
:10017A0015C16AFF016A0150000A05E1000E68B064
:0C018A00010E016EF8D76ACF01F01200E0
:1001960015C1C9FF016A0150000A05E1000EC7B08A
:0C01A600010E016EF8D7C9CF01F0120065
:0E01B200ACB202D00000FCD715C1ADFF1200A8
:0E01C000010115B102D0899001D08980120092
:1001CE000F0121B302D00000FBD715C11CFF120096
:0E01DE00010115B102D0899201D08982120070
:0E01EC00010115B102D08B9801D08B88120052
:0E01FA00010115B102D0899801D08988120048
:0E020800010115B102D08B9601D08B86120039
:0E021600010115B102D08D9201D08D8212002F
:0E022400010115B102D08A9001D08A8012002B
:0E023200010115B102D08B9201D08B82120017
:0E024000010115B102D08B9E01D08B8E1200F1
:0E024E00010115B102D08B9601D08B861200F3
:0E025C00010115B102D08B9C01D08B8C1200D9
:10026A00C7B409D01F0EC514016E0150000A03E17C
:0A027A00010E006E01D0006A1200B0
:10028400F250026EF29E0500FF6A0150FE6E0050AD
:08029400FD6E02BEF28E1200A5
:10029C0068B409D01F0E6614016E0150000A03E108
:0A02AC00010E006E01D0006A12007E
:1002B6001DCF01F00F0122A302D02299228901C08D
:0402C60000F0120032
:0A02CA00000EACB2010E006E12002F
:1002D400AECF01F0ABA202D0AB98AB8801C000F066
:0202E400120006
:0A02E600000E80B0010E006E120041
:0C02F000000E0F0121B3010E006E120081
:0A02FC00000EA4BA010E006E1200FD
:0A030600000E84B2010E006E12001A
:0A031000000E82B6010E006E12000E
:0A031A00000E82B4010E006E120006
:0A032400000E9EBA010E006E1200DA
:0A032E00000E82BA010E006E1200EC
:1003380070C011F171C012F172C013F173C014F1E1
:1003480001010F6B106B1051120802E10F518E085A
:1003580008E3A0DF005201E004D001010F4B102B8D
:10036800F2D70101120E105D02E18F0E0F5D03E35B
:100378007B0E006E26D0668066A022D000017051E8
:100388007111721173111BE0010111511211131136
:1003980014110EE1B1C0E1FFB2C0E2FF050EE66E36
:1003A800AFC000F0B0C001F069DF010E006E09D0E7
:1003B800010E0101115F000E125B135B145BDCD7A9
:0403C800006A1200B5
:0A03CC00000E82B0010E006E120058
:0A03D600000E82B6010E006E120048
:0A03E000000E82BC010E006E120038
:0A03EA00000E82BE010E006E12002C
:0A03F400000E80B8010E006E12002A
:0A03FE00000E80B2010E006E120026
:0A040800000E82B8010E006E120013
:0A041200000E82B8010E006E120009
:0A041C00000E82B6010E006E120001
:0A042600000E84B0010E006E1200FB
:0A043000000E81B0010E006E1200F4
:0A043A00000E82B2010E006E1200E7
:0A044400000E82BA010E006E1200D5
:0A044E00000E81B2010E006E1200D4
:100458006BC011F16CC012F16DC013F16EC014F1D4
:100468009E96C5869EB620D000016B516C116D1109
:100478006E1119E0010111511211131114110CE13F
:10048800ADC0E1FFAEC0E2FF030EE66EABC000F008
:10049800ACC001F0F3DE08D0010E0101115F000EBF
:1004A800125B135B145BDED70101C9CF10F10F514A
:1004B800000A02E1C58A01D0C59A9E96C5886BC01C
:1004C80011F16CC012F16DC013F16EC014F19EB63B
:1004D80020D000016B516C116D116E1119E00101F2
:1004E80011511211131114110CE1ADC0E1FFAEC08E
:1004F800E2FF030EE66EABC000F0ACC001F0BEDE5A
:1005080008D0010E0101115F000E125B135B145B32
:08051800DED710C100F0120053
:100520009E960FC1C9FF6BC010F16CC011F16DC078
:1005300012F16EC013F1C7A422D000016B516C11EF
:100540006D116E111BE001011051111112111311E7
:100550000EE1ADC0E1FFAEC0E2FF040EE66EABC03F
:1005600000F0ACC001F08EDE010E006E3BD0010E3B
:100570000101105F000E115B125B135BDCD76BC0D7
:1005800010F16CC011F16DC012F16EC013F19EB686
:1005900022D000016B516C116D116E111BE0010135
:1005A00010511111121113110EE1ADC0E1FFAEC0D7
:1005B000E2FF040EE66EABC000F0ACC001F062DEFC
:1005C000010E006E0FD0010E0101105F000E115BD5
:1005D000125B135BDCD7C5BC02D0006A03D0C584B4
:0605E000020E006E120085
:1005E60070C011F171C012F172C013F173C014F131
:1005F600A19A6686A1BA20D00001705171117211BC
:10060600731119E0010111511211131114110CE1AA
:10061600B1C0E1FFB2C0E2FF030EE66EAFC000F06C
:10062600B0C001F02CDE08D0010E0101115F000EF2
:10063600125B135B145BDED701016ACF10F10F5119
:10064600000A02E1668A01D0669AA19A668870C09D
:1006560011F171C012F172C013F173C014F1A1BA95
:1006660020D00001705171117211731119E001014E
:1006760011511211131114110CE1B1C0E1FFB2C0F6
:10068600E2FF030EE66EAFC000F0B0C001F0F7DD8A
:1006960008D0010E0101115F000E125B135B145BA3
:0806A600DED710C100F01200C4
:0A06AE00000E86B2010E006E12006D
:1006B8000FC16AFF016A0150000A05E1000E68B027
:0C06C800010E016EF8D76ACF00F012009E
:0A06D400000E82B8010E006E120045
:0A06DE00000E86B4010E006E12003B
:1006E800A19A0FC16AFF70C010F171C011F172C0F8
:1006F80012F173C013F168A422D000017051711176
:10070800721173111BE00101105111111211131113
:100718000EE1B1C0E1FFB2C0E2FF040EE66EAFC069
:1007280000F0B0C001F0AADD010E006E3BD0010E52
:100738000101105F000E115B125B135BDCD770C008
:1007480010F171C011F172C012F173C013F1A1BAA6
:1007580022D0000170517111721173111BE0010157
:1007680010511111121113110EE1B1C0E1FFB2C005
:10077800E2FF040EE66EAFC000F0B0C001F07EDD0F
:10078800010E006E0FD0010E0101105F000E115B0B
:10079800125B135BDCD766BC02D0006A03D06684A8
:0607A800020E006E1200BB
:1007AE0070C00FF171C010F172C011F173C012F16F
:1007BE00668266A220D00001705171117211731100
:1007CE0019E001010F511011111112110CE1B1C0FC
:1007DE00E1FFB2C0E2FF060EE66EAFC000F0B0C0A1
:1007EE0001F049DD08D0010E01010F5F000E105B14
:0807FE00115B125BDED7120053
:0408060066841200F2
:10080A000FC1C9FF016A0150000A05E1000EC7B015
:0C081A00010E016EF8D7C9CF00F01200EB
:0A082600000E82B6010E006E1200F3
:100830006BC011F16CC012F16DC013F16EC014F1F8
:1008400001010F6B106B1051120802E10F518E085D
:1008500008E30BDD005201E004D001010F4B102B27
:10086000F2D70101120E105D02E18F0E0F5D03E35E
:100870007B0E006E26D0C580C5A022D000016B5132
:100880006C116D116E111BE0010111511211131148
:1008900014110EE1ADC0E1FFAEC0E2FF050EE66E41
:1008A000ABC000F0ACC001F0EDDC010E006E09D071
:1008B000010E0101115F000E125B135B145BDCD7AC
:0408C000006A1200B8
:0408C400C5841200D5
:1008C8006BC00FF16CC010F16DC011F16EC012F168
:1008D800C582C5A220D000016B516C116D116E113B
:1008E80019E001010F511011111112110CE1ADC0E5
:1008F800E1FFAEC0E2FF060EE66EABC000F0ACC092
:1009080001F0BCDC08D0010E01010F5F000E105B86
:08091800115B125BDED7120037
:0A092000000E82B6010E006E1200F8
:0A092A00000E82BC010E006E1200E8
:0A093400000E80B4010E006E1200E8
:0A093E00000E82B8010E006E1200D8
:0A094800000E84B4010E006E1200D0
:0A095200000E82B8010E006E1200C4
:0A095C00000E82BA010E006E1200B8
:0A096600000E86B0010E006E1200B4
:0A097000000E81B4010E006E1200AB
:0A097A00000E82B8010E006E12009C
:0A098400000E84B6010E006E120092
:0A098E00000E82BE010E006E120082
:0A099800000E82B6010E006E120080
:1009A20005C109F106C10AF107C100F008C101F051
:1009B200010E0101075F000E085B0050011014E0F8
:1009C200B9C0E1FFBAC0E2FFE66AB7C000F0B8C042
:1009D20001F057DC09C1E1FF0AC1E2FF00C0E6FFF6
:0A09E2000101094B0A2BE0D71200B7
:1009EC000101056B066B8BC000F08CC001F044DC80
:1009FC0000C005F1000E0101066F05C100F006C133
:040A0C0001F01200E3
:100A100001010D6B0E6B06C10BF107C10CF105C195
:100A200000F0003600900080A4C0E1FFA5C0E2FF06
:100A300000C0E6FFA2C000F0A3C001F023DC00501C
:100A400001010D13000E0E13010E085F000E095B6D
:100A50000851091115E0A8C0E1FFA9C0E2FF010E8D
:100A6000E66EA6C000F0A7C001F00CDC0BC1E1FFF0
:100A70000CC1E2FF00C0E6FF01010B4B0C2BE4D7D9
:100A8000A8C0E1FFA9C0E2FFE66AA6C000F0A7C0C7
:100A900001F042EC01F00BC1E1FF0CC1E2FF00C02C
:100AA000E6FF01010A51000A06E193C000F094C07C
:100AB00001F042EC01F001010A51010A06E18FC088
:100AC00000F090C001F042EC01F00DC100F00EC149
:040AD00001F012001F
:100AD40001010D6B0E6B06C10BF107C10CF105C1D1
:100AE40000F000360090A4C0E1FFA5C0E2FF00C002
:100AF400E6FFA2C000F0A3C001F042EC01F00050F8
:100B040001010D13000E0E1308C100F009C101F01C
:100B1400010E085F000E095B0050011018E0A4C02C
:100B2400E1FFA5C0E2FF0BC1E9FF0CC1EAFFEECF74
:100B3400E6FFA2C000F0A3C001F042EC01F00050B7
:100B440001010D13000E0E130B4B0C2BDDD70A51B4
:100B5400000A06E193C000F094C001F042EC01F0F9
:100B640001010A51010A06E18BC000F08CC001F0BA
:0E0B740042EC01F00DC100F00EC101F01200C4
:100B820005C109F106C10AF107C100F008C101F06F
:100B9200010E0101075F000E085B0050011014E016
:100BA200C5C0E1FFC6C0E2FF09C1E9FF0AC1EAFF11
:100BB200EECFE6FFC3C000F0C4C001F042EC01F08A
:0A0BC2000101094B0A2BE0D71200D5
:100BCC0000C101F10001AA51020A1CE109DFA1C018
:100BDC0005F1010E066F010E076F010E086F000E76
:100BEC00096F010E0A6F70DFA1C005F1020E010141
:100BFC00066F010E076F010E086F000E096F0A6B6E
:100C0C0001DF46D0800E01010011016FE1C0E1FF50
:100C1C00E2C0E2FFE66ADFC000F0E0C001F042ECA7
:100C2C0001F0BDC0E1FFBEC0E2FF010EE66EBBC02D
:100C3C0000F0BCC001F042EC01F0010E0101056FA7
:100C4C00010E066F010E076F000E086F94DFBDC01A
:100C5C00E1FFBEC0E2FFE66ABBC000F0BCC001F021
:100C6C0042EC01F0020E0101056F010E066F010E40
:100C7C00076F000E086F8FDEE1C0E1FFE2C0E2FFFC
:100C8C00010EE66EDFC000F0E0C001F042EC01F0B6
:060C9C0002C100F012008D
:100CA2006A0E0001D76F020ED86F000ED96F000EC8
:100CB200DA6F300ED36F080ED46F000ED56F000EB0
:100CC200D66FC80EEB6F080EEC6F000EED6F000EC4
:100CD200EE6F580EE76F040EE86F0F0EE96F010E0C
:100CE200EA6F200EE36F050EE46F0F0EE56F010E43
:100CF200E66FC40ECF6F080ED06F000ED16F000EDC
:100D0200D26F949894968B988B9694889486C79E6B
:080D1200C79C380EC66E1200EA
:100D1A00B20E0001C76F010EC86F150EC96F010E22
:100D2A00CA6FD40ECB6F020ECC6F000ECD6F000EC1
:100D3A00CE6F240EBF6F030EC06F000EC16F000E80
:100D4A00C26FCA0EB36F020EB46F000EB56F000EFB
:100D5A00B66FAC8A900EAB6E948E949C9EAA03D00A
:080D6A00AECF00F0FBD7120030
:100D7200CE0E0001C76F010EC86F150EC96F010EAE
:100D8200CA6FB60ECB6F020ECC6F000ECD6F000E87
:100D9200CE6FFC0EBF6F020EC06F000EC16F000E51
:100DA200C26FF00EB36F020EB46F000EB56F000E7D
:100DB200B66F0F01218B900E226F98849892A4AA8D
:0A0DC20003D01DCF00F0FBD7120094
:100DCC00086A096A100E0C6E013408360936045094
:100DDC00085E0550D8A0053C095ED8B007D0045079
:100DEC0008260550D8B0053C0926D89000360136A7
:060DFC000C2EEAD71200E4
:100E020021D0CF0EAF6EAC9487DF6BD0670EAF6E82
:100E1200AC9482DF66D0CF0EAF6EAC847DDF61D042
:100E2200670EAF6EAC8478DF5CD0440EAF6EAC84DC
:100E320073DF57D0220EAF6EAC846EDF52D0060E37
:100E4200006E58D00001000E006EFC1908E100503F
:100E5200FB1905E1120EFA1902E1F951C00AD1E0BB
:100E6200000E006EFC1908E10050FB1905E1250E89
:100E7200FA1902E1F951800AC9E0000E006EFC196C
:100E820008E10050FB1905E14B0EFA1902E1F95194
:100E9200000AC1E0000E006EFC1908E10050FB19C7
:100EA20005E1960EFA1902E1F951000AB9E0000EC5
:100EB200006EFC1908E10050FB1905E1E10EFA1978
:100EC20002E1F951000AB1E0FC51000A08E1FB51CC
:100ED200010A05E1FA51C20A02E1F951000AAAE047
:100EE200AED7B20EDB6F010EDC6F150EDD6F010E99
:060EF200DE6F006A120031
:100EF800F9C0FCF0FAC0FDF0FBC0FEF00BD0A00E6C
:100F0800C86ECBDE44D0280EC86EC7DE40D0040EB3
:100F1800006E3FD0FCC0F6FFFDC0F7FFFEC0F8FF33
:100F28000900F5CF01F00900F5CF02F00900F5CF6F
:100F380003F00900F5CF04F00450000A08E103505B
:100F4800010A05E10250860A02E10150A00AD7E031
:100F5800FCC0F6FFFDC0F7FFFEC0F8FF0900F5CFA3
:100F680001F00900F5CF02F00900F5CF03F0090000
:100F7800F5CF04F00450000A08E10350060A05E121
:100F880002501A0A02E10150800ABDE0C0D7000EE3
:040F9800006E1200D5
:100F9C0021D0CF0EAF6EAC94BADE6BD0670EAF6EB5
:100FAC00AC94B5DE66D0CF0EAF6EAC84B0DE61D043
:100FBC00670EAF6EAC84ABDE5CD0440EAF6EAC840F
:100FCC00A6DE57D0220EAF6EAC84A1DE52D0060E38
:100FDC00006E58D00001000E006EFC1908E10050A4
:100FEC00FB1905E1120EFA1902E1F951C00AD1E020
:100FFC00000E006EFC1908E10050FB1905E1250EEE
:10100C00FA1902E1F951800AC9E0000E006EFC19D0
:10101C0008E10050FB1905E14B0EFA1902E1F951F8
:10102C00000AC1E0000E006EFC1908E10050FB192B
:10103C0005E1960EFA1902E1F951000AB9E0000E29
:10104C00006EFC1908E10050FB1905E1E10EFA19DC
:10105C0002E1F951000AB1E0FC51000A08E1FB5130
:10106C00010A05E1FA51C20A02E1F951000AAAE0AB
:10107C00AED7B20EDB6F010EDC6F150EDD6F010EFD
:06108C00DE6F006A120095
:101092000001FD6B050EFD5D0AE2FD51FB25E16ECF
:1010A200000EFC21E26E200EE66EFD2BF3D7FD5101
:1010B200FB25E16E000EFC21E26EE66AFD07FD51A2
:1010C200FB25FE6F000EFC21FF6F0A0E046E000E60
:1010D200056EF9C000F0FAC001F077DE08C000F03A
:1010E20009C001F0300E0026FEC0E1FFFFC0E2FFA2
:1010F20000C0E6FF0A0E046E000E056EF9C000F095
:10110200FAC001F062DE00C0F9F001C0FAF0000E90
:10111200011802E1000E001801E102D0FD07CFD74D
:021122001200B9
:1011240038D00F0120870D0E1F6F040E1E6F21850E
:101134001EDE7ED00F012087060E1F6F820E1E6FEB
:10114400218515DE75D00F012087030E1F6F400E19
:101154001E6F21850CDE6CD00F012087010E1F6FDE
:10116400A00E1E6F218503DE63D00F012087010EC0
:101174001F6F150E1E6F2185FADD5AD00F012087CF
:101184001F6B8A0E1E6F2185F2DD52D0060E006E93
:1011940059D0000E006E0001FC1908E10050FB1943
:1011A40005E1120EFA1902E1F951C00ABAE0000E83
:1011B400006EFC1908E10050FB1905E1250EFA192F
:1011C40002E1F951800AB6E0000E006EFC1908E154
:1011D4000050FB1905E14B0EFA1902E1F951000A1E
:1011E400B2E0000E006EFC1908E10050FB1905E1A5
:1011F400960EFA1902E1F951000AAEE0000E006EF3
:10120400FC1908E10050FB1905E1E10EFA1902E1AD
:10121400F951000AAAE0FC51000A08E1FB51010A55
:1012240005E1FA51C20A02E1F951000AA7E0AED77A
:101234000001CE0EDB6F010EDC6F150EDD6F010EAB
:06124400DE6F006A1200DB
:10124A00F9C0FCF0FAC0FDF0FBC0FEF00BD0A00E16
:10125A00C86E22DD44D0280EC86E1EDD40D0040EB2
:10126A00006E3FD0FCC0F6FFFDC0F7FFFEC0F8FFDE
:10127A000900F5CF01F00900F5CF02F00900F5CF1A
:10128A0003F00900F5CF04F00450000A08E1035006
:10129A00010A05E10250860A02E10150A00AD7E0DC
:1012AA00FCC0F6FFFDC0F7FFFEC0F8FF0900F5CF4E
:1012BA0001F00900F5CF02F00900F5CF03F00900AB
:1012CA00F5CF04F00450000A08E10350060A05E1CC
:1012DA0002501A0A02E10150800ABDE0C0D7000E8E
:0412EA00006E120080
:1012EE0059D00001FAB102D0929201D092820F0130
:1012FE00259376D00001FAB102D0929801D092884F
:10130E006FD00001FAB102D0969201D0968268D0C9
:10131E000001FAB102D0949601D0948661D00001FA
:10132E00FAB102D0949801D094885AD00001FAB143
:10133E0002D0949A01D0948A53D00001FAB102D00F
:10134E00949401D094844CD00001FAB102D09392BF
:10135E0001D0938245D00001FAB102D0949E01D003
:10136E00948E3ED00001FAB102D0949C01D0948CA0
:10137E0037D00001FAB102D0949601D0948630D0C5
:10138E000001FAB102D0949801D0948829D0010EB0
:10139E00006E28D00001F951000AA3E0F951010AAC
:1013AE00A9E0F951020AADE0F951030AB1E0F95191
:1013BE00040AB5E0F951050AB9E0F951060ABDE093
:1013CE00F951070AC1E0F951080AC5E0F951090AB5
:1013DE00C9E0F9510A0ACDE0F9510B0AD1E0D7D78D
:0613EE00000E006E12006B
:1013F40059D00001FAB102D0929001D092800F012D
:10140400259176D00001FAB102D0949001D0948055
:101414006FD00001FAB102D0969001D0968068D0C6
:101424000001FAB102D0949601D0948661D00001F3
:10143400FAB102D0949801D094885AD00001FAB13C
:1014440002D0949A01D0948A53D00001FAB102D008
:10145400949201D094824CD00001FAB102D09390BE
:1014640001D0938045D00001FAB102D0949E01D0FE
:10147400948E3ED00001FAB102D0949C01D0948C99
:1014840037D00001FAB102D0949601D0948630D0BE
:101494000001FAB102D0949801D0948829D0010EA9
:1014A400006E28D00001F951000AA3E0F951010AA5
:1014B400A9E0F951020AADE0F951030AB1E0F9518A
:1014C400040AB5E0F951050AB9E0F951060ABDE08C
:1014D400F951070AC1E0F951080AC5E0F951090AAE
:1014E400C9E0F9510A0ACDE0F9510B0AD1E0D7D786
:0614F400000E006E120064
:1014FA005DD00001FAB102D0929401D092840F011A
:10150A0025957AD00001FAB102D0969601D0968636
:10151A0073D00001FAB102D0969401D096846CD0AF
:10152A000001FAB102D0949601D0948665D00001E8
:10153A00FAB102D0949801D094885ED00001FAB131
:10154A0002D0949A01D0948A57D00001FAB102D0FD
:10155A00989001D0988050D00001FAB102D09394AB
:10156A0001D0938449D00001FAB102D0989401D0F5
:10157A0098840F01239540D00001FAB102D09892C5
:10158A0001D098820F01239337D00001FAB102D01B
:10159A00949601D0948630D00001FAB102D0949882
:1015AA0001D0948829D0010E006E28D00001F9518B
:1015BA00000A9FE0F951010AA5E0F951020AA9E0DF
:1015CA00F951030AADE0F951040AB1E0F951050AEB
:1015DA00B5E0F951060AB9E0F951070ABDE0F95137
:1015EA00080AC1E0F951090AC7E0F9510A0ACDE02F
:0E15FA00F9510B0AD1E0D7D7000E006E120097
:10160800F9C0FAF00001AA51020A1FE1F6EC04F051
:10161800A1C005F1FA0E066F000E076F010E086FE4
:10162800000E096F010E0A6F6AEC05F0A1C005F102
:10163800FB0E0101066F000E076F020E086F000E09
:10164800096F0A6B08EC05F091D0800E0001F911C2
:10165800FA6FE1C0E1FFE2C0E2FFE66ADFC000F036
:10166800E0C001F042EC01F0BDC0E1FFBEC0E2FF06
:10167800010EE66EBBC000F0BCC001F042EC01F008
:10168800FA0E0101056F000E066F010E076F000EBE
:10169800086FC1EC05F0BDC0E1FFBEC0E2FFE66A1D
:1016A800BBC000F0BCC001F042EC01F0FB0E010130
:1016B800056F000E066F010E076F000E086FD1EC64
:1016C80004F0E1C0E1FFE2C0E2FF010EE66EDFC018
:1016D80000F0E0C001F042EC01F00001F951010F07
:1016E800FA6FFA8FE1C0E1FFE2C0E2FFE66ADFC00D
:1016F80000F0E0C001F042EC01F0BDC0E1FFBEC067
:10170800E2FF010EE66EBBC000F0BCC001F042EC87
:1017180001F0FA0E0101056F000E066F010E076F4A
:10172800000E086FC1EC05F0BDC0E1FFBEC0E2FFCE
:10173800E66ABBC000F0BCC001F042EC01F0FC0E50
:101748000101056F000E066F010E076F000E086F8E
:10175800D1EC04F0E1C0E1FFE2C0E2FF010EE66E69
:10176800DFC000F0E0C001F042EC01F0FCC0FDF089
:10177800000E0001FE6FFDC001F0006A00C0FDF020
:1017880001C0FEF0FB510012000E011200C0FDF076
:0617980001C0FEF012008A
:10179E00F9C0FCF0FAC0FDF0FBC0FEF00DD0A00EBB
:1017AE00C86E51EC06F045D0280EC86E51EC06F00E
:1017BE0040D0040E006E3FD0FCC0F6FFFDC0F7FF18
:1017CE00FEC0F8FF0900F5CF01F00900F5CF02F0D9
:1017DE000900F5CF03F00900F5CF04F00450000A1C
:1017EE0008E10350010A05E10250860A02E10150A8
:1017FE00A00AD5E0FCC0F6FFFDC0F7FFFEC0F8FF63
:10180E000900F5CF01F00900F5CF02F00900F5CF80
:10181E0003F00900F5CF04F00450000A08E103506C
:10182E00060A05E102501A0A02E10150800ABCE0E4
:08183E00C0D7000E006E12007D
:1018460027D0CF0EAF6EAC948DEC06F070D0670E3D
:10185600AF6EAC948DEC06F06AD0CF0EAF6EAC8452
:101866008DEC06F064D0670EAF6EAC848DEC06F09E
:101876005ED0440EAF6EAC848DEC06F058D0220ECE
:10188600AF6EAC848DEC06F052D0060E006E58D0CA
:101896000001000E006EFC1908E10050FB1905E17D
:1018A600120EFA1902E1F951C00ACBE0000E006EE1
:1018B600FC1908E10050FB1905E1250EFA1902E1B1
:1018C600F951800AC4E0000E006EFC1908E10050D0
:1018D600FB1905E14B0EFA1902E1F951000ABDE0C8
:1018E600000E006EFC1908E10050FB1905E1960E8A
:1018F600FA1902E1F951000AB6E0000E006EFC1971
:1019060008E10050FB1905E1E10EFA1902E1F9516F
:10191600000AAFE0FC51000A08E1FB51010A05E1AB
:10192600FA51C20A02E1F951000AA9E0AED7B20E95
:10193600DB6F010EDC6F150EDD6F010EDE6F006AC8
:0219460012008D
:10194800300E0001F925006E000EFA21016E000E1E
:10195800FB21026E1C0E0024F66E000E0120F76EAD
:10196800000E0220F86E0900F5CF9DF00900F5CFB2
:101978009EF00900F5CF9FF00900F5CFA0F0080E02
:10198800F925F66E000EFA21F76E000EFB21F86EAF
:101998000900F5CFDFF00900F5CFE0F00900F5CF39
:1019A800E1F00900F5CFE2F0040EF925F66E000E1D
:1019B800FA21F76E000EFB21F86E0900F5CFBBF097
:1019C8000900F5CFBCF00900F5CFBDF00900F5CF4F
:0419D800BEF012004B
:1019DC00F9C0F6FFFAC0F7FFFBC0F8FF0900F5CF1E
:1019EC008BF00900F5CF8CF00900F5CF8DF00900D4
:1019FC00F5CF8EF0040E0001F925F66E000EFA21DB
:101A0C00F76E000EFB21F86E0900F5CF93F009007C
:101A1C00F5CF94F00900F5CF95F00900F5CF96F0CD
:101A2C00080EF925F66E000EFA21F76E000EFB215A
:101A3C00F86E0900F5CF8FF00900F5CF90F0090092
:101A4C00F5CF91F00900F5CF92F00C0EF925F66E5A
:101A5C00000EFA21F76E000EFB21F86E0900F5CF8F
:101A6C00A2F00900F5CFA3F00900F5CFA4F009000E
:101A7C00F5CFA5F0100EF925F66E000EFA21F76ED3
:101A8C00000EFB21F86E0900F5CFA6F00900F5CF8A
:101A9C00A7F00900F5CFA8F00900F5CFA9F01200C6
:101AAC000001FA6BFA6B0A0EFA5D10E2670E010187
:101ABC00006FE6EC05F00001F9510014016E0150C5
:101ACC00000A02E0006A04D0FA2BEDD7010E006E7A
:021ADC001200F6
:101ADE00F9C0FBF0FAC0FCF00001AA51020A10E1B5
:101AEE00F6EC04F0A1C005F1FB0E066F000E076FB9
:101AFE00020E086F000E096F0A6B6AEC05F02ED00D
:101B0E00BDC0E1FFBEC0E2FF010EE66EBBC000F03D
:101B1E00BCC001F042EC01F0E1C0E1FFE2C0E2FF27
:101B2E00E66ADFC000F0E0C001F042EC01F0FB0E0F
:101B3E000101056F000E066F020E076F000E086F93
:101B4E00C1EC05F0E1C0E1FFE2C0E2FF010EE66E7E
:0E1B5E00DFC000F0E0C001F042EC01F0120028
:101B6C00DDC0E1FFDEC0E2FFF9C0E9FFFAC0EAFF29
:101B7C00EECFE6FFDBC000F0DCC001F042EC01F080
:041B8C00006A1200D9
:101B90000001EF51680A06E1010EF96F87DF00C00E
:101BA000F0F011D0EF516A0A06E1020EF96F7EDF04
:101BB00000C0F0F008D0EF516C0A05E1040EF96F97
:101BC00075DF00C0F0F0F051000A04E1EFC0F9F059
:0E1BD0001BDD04D0010E006E000E016E12002F
:101BDE001DD0F0C0F9F0F1C0FAF0F2C0FBF0D8DD84
:101BEE0020D0F0C0F9F0F1C0FAF0F2C0FBF025EC15
:101BFE0009F017D0F0C0F9F0F1C0FAF0F2C0FBF026
:101C0E007CEC07F00ED0010E006E0BD00001EF51F0
:101C1E00000ADFE0EF51010AE4E0EF51020AEAE0C8
:041C2E00F2D71200D7
:101C320017D0F0C0F9F0F1C0FAF0FAEC09F01BD0BD
:101C4200F0C0F9F0F1C0FAF077EC09F014D0F0C06E
:101C5200F9F0F1C0FAF050DC0ED0010E006E0BD09C
:101C62000001EF51000AE5E0EF51010AE9E0EF510E
:081C7200020AEDE0F2D71200B6
:101C7A00EFC0F2F0F0C0F3F00D0E0001F46F0A0E9F
:101C8A00F56F35D0F2C0F9F0F3C0FAF06ADF3AD056
:101C9A00F2C0E9FFF3C0EAFFEE5209E0F2C0F9F040
:101CAA00F3C0FAF05EDF0001F24BF32BF1D72AD032
:101CBA00F2C0E9FFF3C0EAFFEE5209E0F2C0F9F020
:101CCA00F3C0FAF04EDF0001F24BF32BF1D700011B
:101CDA00F40EF96F000EFA6F44DFF50E0001F96F8A
:101CEA00000EFA6F3EDF0ED0060E006E0CD0000119
:101CFA00F151000AC7E0F151010ACAE0F151020AA2
:081D0A00D7E0F2D7006A1200D5
:101D1200F5C0A1F0020E0001AA6FF2C0F9F0F3C003
:101D2200FAF0F4C0FBF059DEEFC0F9F0F0C0FAF0BF
:101D3200F1C0FBF008DEE1C0E1FFE2C0E2FF010E0C
:101D4200E66EDFC000F0E0C001F042EC01F01200EC
:101D52000001F56BF66BEFC0F7F0F0C0F8F0800E03
:101D6200F019006E800E005C02E1000EEF5D0BE2E6
:101D7200010EF56F000EF66FEF510008F76FF0C01D
:101D8200F8F0000EF857F7C0F9F0F8C0FAF0F1C019
:101D9200FBF0F2C0FCF049EC08F0060EF36F000E07
:101DA200F46F000E006EF451005C02E1F351000882
:101DB20019E2F351F125E16EF451F221E26E010EC6
:101DC200F35D006E000EF459016E0050F125E96ECC
:101DD2000150F221EA6EEECFE6FF010EF35F000E34
:101DE200F45BDFD7F1C0E1FFF2C0E2FF200EE66E46
:101DF200F551F6111AE0F36BF46BF351F125E96E2C
:101E0200F451F221EA6EEE50200A03E1F34BF42B77
:101E1200F4D7010EF35F000EF45BF351F125E16E8E
:0C1E2200F451F221E26E2D0EE66E12006B
:101E2E002ED0F0C0F9F0F1C0FAF0F2C0FBF0F3C022
:101E3E00FCF001EC07F031D0F0C0F9F0F1C0FAF08F
:101E4E00F2C0FBF0F3C0FCF0CEEC07F026D0F0C0F1
:101E5E00F9F0F1C0FAF0F2C0FBF0F3C0FCF092EC36
:101E6E0008F01BD0F0C0F9F0F1C0FAF0F2C0FBF0B0
:101E7E00F3C0FCF0E1DC11D0010E006E0ED00001BB
:101E8E00EF51000ACEE0EF51010AD6E0EF51020AFF
:0C1E9E00DEE0EF51100AE6E0EFD7120082
:101EAA004F0E0101006FE6EC05F00050400A03E016
:101EBA006FC000F00ED0600E0001F96F800EFA6F4D
:101ECA0009DE620E0001F96F010EFA6F03DE74C0BB
:041EDA0000F0120002
:101EDE000001EF6B070EF06F010EF16FA3DE000134
:101EEE00EF6B020EF06FF16B9DDE0001EF6B010EDA
:101EFE00F06FF16B97DE0001EF6B700EF06F210E3D
:101F0E00F16F000EF26F64DE100E0001EF6F800EA7
:101F1E00F06F250EF16F000EF26FF36F81DF750E0D
:101F2E000001EF6F000EF06F020EF16F9FDE090ED3
:101F3E000B6E1E0E0C6EE40E0D6E0D2EFED70C2EBD
:0A1F4E00FCD70B2EFAD7000012009A
:101F58000900F5CFE6FF0006FBE10106F9E11200F2
:101F6800FC0E0001EF6F200EF06F000EF16F5C0E9B
:101F7800F26F210EF36F000EF46F1E0EF56FC5DEC3
:041F880090DF1200D4
:101F8C00680E0001EF6FFEDD00C099F001C09AF001
:101F9C00230EEF6F000EF06F010EF16F68DE99C02B
:101FAC00EFF09AC0F0F02E0E0001F16F000EF26F00
:101FBC00CADE2E0EEF6F000EF06F020EF16F57DEC1
:101FCC006A0E0001EF6FDEDD00C09BF001C09CF0DB
:101FDC00600EEF6F000EF06F010EF16F48DE9BC0CC
:101FEC00EFF09CC0F0F02E0E0001F16F000EF26FBE
:101FFC00AADE2E0EEF6F000EF06F020EF16F37DEC1
:10200C006C0E0001EF6FBEDD00C097F001C098F0C0
:10201C00180EEF6F000EF06F010EF16F28DE97C0F7
:10202C00EFF098C0F0F02E0E0001F16F000EF26F81
:10203C008ADE2E0EEF6F000EF06F020EF16F17DEC0
:10204C00150E0001EF6F000EF06F020EF16F0FDE38
:10205C00520E0B6E2B0E0C6E000E0D6E0D2EFED74F
:0C206C000C2EFCD70B2EFAD7000012003F
:0E207800BAEC10F030DF74DF85DFFED7FFD743
:1021740010EE15F0760E006E010E016E860EF66EF0
:0E218400200EF76E000EF86EACEC0FF012009D
:0320860020200017
:0B208900205A2061786973203A200083
:0B20940020582061786973203A20007A
:10209F000000000000000000000000000000000031
:1020AF000000000000000000000000000000000021
:1020BF000000000000000000000000000000000011
:0220CF0000000F
:0B20D10020592061786973203A20003C
:0420DC000000000000
:0120E00002FD
:0420E10000000000FB
:0120E50000FA
:1020E600202D2D2D2053797374656D20696E6974CA
:0620F600202D2D2D20001D
:1020FC00C0011501420115013401150150011501F2
:10210C006C0115015E011501320215012402150145
:10211C00400215015C0215014E021501EC0115017E
:10212C00E6020000CC030000260400001C040000A2
:10213C0012040000440400003A04000030040000C3
:10214C00EA030000E0030000D603000008040000CE
:10215C0030080000C4080000C808000020050F016A
:04216C0058040F0103
:04217000801A0600CB
:020000040030CA
:0E00000015137F7CF98B91FFFFC0FFE0FF40DE
:00000001FF
