:1000000083EF0FF00000000000EF00F000000000A0
:0A0010000000000000000000F3D71C
:0E001C00010100B102D08B9601D08B8612003C
:0E002A00010100B102D08B9C01D08B8C120022
:0E003800010100B102D08B9801D08B8812001C
:0E004600010100B102D08D9601D08D8612000E
:0E005400010100B102D0899401D0898412000C
:0E006200010100B102D08B9A01D08B8A1200EE
:0E007000010100B102D08B9801D08B881200E4
:0E007E00010100B102D08B9401D08B841200DE
:0E008C00010100B102D08B9E01D08B8E1200BC
:0E009A00010100B102D08A9201D08A821200C8
:0E00A800010100B102D08F9401D08F841200AC
:0E00B600010100B102D08A9401D08A841200A8
:0E00C400010100B102D08F9201D08F82120094
:0E00D200010100B102D08B9801D08B88120082
:0E00E000010100B102D08B9601D08B86120078
:0E00EE00010100B102D08B9601D08B8612006A
:0E00FC00010100B102D08D9401D08D8412005C
:0E010A00010100B102D08B9801D08B88120049
:0E011800010100B102D08F9001D08F80120043
:0E012600010100B102D08B9A01D08B8A120029
:0E013400010100B102D08D9001D08D8012002B
:0E014200010100B102D08B9001D08B80120021
:0E015000010100B102D08B9601D08B86120007
:0E015E00010100B102D08B9A01D08B8A1200F1
:0E016C00010100B102D08B9801D08B881200E7
:10017A0000C16AFF016A0150000A05E1000E68B079
:0C018A00010E016EF8D76ACF01F01200E0
:1001960000C1C9FF016A0150000A05E1000EC7B09F
:0C01A600010E016EF8D7C9CF01F0120065
:0E01B200ACB202D00000FCD700C1ADFF1200BD
:0E01C000010100B102D0899001D089801200A7
:1001CE000F0121B302D00000FBD700C11CFF1200AB
:0E01DE00010100B102D0899201D08982120085
:0E01EC00010100B102D08B9801D08B88120067
:0E01FA00010100B102D0899801D0898812005D
:0E020800010100B102D08B9601D08B8612004E
:0E021600010100B102D08D9201D08D82120044
:0E022400010100B102D08A9001D08A80120040
:0E023200010100B102D08B9201D08B8212002C
:0E024000010100B102D08B9E01D08B8E120006
:0E024E00010100B102D08B9601D08B86120008
:0E025C00010100B102D08B9C01D08B8C1200EE
:10026A00C7B409D01F0EC514016E0150000A03E17C
:0A027A00010E006E01D0006A1200B0
:10028400F250026EF29E0500FF6A0150FE6E0050AD
:08029400FD6E02BEF28E1200A5
:10029C0068B409D01F0E6614016E0150000A03E108
:0A02AC00010E006E01D0006A12007E
:1002B6001DCF01F00F0122A302D02299228901C08D
:0402C60000F0120032
:0A02CA00000EACB2010E006E12002F
:1002D400AECF01F0ABA202D0AB98AB8801C000F066
:0202E400120006
:0A02E600000E80B0010E006E120041
:0C02F000000E0F0121B3010E006E120081
:0A02FC00000EA4BA010E006E1200FD
:0A030600000E84B2010E006E12001A
:0A031000000E82B6010E006E12000E
:0A031A00000E82B4010E006E120006
:0A032400000E9EBA010E006E1200DA
:0A032E00000E82BA010E006E1200EC
:1003380082C001F183C002F184C003F185C004F1D9
:100348000001FE6BFF6BFF51120802E1FE518E089F
:1003580008E3A0DF005201E004D00001FE4BFF2BB0
:10036800F2D70001120EFF5D02E18F0EFE5D03E37E
:100378007B0E006E26D0668066A022D000018251D6
:100388008311841185111BE0010101510211031130
:1003980004110EE1D9C0E1FFDAC0E2FF050EE66EF6
:1003A800D7C000F0D8C001F069DF010E006E09D097
:1003B800010E0101015F000E025B035B045BDCD7E9
:0403C800006A1200B5
:0A03CC00000E82B0010E006E120058
:0A03D600000E82B6010E006E120048
:0A03E000000E82BC010E006E120038
:0A03EA00000E82BE010E006E12002C
:0A03F400000E80B8010E006E12002A
:0A03FE00000E80B2010E006E120026
:0A040800000E82B8010E006E120013
:0A041200000E82B8010E006E120009
:0A041C00000E82B6010E006E120001
:0A042600000E84B0010E006E1200FB
:0A043000000E81B0010E006E1200F4
:0A043A00000E82B2010E006E1200E7
:0A044400000E82BA010E006E1200D5
:0A044E00000E81B2010E006E1200D4
:1004580087C001F188C002F189C003F18AC004F1A4
:100468009E96C5869EB620D00001875188118911B5
:100478008A1119E0010101510211031104110CE163
:10048800D5C0E1FFD6C0E2FF030EE66ED3C000F090
:10049800D4C001F0F3DE08D0010E0101015F000EA7
:1004A800025B035B045BDED7C9CFFFF00001FE519E
:1004B800000A02E1C58A01D0C59A9E96C58887C000
:1004C80001F188C002F189C003F18AC004F19EB627
:1004D80020D000018751881189118A1119E0010182
:1004E80001510211031104110CE1D5C0E1FFD6C07E
:1004F800E2FF030EE66ED3C000F0D4C001F0BEDE0A
:1005080008D0010E0101015F000E025B035B045B72
:08051800DED7FFC000F0120065
:100520009E96FEC0C9FF87C001F188C002F189C054
:1005300003F18AC004F1C7A422D0000187518811B9
:1005400089118A111BE001010151021103110411EB
:100550000EE1D5C0E1FFD6C0E2FF040EE66ED3C0C7
:1005600000F0D4C001F08EDE010E006E3BD0010E13
:100570000101015F000E025B035B045BDCD787C0F7
:1005800001F188C002F189C003F18AC004F19EB66E
:1005900022D000018751881189118A111BE00101C5
:1005A00001510211031104110EE1D5C0E1FFD6C0C3
:1005B000E2FF040EE66ED3C000F0D4C001F062DEAC
:1005C000010E006E0FD0010E0101015F000E025BF3
:1005D000035B045BDCD7C5BC02D0006A03D0C584D2
:0605E000020E006E120085
:1005E60082C001F183C002F184C003F185C004F129
:1005F600A19A6686A1BA20D0000182518311841186
:10060600851119E0010101510211031104110CE1D8
:10061600D9C0E1FFDAC0E2FF030EE66ED7C000F0F4
:10062600D8C001F02CDE08D0010E0101015F000EDA
:10063600025B035B045BDED76ACFFFF00001FE516D
:10064600000A02E1668A01D0669AA19A668882C08B
:1006560001F183C002F184C003F185C004F1A1BA9F
:1006660020D00001825183118411851119E0010106
:1006760001510211031104110CE1D9C0E1FFDAC0E6
:10068600E2FF030EE66ED7C000F0D8C001F0F7DD3A
:1006960008D0010E0101015F000E025B035B045BE3
:0806A600DED7FFC000F01200D6
:0A06AE00000E86B2010E006E12006D
:1006B800FEC06AFF016A0150000A05E1000E68B039
:0C06C800010E016EF8D76ACF00F012009E
:0A06D400000E82B8010E006E120045
:0A06DE00000E86B4010E006E12003B
:1006E800A19AFEC06AFF82C001F183C002F184C0F2
:1006F80003F185C004F168A422D00001825183115E
:10070800841185111BE0010101510211031104112B
:100718000EE1D9C0E1FFDAC0E2FF040EE66ED7C0F1
:1007280000F0D8C001F0AADD010E006E3BD0010E2A
:100738000101015F000E025B035B045BDCD782C032
:1007480001F183C002F184C003F185C004F1A1BAAC
:1007580022D0000182518311841185111BE001010F
:1007680001510211031104110EE1D9C0E1FFDAC0F1
:10077800E2FF040EE66ED7C000F0D8C001F07EDDBF
:10078800010E006E0FD0010E0101015F000E025B29
:10079800035B045BDCD766BC02D0006A03D06684C6
:0607A800020E006E1200BB
:1007AE0082C001F183C002F184C003F185C004F15F
:1007BE00668266A220D000018251831184118511B8
:1007CE0019E0010101510211031104110CE1D9C00C
:1007DE00E1FFDAC0E2FF060EE66ED7C000F0D8C029
:1007EE0001F049DD08D0010E0101015F000E025B30
:0807FE00035B045BDED712006F
:0408060066841200F2
:10080A00FEC0C9FF016A0150000A05E1000EC7B027
:0C081A00010E016EF8D7C9CF00F01200EB
:0A082600000E82B6010E006E1200F3
:1008300087C001F188C002F189C003F18AC004F1C8
:100840000001FE6BFF6BFF51120802E1FE518E08A2
:1008500008E30BDD005201E004D00001FE4BFF2B4A
:10086000F2D70001120EFF5D02E18F0EFE5D03E381
:100870007B0E006E26D0C580C5A022D00001875116
:10088000881189118A111BE0010101510211031124
:1008900004110EE1D5C0E1FFD6C0E2FF050EE66E01
:1008A000D3C000F0D4C001F0EDDC010E006E09D021
:1008B000010E0101015F000E025B035B045BDCD7EC
:0408C000006A1200B8
:0408C400C5841200D5
:1008C80087C001F188C002F189C003F18AC004F130
:1008D800C582C5A220D000018751881189118A11CB
:1008E80019E0010101510211031104110CE1D5C0F5
:1008F800E1FFD6C0E2FF060EE66ED3C000F0D4C01A
:1009080001F0BCDC08D0010E0101015F000E025BA2
:08091800035B045BDED7120053
:0A092000000E82B6010E006E1200F8
:0A092A00000E82BC010E006E1200E8
:0A093400000E80B4010E006E1200E8
:0A093E00000E82B8010E006E1200D8
:0A094800000E84B4010E006E1200D0
:0A095200000E82B8010E006E1200C4
:0A095C00000E82BA010E006E1200B8
:0A096600000E86B0010E006E1200B4
:0A097000000E81B4010E006E1200AB
:0A097A00000E82B8010E006E12009C
:0A098400000E84B6010E006E120092
:0A098E00000E82BE010E006E120082
:0A099800000E82B6010E006E120080
:1009A200F4C0F8F0F5C0F9F0F6C000F0F7C001F0BD
:1009B200010E0001F65F000EF75B0050011014E01B
:1009C2009CC0E1FF9DC0E2FFE66A9AC000F09BC0B6
:1009D20001F057DCF8C0E1FFF9C0E2FF00C0E6FF1A
:0A09E2000001F84BF92BE0D71200DA
:1009EC000001F46BF56BA7C000F0A8C001F044DC6B
:1009FC0000C0F4F0000E0001F56FF4C000F0F5C07B
:040A0C0001F01200E3
:100A10000001FC6BFD6BF5C0FAF0F6C0FBF0F4C012
:100A200000F0003600900080B9C0E1FFBAC0E2FFDC
:100A300000C0E6FFB7C000F0B8C001F023DC0050F2
:100A40000001FC13000EFD13010EF75F000EF85BB2
:100A5000F751F81115E0ADC0E1FFAEC0E2FF010EA5
:100A6000E66EABC000F0ACC001F00CDCFAC0E1FFF8
:100A7000FBC0E2FF00C0E6FF0001FA4BFB2BE4D70E
:100A8000ADC0E1FFAEC0E2FFE66AABC000F0ACC0B3
:100A900001F042EC01F0FAC0E1FFFBC0E2FF00C050
:100AA000E6FF0001F951000A06E1AFC000F0B0C056
:100AB00001F042EC01F00001F951010A06E18DC09C
:100AC00000F08EC001F042EC01F0FCC000F0FDC06F
:040AD00001F012001F
:100AD4000001FC6BFD6BF5C0FAF0F6C0FBF0F4C04E
:100AE40000F000360090B9C0E1FFBAC0E2FF00C0D8
:100AF400E6FFB7C000F0B8C001F042EC01F00050CE
:100B04000001FC13000EFD13F7C000F0F8C001F063
:100B1400010EF75F000EF85B0050011018E0B9C039
:100B2400E1FFBAC0E2FFFAC0E9FFFBC0EAFFEECF83
:100B3400E6FFB7C000F0B8C001F042EC01F000508D
:100B44000001FC13000EFD13FA4BFB2BDDD7F9510A
:100B5400000A06E1AFC000F0B0C001F042EC01F0C1
:100B64000001F951010A06E1A7C000F0A8C001F094
:0E0B740042EC01F0FCC000F0FDC001F01200E8
:100B8200F4C0F8F0F5C0F9F0F6C000F0F7C001F0DB
:100B9200010E0001F65F000EF75B0050011014E039
:100BA200A4C0E1FFA5C0E2FFF8C0E9FFF9C0EAFF77
:100BB200EECFE6FFA2C000F0A3C001F042EC01F0CC
:0A0BC2000001F84BF92BE0D71200F8
:100BCC00F0C0F1F000019551020A1CE109DFA6C04A
:100BDC00F4F0F10EF56F000EF66F010EF76F000ECC
:100BEC00F86F010EF96F70DFA6C0F4F0F20E000181
:100BFC00F56F000EF66F010EF76F000EF86FF96BC4
:100C0C0001DF46D0800E0001F011F16F98C0E1FFBA
:100C1C0099C0E2FFE66A96C000F097C001F042EC82
:100C2C0001F0B5C0E1FFB6C0E2FF010EE66EB3C045
:100C3C0000F0B4C001F042EC01F0F10E0001F46FD1
:100C4C00000EF56F010EF66F000EF76F94DFB5C056
:100C5C00E1FFB6C0E2FFE66AB3C000F0B4C001F039
:100C6C0042EC01F0F20E0001F46F000EF56F010E74
:100C7C00F66F000EF76F8FDE98C0E1FF99C0E2FFB0
:100C8C00010EE66E96C000F097C001F042EC01F048
:060C9C00F2C000F012009E
:100CA2000A0E0001C36F080EC46FFE0EC56F000E60
:100CB200C66F960EBF6F010EC06F000EC16F010EA0
:100CC200C26F949AF051040A02E1948601D094967C
:100CD2009488C66AC79CC79EF051C612F251C612CA
:100CE200F151C712F25305E0F351000AD8B4C78C90
:0C0CF20003D0F353D8A4C78CC68A1200AC
:100CFE00B20E0001BB6F010EBC6F000EBD6F010E78
:100D0E00BE6FD40ECF6F020ED06F000ED16F000EDD
:100D1E00D26F240ECB6F030ECC6F000ECD6F000E74
:100D2E00CE6FCA0EC76F020EC86F000EC96F000ECF
:100D3E00CA6FAC8A900EAB6E948E949C9EAA03D012
:080D4E00AECF00F0FBD712004C
:100D5600CE0E0001BB6F010EBC6F000EBD6F010E03
:100D6600BE6FB60ECF6F020ED06F000ED16F000EA3
:100D7600D26FFC0ECB6F020ECC6F000ECD6F000E45
:100D8600CE6FF00EC76F020EC86F000EC96F000E51
:100D9600CA6F0F01218B900E226F98849892A4AA95
:0A0DA60003D01DCF00F0FBD71200B0
:100DB000086A096A100E0C6E0134083609360450B0
:100DC000085E0550D8A0053C095ED8B007D0045095
:100DD00008260550D8B0053C0926D89000360136C3
:060DE0000C2EEAD7120000
:100DE60021D0CF0EAF6EAC9487DF6BD0670EAF6E9F
:100DF600AC9482DF66D0CF0EAF6EAC847DDF61D05F
:100E0600670EAF6EAC8478DF5CD0440EAF6EAC84F8
:100E160073DF57D0220EAF6EAC846EDF52D0060E53
:100E2600006E58D00001000E006EEC1908E100506B
:100E3600EB1905E1120EEA1902E1E951C00AD1E007
:100E4600000E006EEC1908E10050EB1905E1250EC5
:100E5600EA1902E1E951800AC9E0000E006EEC19B8
:100E660008E10050EB1905E14B0EEA1902E1E951E0
:100E7600000AC1E0000E006EEC1908E10050EB1903
:100E860005E1960EEA1902E1E951000AB9E0000E01
:100E9600006EEC1908E10050EB1905E1E10EEA19C4
:100EA60002E1E951000AB1E0EC51000A08E1EB5118
:100EB600010A05E1EA51C20A02E1E951000AAAE083
:100EC600AED7B20E9E6F010E9F6F000EA06F010E81
:060ED600A16F006A12008A
:100EDC00E9C0F6FFEAC0F7FFEBC0F8FF0900F5CF59
:100EEC00F0F0040E0001E925F66E000EEA21F76E13
:100EFC00000EEB21F86E0900F5CFF1F0080EE92594
:100F0C00F66E000EEA21F76E000EEB21F86E09006A
:100F1C00F5CFF2F00C0EE925F66E000EEA21F76E15
:100F2C00000EEB21F86E0900F5CFF3F0B4DE000EE5
:040F3C00006E120031
:100F400021D0CF0EAF6EAC94DADE6BD0670EAF6EF1
:100F5000AC94D5DE66D0CF0EAF6EAC84D0DE61D05F
:100F6000670EAF6EAC84CBDE5CD0440EAF6EAC844B
:100F7000C6DE57D0220EAF6EAC84C1DE52D0060E54
:100F8000006E58D00001000E006EEC1908E1005010
:100F9000EB1905E1120EEA1902E1E951C00AD1E0AC
:100FA000000E006EEC1908E10050EB1905E1250E6A
:100FB000EA1902E1E951800AC9E0000E006EEC195D
:100FC00008E10050EB1905E14B0EEA1902E1E95185
:100FD000000AC1E0000E006EEC1908E10050EB19A8
:100FE00005E1960EEA1902E1E951000AB9E0000EA6
:100FF000006EEC1908E10050EB1905E1E10EEA1969
:1010000002E1E951000AB1E0EC51000A08E1EB51BC
:10101000010A05E1EA51C20A02E1E951000AAAE027
:10102000AED7B20E9E6F010E9F6F000EA06F010E25
:06103000A16F006A12002E
:101036000001ED6B050EED5D0AE2ED51EB25E16E6B
:10104600000EEC21E26E200EE66EED2BF3D7ED518D
:10105600EB25E16E000EEC21E26EE66AED07ED513E
:10106600EB25EE6F000EEC21EF6F0A0E046E000EFC
:10107600056EE9C000F0EAC001F097DE08C000F096
:1010860009C001F0300E0026EEC0E1FFEFC0E2FF1E
:1010960000C0E6FF0A0E046E000E056EE9C000F001
:1010A600EAC001F082DE00C0E9F001C0EAF0000EFD
:1010B600011802E1000E001801E102D0ED07CFD7BA
:0210C600120016
:1010C80038D00F0120870D0E1F6F040E1E6F21856B
:1010D8003EDE7ED00F012087060E1F6F820E1E6F28
:1010E800218535DE75D00F012087030E1F6F400E56
:1010F8001E6F21852CDE6CD00F012087010E1F6F1B
:10110800A00E1E6F218523DE63D00F012087010EFC
:101118001F6F150E1E6F21851ADE5AD00F0120870A
:101128001F6B8A0E1E6F218512DE52D0060E006ECE
:1011380059D0000E006E0001EC1908E10050EB19BF
:1011480005E1120EEA1902E1E951C00ABAE0000EFF
:10115800006EEC1908E10050EB1905E1250EEA19BB
:1011680002E1E951800AB6E0000E006EEC1908E1D0
:101178000050EB1905E14B0EEA1902E1E951000AAA
:10118800B2E0000E006EEC1908E10050EB1905E121
:10119800960EEA1902E1E951000AAEE0000E006E6F
:1011A800EC1908E10050EB1905E1E10EEA1902E13A
:1011B800E951000AAAE0EC51000A08E1EB51010AE2
:1011C80005E1EA51C20A02E1E951000AA7E0AED7F7
:1011D8000001CE0E9E6F010E9F6F000EA06F010ED4
:0611E800A16F006A120075
:1011EE00E9C0F6FFEAC0F7FFEBC0F8FF0900F5CF44
:1011FE00F0F0040E0001E925F66E000EEA21F76EFE
:10120E00000EEB21F86E0900F5CFF1F0080EE9257E
:10121E00F66E000EEA21F76E000EEB21F86E090055
:10122E00F5CFF2F00C0EE925F66E000EEA21F76E00
:10123E00000EEB21F86E0900F5CFF3F02BDD000E5A
:04124E00006E12001C
:1012520059D00001EAB102D0929201D092820F01DC
:10126200259376D00001EAB102D0929801D09288FB
:101272006FD00001EAB102D0969201D0968268D076
:101282000001EAB102D0949601D0948661D00001A7
:10129200EAB102D0949801D094885AD00001EAB100
:1012A20002D0949A01D0948A53D00001EAB102D0BC
:1012B200949401D094844CD00001EAB102D093926C
:1012C20001D0938245D00001EAB102D0949E01D0B0
:1012D200948E3ED00001EAB102D0949C01D0948C4D
:1012E20037D00001EAB102D0949601D0948630D072
:1012F2000001EAB102D0949801D0948829D0010E5D
:10130200006E28D00001E951000AA3E0E951010A68
:10131200A9E0E951020AADE0E951030AB1E0E9515D
:10132200040AB5E0E951050AB9E0E951060ABDE04F
:10133200E951070AC1E0E951080AC5E0E951090A81
:10134200C9E0E9510A0ACDE0E9510B0AD1E0D7D749
:06135200000E006E120007
:1013580059D00001EAB102D0929001D092800F01D9
:10136800259176D00001EAB102D0949001D0948002
:101378006FD00001EAB102D0969001D0968068D073
:101388000001EAB102D0949601D0948661D00001A0
:10139800EAB102D0949801D094885AD00001EAB1F9
:1013A80002D0949A01D0948A53D00001EAB102D0B5
:1013B800949201D094824CD00001EAB102D093906B
:1013C80001D0938045D00001EAB102D0949E01D0AB
:1013D800948E3ED00001EAB102D0949C01D0948C46
:1013E80037D00001EAB102D0949601D0948630D06B
:1013F8000001EAB102D0949801D0948829D0010E56
:10140800006E28D00001E951000AA3E0E951010A61
:10141800A9E0E951020AADE0E951030AB1E0E95156
:10142800040AB5E0E951050AB9E0E951060ABDE048
:10143800E951070AC1E0E951080AC5E0E951090A7A
:10144800C9E0E9510A0ACDE0E9510B0AD1E0D7D742
:06145800000E006E120000
:10145E005DD00001EAB102D0929401D092840F01C6
:10146E0025957AD00001EAB102D0969601D09686E3
:10147E0073D00001EAB102D0969401D096846CD05C
:10148E000001EAB102D0949601D0948665D0000195
:10149E00EAB102D0949801D094885ED00001EAB1EE
:1014AE0002D0949A01D0948A57D00001EAB102D0AA
:1014BE00989001D0988050D00001EAB102D0939458
:1014CE0001D0938449D00001EAB102D0989401D0A2
:1014DE0098840F01239540D00001EAB102D0989272
:1014EE0001D098820F01239337D00001EAB102D0C8
:1014FE00949601D0948630D00001EAB102D094982F
:10150E0001D0948829D0010E006E28D00001E95137
:10151E00000A9FE0E951010AA5E0E951020AA9E09B
:10152E00E951030AADE0E951040AB1E0E951050AB7
:10153E00B5E0E951060AB9E0E951070ABDE0E95103
:10154E00080AC1E0E951090AC7E0E9510A0ACDE0EB
:0E155E00E9510B0AD1E0D7D7000E006E120043
:10156C00E9C0EAF000019551020A1FE1F6EC04F023
:10157C00A6C0F4F0EA0EF56F000EF66F010EF76FD1
:10158C00000EF86F010EF96F6AEC05F0A6C0F4F0CE
:10159C00EB0E0001F56F000EF66F020EF76F000EEA
:1015AC00F86FF96B08EC05F091D0800E0001E91191
:1015BC00EA6F98C0E1FF99C0E2FFE66A96C000F0BE
:1015CC0097C001F042EC01F0B5C0E1FFB6C0E2FFFC
:1015DC00010EE66EB3C000F0B4C001F042EC01F0B5
:1015EC00EA0E0001F46F000EF56F010EF66F000E9F
:1015FC00F76FC1EC05F0B5C0E1FFB6C0E2FFE66ADB
:10160C00B3C000F0B4C001F042EC01F0EB0E0001ED
:10161C00F46F000EF56F010EF66F000EF76FD1EC44
:10162C0004F098C0E1FF99C0E2FF010EE66E96C08F
:10163C0000F097C001F042EC01F00001E951010FFC
:10164C00EA6FEA8F98C0E1FF99C0E2FFE66A96C0A4
:10165C0000F097C001F042EC01F0B5C0E1FFB6C05C
:10166C00E2FF010EE66EB3C000F0B4C001F042EC34
:10167C0001F0EA0E0001F46F000EF56F010EF66F2B
:10168C00000EF76FC1EC05F0B5C0E1FFB6C0E2FF8C
:10169C00E66AB3C000F0B4C001F042EC01F0EC0E0D
:1016AC000001F46F000EF56F010EF66F000EF76F70
:1016BC00D1EC04F098C0E1FF99C0E2FF010EE66E98
:1016CC0096C000F097C001F042EC01F0ECC0EDF0D8
:1016DC00000E0001EE6FEDC001F0006A00C0EDF0ED
:1016EC0001C0EEF0EB510012000E011200C0EDF043
:0616FC0001C0EEF0120037
:10170200E9C0F6FFEAC0F7FFEBC0F8FF0900F5CF2A
:10171200F0F0040E0001E925F66E000EEA21F76EE4
:10172200000EEB21F86E0900F5CFF1F0080EE92565
:10173200F66E000EEA21F76E000EEB21F86E09003C
:10174200F5CFF2F00C0EE925F66E000EEA21F76EE7
:10175200000EEB21F86E0900F5CFF3F051EC06F024
:06176200000E006E1200F3
:1017680027D0CF0EAF6EAC947FEC06F070D0670E2A
:10177800AF6EAC947FEC06F06AD0CF0EAF6EAC843F
:101788007FEC06F064D0670EAF6EAC847FEC06F099
:101798005ED0440EAF6EAC847FEC06F058D0220EBB
:1017A800AF6EAC847FEC06F052D0060E006E58D0B7
:1017B8000001000E006EEC1908E10050EB1905E17C
:1017C800120EEA1902E1E951C00ACBE0000E006EE0
:1017D800EC1908E10050EB1905E1250EEA1902E1C0
:1017E800E951800AC4E0000E006EEC1908E10050CF
:1017F800EB1905E14B0EEA1902E1E951000ABDE0D7
:10180800000E006EEC1908E10050EB1905E1960E88
:10181800EA1902E1E951000AB6E0000E006EEC197F
:1018280008E10050EB1905E1E10EEA1902E1E9517E
:10183800000AAFE0EC51000A08E1EB51010A05E1AA
:10184800EA51C20A02E1E951000AA9E0AED7B20E94
:101858009E6F010E9F6F000EA06F010EA16F006AB0
:0218680012006C
:10186A00300E0001E925006E000EEA21016E000E1D
:10187A00EB21026E1C0E0024F66E000E0120F76E9C
:10188A00000E0220F86E0900F5CFDBF00900F5CF53
:10189A00DCF00900F5CFDDF00900F5CFDEF0E9C094
:1018AA00F6FFEAC0F7FFEBC0F8FF0900F5CFB3F087
:1018BA000900F5CFB4F00900F5CFB5F00900F5CF6E
:1018CA00B6F0080EE925F66E000EEA21F76E000E54
:1018DA00EB21F86E0900F5CF96F00900F5CF97F0E5
:0E18EA000900F5CF98F00900F5CF99F0120033
:1018F800E9C0F6FFEAC0F7FFEBC0F8FF0900F5CF33
:10190800A2F00900F5CFA3F00900F5CFA4F0090073
:10191800F5CFA5F0040E0001E925F66E000EEA21C8
:10192800F76E000EEB21F86E0900F5CF9AF009006A
:10193800F5CF9BF00900F5CF9CF00900F5CF9DF09D
:0219480012008B
:10194A000001EA6BEA6B0A0EEA5D0FE2670EF06FBE
:10195A00E6EC05F00001E9510014016E0150000A9D
:10196A0002E0006A04D0EA2BEED7010E006E1200E4
:10197A00E9C0EBF0EAC0ECF000019551020A10E16F
:10198A00F6EC04F0A6C0F4F0EB0EF56F000EF66F5D
:10199A00020EF76F000EF86FF96B6AEC05F02ED0A5
:1019AA00B5C0E1FFB6C0E2FF010EE66EB3C000F0BB
:1019BA00B4C001F042EC01F098C0E1FF99C0E2FF27
:1019CA00E66A96C000F097C001F042EC01F0EB0E17
:1019DA000001F46F000EF56F020EF66F000EF76F3E
:1019EA00C1EC05F098C0E1FF99C0E2FF010EE66E76
:0E19FA0096C000F097C001F042EC01F0120020
:101A0800A0C0E1FFA1C0E2FFE9C0E9FFEAC0EAFF28
:101A1800EECFE6FF9EC000F09FC001F042EC01F05F
:041A2800006A12003E
:101A2C000001DF51680A06E1010EE96F88DF00C092
:101A3C00E0F011D0DF516A0A06E1020EE96F7FDF98
:101A4C0000C0E0F008D0DF516C0A05E1040EE96F2C
:101A5C0076DF00C0E0F0E051000A04E1DFC0E9F0FD
:0E1A6C007FDD04D0010E006E000E016E120030
:101A7A001DD0E0C0E9F0E1C0EAF0E2C0EBF03CDEE4
:101A8A0020D0E0C0E9F0E1C0EAF0E2C0EBF0F7EC08
:101A9A0008F017D0E0C0E9F0E1C0EAF0E2C0EBF0EC
:101AAA006EEC07F00ED0010E006E0BD00001DF5174
:101ABA00000ADFE0DF51010AE4E0DF51020AEAE04E
:041ACA00F2D712003D
:101ACE0016D0E0C0E9F0E1C0EAF03FDC1BD0E0C088
:101ADE00E9F0E1C0EAF029EC09F014D0E0C0E9F039
:101AEE00E1C0EAF0B5DC0ED0010E006E0BD00001A5
:101AFE00DF51000AE6E0DF51010AE9E0DF51020A98
:061B0E00EDE0F2D7120029
:101B1400DFC0E2F0E0C0E3F00D0E0001E46F0A0E56
:101B2400E56F35D0E2C0E9F0E3C0EAF06BDF3AD00C
:101B3400E2C0E9FFE3C0EAFFEE5209E0E2C0E9F0E7
:101B4400E3C0EAF05FDF0001E24BE32BF1D72AD0D8
:101B5400E2C0E9FFE3C0EAFFEE5209E0E2C0E9F0C7
:101B6400E3C0EAF04FDF0001E24BE32BF1D70001C1
:101B7400E40EE96F000EEA6F45DFE50E0001E96F40
:101B8400000EEA6F3FDF0ED0060E006E0CD000018F
:101B9400E151000AC7E0E151010ACAE0E151020A39
:081BA400D7E0F2D7006A12003D
:101BAC00010E0001956FE2C0E9F0E3C0EAF0E4C079
:101BBC00EBF09CDEDFC0E9F0E0C0EAF0E1C0EBF056
:101BCC004EDE98C0E1FF99C0E2FF010EE66E96C0B2
:0C1BDC0000F097C001F042EC01F0120094
:101BE8000001E56BE66BDFC0E7F0E0C0E8F0800ECF
:101BF800E019006E800E005C02E1000EDF5D0BE272
:101C0800010EE56F000EE66FDF510008E76FE0C0D8
:101C1800E8F0000EE857E7C0E9F0E8C0EAF0E1C0F4
:101C2800EBF0E2C0ECF01BEC08F0060EE36F000EE0
:101C3800E46F000E006EE451005C02E1E35100081D
:101C480019E2E351E125E16EE451E221E26E010E71
:101C5800E35D006E000EE459016E0050E125E96E67
:101C68000150E221EA6EEECFE6FF010EE35F000EBF
:101C7800E45BDFD7E1C0E1FFE2C0E2FF200EE66EE1
:101C8800E551E6111AE0E36BE46BE351E125E96EF7
:101C9800E451E221EA6EEE50200A03E1E34BE42B23
:101CA800F4D7010EE35F000EE45BE351E125E16E3A
:0C1CB800E451E221E26E2D0EE66E1200F7
:101CC4002ED0E0C0E9F0E1C0EAF0E2C0EBF0E3C0FE
:101CD400ECF0F3EC06F031D0E0C0E9F0E1C0EAF05A
:101CE400E2C0EBF0E3C0ECF0A0EC07F026D0E0C0DB
:101CF400E9F0E1C0EAF0E2C0EBF0E3C0ECF064EC40
:101D040008F01BD0E0C0E9F0E1C0EAF0E2C0EBF07B
:101D1400E3C0ECF027DD11D0010E006E0ED00001FF
:101D2400DF51000ACEE0DF51010AD6E0DF51020A9A
:0C1D3400DEE0DF51100AE6E0EFD71200FD
:101D40004F0E0001F06FE6EC05F00050400A03E092
:101D500044C000F00ED0600E0001E96F800EEA6F03
:101D60000CDE620E0001E96F010EEA6F06DE86C02E
:041D700000F012006D
:101D74000001DF6B070EE06F010EE16FA6DE0001CC
:101D8400DF6B020EE06FE16BA0DE0001DF6BE06B46
:101D9400E16B9BDE0001DF6BEA0EE06F1F0EE16F6B
:101DA400000EE26F68DE100EDF6F800EE06F250E0E
:101DB400E16F000EE26FE36F83DF230E0001DF6F3C
:101DC400000EE06F020EE16FA3DE090E0B6E1E0E15
:101DD4000C6EE40E0D6E0D2EFED70C2EFCD70B2EC2
:061DE400FAD70000120016
:101DEA000900F5CFE6FF0006FBE10106F9E1120062
:101DFA008A0E0001DF6F1F0EE06F000EE16FFA0E10
:101E0A00E26F1F0EE36F000EE46FCBDE94DF120069
:101E1A00680E0001DF6F05DE00C091F001C092F08C
:101E2A00450EDF6F000EE06F010EE16F6EDE91C0AE
:101E3A00DFF092C0E0F0500E0001E16F000EE26F99
:101E4A00CEDE500EDF6F000EE06F020EE16F5DDE38
:101E5A006A0E0001DF6FE5DD00C093F001C094F067
:101E6A00390EDF6F000EE06F010EE16F4EDE93C098
:101E7A00DFF094C0E0F0500E0001E16F000EE26F57
:101E8A00AEDE500EDF6F000EE06F020EE16F3DDE38
:101E9A006C0E0001DF6FC5DD00C08BF001C08CF055
:101EAA00150EDF6F000EE06F010EE16F2EDE8BC0A4
:101EBA00DFF08CC0E0F0500E0001E16F000EE26F1F
:101ECA008EDE500EDF6F000EE06F020EE16F1DDE38
:101EDA00200E0001DF6F000EE06F020EE16F15DECB
:101EEA00520E0B6E2B0E0C6E000E0D6E0D2EFED7C3
:0C1EFA000C2EFCD70B2EFAD700001200B3
:0E1F060001EC10F034DF76DF85DFFED7FFD769
:1020020010EE15F0760E006E010E016E140EF66ED5
:0E2012001F0EF76E000EF86EF5EC0EF01200C9
:0B1F1400205A2061786973203A2000F9
:031F1F002020007F
:101F2200202D2D2D2053797374656D20696E69748F
:061F3200202D2D2D2000E2
:0B1F380020592061786973203A2000D6
:011F4300029B
:0B1F440020582061786973203A2000CB
:101F4F000000000000000000000000000000000082
:101F5F000000000000000000000000000000000072
:101F6F000000000000000000000000000000000062
:021F7F00000060
:041F8100000000005C
:011F8500005B
:041F86000000000057
:101F8A00C0010001420100013401000150010001B9
:101F9A006C0100015E01000132020001240200010D
:101FAA00400200015C0200014E020001EC01000146
:101FBA00E6020000CC030000260400001C04000016
:101FCA0012040000440400003A0400003004000037
:101FDA00EA030000E0030000D60300000804000042
:101FEA0002000000000000000000000001000000E4
:081FFA00960100010A08FE0037
:020000040030CA
:0E00000015137F7CF98B91FFFFC0FFE0FF40DE
:00000001FF
