:100000008414040000000000000000000000000054
:1000100000000000000000000000000000000000E0
:1000200000000000000000000000000000000000D0
:1000300000000000000000000000000000000000C0
:1000400000000000000000000000000000000000B0
:10290800EF8A2000F0FF270020A0B7001000200069
:1029180034A0B700400020004420B700A4140200EF
:1029280000000000AE1402000000000087FF07004E
:10293800E7FF0700A5FF0700FEFF3700FFFF37008E
:102754008A1F78008B1F78008C1F78001CC0B30080
:102764007BC0B3001420EF00DCFE07001820EF004C
:102774002BC0B3001420EF00D8FE0700200B280064
:10278400800578001420EF00C3FE07000B582200D8
:102794000C0020000AC2B30090FF07002BC0B30056
:1027A4000A80200046FF070038002000578D2000D3
:1027B4000E20ED00FEFF3A001020ED00FCFF3A0071
:1027C4004F067800CF0578004F057800000006001A
:1022E0008A1F78008B1F78000A0037000B457800A2
:1022F0008C457800B4FE07000B0037000B457800D2
:102300008C45780020FF07000700370010C0B3009D
:10231000050037006054E100F4FF32006154E10031
:10232000F6FF3200F9FF3700CF0578004F0578003F
:0423300000000600A3
:101DC800F0FF2F002AA3B700F0FF2F002CA3B700C5
:101DD800F0FF2F006CA3B7003E0037001600AE00DE
:101DE800C702A9001600AF00C702A80052003700BA
:101DF8001600AE00CC22A9001600AF00CC22A80025
:101E08004D0037001600AE00CC42A9001600AF0006
:101E1800CC42A800480037001600AE00DEC2A90078
:101E28001600AF00DEC2A800430037001600AE005F
:101E3800DEE2A9001600AF00DEE2A8003E0037008F
:101E48001600AE00DF02A9001600AF00DF02A800EE
:101E5800390037001600AE00D202A9001600AF0004
:101E6800D202A800340037001600AE00C182A900D3
:101E78001600AF00C182A8002F0037001600AE0080
:101E8800DE82A9001600AF00DE82A8002A00370013
:101E98001600AE00DEA2A9001600AF00DEA2A80060
:101EA800250037001600AE00C042A9001600AF009A
:101EB800C042A800200037001600AE00C062A9008A
:101EC8001600AF00C062A8001B00370010C0B300A6
:101ED8001A0037006054E100C0FF32006154E1008D
:101EE800C3FF32006254E100C6FF32006354E100D0
:101EF800C9FF32006454E100CCFF32006554E100B0
:101F0800CFFF32006654E100D2FF32006754E1008F
:101F1800D5FF32006854E100D8FF32006954E1006F
:101F2800DBFF32006A54E100DEFF32006B54E1004F
:101F3800E1FF3200E5FF370000C0B30000000600F3
:101F8800F0FF2F002AA3B700F0FF2F002CA3B70003
:101F9800F0FF2F006CA3B7003E0037001600AE001C
:101FA800C722A9001600AF00C722A80052003700B8
:101FB8001600AE00CC62A9001600AF00CC62A800E3
:101FC8004D0037001600AE00CC82A9001600AF0005
:101FD800CC82A800480037001600AE00DEC2A90077
:101FE8001600AF00DEC2A800430037001600AE009E
:101FF800DEE2A9001600AF00DEE2A8003E003700CE
:102008001600AE00DF02A9001600AF00DF02A8002C
:10201800390037001600AE00D222A9001600AF0022
:10202800D222A800340037001600AE00C1A2A900D1
:102038001600AF00C1A2A8002F0037001600AE009E
:10204800DF82A9001600AF00DF82A8002A0037004F
:102058001600AE00DFA2A9001600AF00DFA2A8009C
:10206800250037001600AE00C042A9001600AF00D8
:10207800C042A800200037001600AE00C062A900C8
:102088001600AF00C062A8001B00370010C0B300E4
:102098001A0037006054E100C0FF32006154E100CB
:1020A800C3FF32006254E100C6FF32006354E1000E
:1020B800C9FF32006454E100CCFF32006554E100EE
:1020C800CFFF32006654E100D2FF32006754E100CE
:1020D800D5FF32006854E100D8FF32006954E100AE
:1020E800DBFF32006A54E100DEFF32006B54E1008E
:1020F800E1FF3200E5FF370000C0B3000000060032
:10229C008A1F7800080037000B0578002FFF070015
:1022AC000A0037000B05780024FF070007003700F1
:1022BC0010C0B300050037006054E100F6FF320097
:1022CC006154E100F7FF3200F9FF37004F05780049
:0422DC0000000600F8
:101F68008A1F78008B1F78001A05BE0090FB0700B7
:101F780000C0B300CF0578004F05780000000600C8
:100DB8000400FA000BFF070019FF0700421F20007C
:100DC80003002000CEFE07000001BE00829FBE0087
:100DD8008A9FBE000200BE00026829008309200025
:100DE8000002EB00CFFE07004F05BE004F01BE001A
:100DF80000079800110798000200BE000A01BE0013
:100E08000002EB00C7FE07000001BE0060004700BB
:100E180030015100A081590061005100E080590063
:100E2800A010880017E2A80000FF07001822EF00B2
:100E3800E5FE0700ADFE07000080FA00000006008E
:1009EC000000FA00C0212000D04388000034200011
:1009FC008044880060312000E0448800C052200010
:100A0C00F0448800E027200000458800002C2000DE
:0C0A1C00D04488000080FA0000000600B2
:0C0A280000F42100010020000000060086
:100A340038002000578D20000E20ED00FEFF3A0004
:0C0A44001020ED00FCFF3A00000006004E
:1009D0000000FA0098FE07000000E20001003A0063
:0C09E000FCFF37000080FA000000060059
:100438000000FA000260EF001602AF000260EC0054
:100448000060EF001642AF000060EC008180FB0006
:100458000080FB00808070000060EF001662AF0033
:100468000060EC000080FB00808070000060EF00FE
:100478001682AF000060EC000080FB0080807000F6
:100488000060EF001622AF000060EC000080FB0067
:10049800808070000060EF0019C2AF000060EC00BF
:1004A8000080FB00008070000000E2000060EF00A8
:1004B80001003A000060EC000080FB000080FA00B8
:0404C800000006002A
:1008F40000000000000000000000000000000000F4
:0409040000000600E9
:100908000000FA00020AB800500088000200B8008F
:1009180081004200032AB800810042000080FA00EA
:0409280000000600C5
:10092C000000FA0002000700E404040000000000CC
:10093C000800E20002003A00100007000000060068
:10094C00839F68000200E20002003D00600010007E
:10095C00E08018000600E20002003D00600111007A
:10096C00E0811900050007004F00E00002003B0089
:10097C0060001000E0801800000006006022B80043
:10098C00060220000000D0008180D2000482D20038
:10099C008582D2000000A8000202520083825A0015
:1009AC0003003B000202420083824A000000A100C7
:1009BC000603E900F3FF3A00000006000080FA008D
:0409CC000000060021
:101F48008A1F78008B1F78001A05BE0098FB0700CF
:101F580000C0B300CF0578004F05780000000600E8
:1025E0008A1F78008B1F78008C1F7800120037003C
:1025F0000B0578008C057800C3FE07001900370032
:102600000B0578008C057800CEFE0700150037001A
:102610000B0578008C057800C5FE07001100370017
:102620000B0578008C057800BCFE07000D00370014
:1026300010C0B3000B0037006054E100ECFF320023
:102640006154E100EEFF320000C2B3000054E1002B
:10265000EFFF320000C3B3000054E100F0FF32008E
:10266000F3FF37004F067800CF0578004F0578005C
:042670000000060060
:102108006AFA0700408F2000604588000020EF0031
:0421180000000600BD
:100AB4000800FA00408F2000A04488006041200014
:100AC400B0448800403F2000C0448800E03F20003C
:100AD400904488003022EF000000280032A2B700C2
:100AE4003062A900CFFF07000001BE00803E200055
:100AF4000100200083FF07000001BE00D3FF0700B0
:100B04004100DE006400400080007800600047007F
:100B14000A88BE008100E900030035001018D000E7
:100B24001090D200FBFF3700829FBE008A9FBE0058
:100B34000200BE000E0190009E0190000002EB0036
:100B44003FFF07004F05BE004F01BE00200798007D
:100B5400310798008A9FBE000200BE000E0190007B
:100B64009E0190000002EB006FFF07004F05BE00DE
:100B74008001780001027800600047005001D10034
:100B8400C080D300640047003008E1002090E100F9
:100B94000700310061804100E0004A0080027800D3
:100BA400010378000501780086017800020037000F
:100BB40003017800840178000280710033003A0058
:100BC40098FF07000001BE00803E200001002000C5
:100BD4004CFF07000001BE009CFF07004100DE003F
:100BE40000A0EC0080007800600047000A88BE0086
:100BF4008100E900030035001018D0001090D200E5
:100C0400FBFF3700829FBE000200BE000E01900071
:100C14009E0190000002EB0009FF07004F01BE0097
:100C240020079800310798000200BE000E019000D2
:100C34009E0190000002EB003BFF0700800178005A
:100C440001027800600047005001D100C080D30049
:100C5400640047003008E1002090E1000700310003
:100C640061804100E0004A008002780001037800BE
:100C7400050178008601780002003700030178003E
:100C8400840178003062A800000037006100510040
:100C9400E0805900C01188003222A90031E2A80086
:100CA4003342A80062FF070061FF07000080FA00DA
:040CB4000000060036
:080A5000200020000000060058
:100844000000FA0002000700760404000000000023
:100854000800E20002003A00100007000000060051
:10086400811F78000200E20002003D0060001000D9
:10087400E08018000600E20002003D006001110063
:10088400E0811900050007004F00E00002003B0072
:1008940060001000E080180000000600020007005D
:1008A4000480BE00000006006022B800060220009A
:1008B4000000D0008180D2000482D2008582D20060
:1008C4000000A8000202520083825A0003003B0089
:1008D4000202420083824A000000A1000603E900EC
:1008E400F3FF3A00000006000080FA000000060052
:0821440060C0B30000000600BA
:1021300060FA0700408F2000604588000020EF0013
:042140000000060095
:10211C0088FB070020902000604588000020EF001D
:04212C0000000600A9
:100F40000800FA0020902000A0448800A03620006D
:100F5000B0448800A03E2000C0448800A04020008B
:100F6000904488002022EF000000280022A2B70051
:100F70002062A900ACFE07000001BE00803E2000F8
:100F80000100200060FE07000001BE00B0FE070067
:100F90004100DE00640040008000780060004700EF
:100FA0000A88BE008100E900030035001018D00057
:100FB0001090D200FBFF3700829FBE008A9FBE00C8
:100FC0000200BE000E0190009E0190000002EB00A6
:100FD0001CFE07004F05BE004F01BE002007980011
:100FE000310798008A9FBE000200BE000E019000EB
:100FF0009E0190000002EB004CFE07004F05BE0072
:101000008001780001027800600047005001D100A3
:10101000C080D300640047003008E1002090E10068
:101020000700310061804100E0004A008002780042
:10103000010378000501780086017800020037007E
:1010400003017800840178000280710033003A00C7
:1010500075FE07000001BE00803E20000100200058
:1010600029FE07000001BE0079FE07004100DE00F6
:1010700000A0EC0080007800600047000A88BE00F5
:101080008100E900030035001018D0001090D20054
:10109000FBFF3700829FBE000200BE000E019000E1
:1010A0009E0190000002EB00E6FD07004F01BE002C
:1010B00020079800310798000200BE000E01900042
:1010C0009E0190000002EB0018FE070080017800EE
:1010D00001027800600047005001D100C080D300B9
:1010E000640047003008E1002090E1000700310073
:1010F00061804100E0004A0080027800010378002E
:1011000005017800860178000200370003017800AD
:10111000840178002062A8000000370061005100BF
:10112000E0805900401188002222A90021E2A80095
:101130002342A8003FFE07003EFE07000080FA00A1
:0411400000000600A5
:1024C4000200FA008A1F78008A007800D0002000F9
:1024D40000479800A000200010479800250037000E
:1024E400010578001CFE0700290037000100780070
:1024F4001004E00008003200801F78008A9FBE00AC
:102504000005780014FE07004F05BE004F00780058
:102514000020EC00F6FF37001D00370001007800B2
:102524001004E00008003200801F78008A9FBE007B
:102534000005780008FE07004F05BE004F00780034
:102544000020EC00F6FF3700600047008A9FBE00C1
:102554000005780000FE07006100470000057800D0
:10256400FDFD07004F05BE000900370060C0B30041
:1025740007003700605CE100D9FF3200615CE100D4
:10258400DAFF3200625CE100E4FF3200F7FF37005B
:0C2594004F0578000080FA0000000600EF
:101D5C008A1F78001A85FB00604580000000010096
:0C1D6C000020EF004F057800000006008A
:101144000000FA0001FD07000080FA00000006001C
:100550000000FA0040C2A9004022AE0001003700AE
:10056000FDFF37004A1288004002AF00010037004B
:10057000FDFF37004882BF000080FA00000006003F
:101154000000FA00DCFC07000080FA000000060032
:1004CC000000FA0060C2A9006022AE0001003700F3
:1004DC00FDFF37004A1388006002AF0001003700AF
:1004EC00FDFF37006882BF000080FA0000000600A4
:101204000000FA002302AF0001003700FDFF3700A1
:0C1214002A1188000080FA00000006008B
:1011E8000000FA003302AF0001003700FDFF3700AE
:0C11F800AA1188000080FA000000060028
:1028D8008A1F78008B1F78008C1F7800ECC1B3002A
:1028E8008B0A28008A0728002BFF070082FF0700B1
:1028F8004F067800CF0578004F05780000000600E5
:1025A0008A1F7800708720000C487800218820005E
:1025B00020C0B300804878008A1F78000B0578009F
:1025C000D7FD07004F057800CBFD07001AC0B30008
:1025D00000448000000001004F0578000000060064
:101D20001A00780040448800E20045001100780065
:101D300020448800E4004500110078003044880009
:101D4000E60045001100780060448800E800450086
:0C1D5000110078007044880000000600BC
:101CF800780045006E00400010007800C04388005E
:101D08001A007800F043880064004500100078004D
:081D18000044880000000600F1
:101D78001400AE00CB02A9001400AF00CB02A800EB
:041D88000000060051
:101DB4001400AE00D022A9001400AF00D022A80065
:041DC4000000060015
:101DA0001400AE00D042A9001400AF00D042A80039
:041DB0000000060029
:101D8C001400AE00E2C2A9001400AF00E2C2A80029
:041D9C00000006003D
:102214001400AE00E2E2A9001400AF00E2E2A8005C
:0422240000000600B0
:102228001400AE00E302A9001400AF00E302A80006
:04223800000006009C
:1021EC001400AE00D602A9001400AF00D602A8005D
:0421FC0000000600D9
:102200001400AE00C582A9001400AF00C582A8006A
:0422100000000600C4
:10223C001400AE00E282A9001400AF00E282A800F4
:04224C000000060088
:102250001400AE00E2A2A9001400AF00E2A2A800A0
:042260000000060074
:102174001400AE00C442A9001400AF00C442A80079
:042184000000060051
:102188001400AE00C462A9001400AF00C462A80025
:04219800000006003D
:10214C001400AE00CB22A9001400AF00CB22A800D3
:04215C000000060079
:102160001400AE00D062A9001400AF00D062A80035
:042170000000060065
:1021C4001400AE00D082A9001400AF00D082A80091
:0421D4000000060001
:1021D8001400AE00E2C2A9001400AF00E2C2A800D9
:0421E80000000600ED
:10219C001400AE00E2E2A9001400AF00E2E2A800D5
:0421AC000000060029
:1021B0001400AE00E302A9001400AF00E302A8007F
:0421C0000000060015
:101CE4001400AE00D622A9001400AF00D622A8002A
:041CF40000000600E6
:101338001400AE00C5A2A9001400AF00C5A2A80001
:04134800000006009B
:10134C001400AE00E382A9001400AF00E382A800F1
:04135C000000060087
:101360001400AE00E3A2A9001400AF00E3A2A8009D
:041370000000060073
:101324001400AE00C442A9001400AF00C442A800D7
:0413340000000600AF
:101220001400AE00C462A9001400AF00C462A8009C
:0412300000000600B4
:102700008A1F78008B1F7800FAC4B300C9FA07004B
:1027100001C4B3000104E100030032000086200080
:1027200010407800080037000BC8B3000AC6B30099
:1027300081FB07001BC0B3002AC6B3007EFB070065
:10274000F085200010407800CF0578004F05780014
:04275000000006007F
:101234000200FA008A1F78008B1F78008C1F780048
:101244008D1F7800600047000A487800208820003D
:10125400104078006204E10010003A00CCFE070060
:10126400E0004700708720001DC0B3001C00200070
:1012740081057800104578008EFE0700E1004700E4
:10128400708720001A20EF001C00200081057800E0
:1012940010457800EBFE0700190037006001470095
:1012A4008A80FB000008200000807000004978005C
:1012B4001420EF0000448000000001001AC0B300B5
:1012C400F043800000000100600047001B00200084
:1012D40000057800B3FF07001420EF00F0438000FE
:1012E40000000100610047001B0020000005780099
:1012F4009BFF07001AC0B3000044800000000100F7
:101304006100470010407800CF0678004F0678004F
:10131400CF0578004F0578000080FA000000060031
:100D94000200FA000000200000079800414480008F
:100DA40001000100E0004700110070000080FA001B
:040DB4000000060035
:1006EC000000FA000260EF000602AF000260EC00AE
:1006FC000060EF000642AF000060EC008180FB0060
:10070C000080FB00808070000060EF000662AF008C
:10071C000060EC000080FB00808070000060EF0047
:10072C000682AF000060EC000080FB00808070004F
:10073C000060EF000622AF000060EC000080FB00C0
:10074C00808070000060EF0009C2AF000060EC0018
:10075C000080FB00008070000000E2000060EF00F1
:10076C0001003A000060EC000080FB000080FA0001
:04077C000000060073
:100780000000FA000420EF00007122000010E100D8
:1007900006003E00D5FF07000000E2000100320025
:1007A000020037000420EC00F7FF37001071220030
:1007B0000010E10002003900F00F200003003700B4
:1007C0000602A8000EFF07000020EF000080FA00DC
:0407D000000006001F
:100400000000FA008620AF0001003700FDFF370032
:0C0410008620A9000080FA000000060011
:100680000000FA000420EF00007122000010E100D9
:1006900006003E0068FF07000000E2000100320093
:1006A000020037000420EC00F7FF37001071220031
:1006B0000010E10002003900F00F200003003700B5
:1006C0001602A80055FF07000020EF000080FA0086
:0406D0000000060020
:10041C000000FA008A40AF0001003700FDFF3700F2
:0C042C008A40A9000080FA0000000600D1
:1006D4000000FA0000000000000000002682BF00B5
:0806E4000080FA00000006008E
:1007D4000000FA002282BF00610060000080FA007D
:0407E400000006000B
:100814000000FA000020EF002302AF000020EC00EB
:080824000080FA00000006004C
:10082C000000FA0000000000000000003682BF004B
:08083C000080FA000000060034
:1007E8000000FA003282BF00610060000080FA0059
:0407F80000000600F7
:1007FC000000FA000020EF003302AF000020EC00F4
:08080C000080FA000000060064
:100CB8000400FA008A1F780000002000100798003E
:100CC8000B0798000A80FB004100DD008C9FBE00E6
:100CD8000045780061448000010001004F06BE0015
:100CE80062014700E2004700920870008C0078001B
:100CF80061005600000678000200E2000F00320092
:100D08000E0090008C9FBE008A9FBE0010457800A0
:100D180061448000010001004F05BE004F06BE007F
:100D280062014700E2004700920870008E009000C0
:100D38006000470061884000ECFF3700606CE1000C
:100D480006003A00204480008C9FBE008A9FBE00A7
:100D5800000001004F05BE004F06BE00616CE100B7
:100D680006003A00404480008C9FBE008A9FBE0067
:100D7800000001004F05BE004F06BE001E00900097
:0C0D88004F0578000080FA000000060013
:100654000000FA000A80FB0002A2B70008E2AE0024
:1006640002003700100020000200370063FF07007B
:0C0674000020EF000080FA0000000600EB
:1004FC000000FA000A80FB0012A2B70018E2AE005E
:10050C00020037001000200002003700C0FF070077
:0C051C000020EF000080FA000000060044
:100528000000FA000682BF007F0060000000E200C1
:1005380001003200FBFF37000622A800AEFF0700CB
:080548000080FA00000006002B
:100604000000FA000682BF007F0060000000E200E4
:1006140001003200FBFF37000642A80077FF070005
:080624000080FA00000006004E
:10062C000000FA000682BF007F0060000000E200BC
:10063C0001003200FBFF37001622A80074FF0700F0
:08064C000080FA000000060026
:100580000000FA001682BF007F0060000000E20059
:1005900001003200FBFF37001642A8009FFF070052
:0805A0000080FA0000000600D3
:100E48000400FA008A1F78000000200010079800AC
:100E58000B0798000A80FB004100DD00610070006C
:100E68008C9FBE00004578006144800001000100AD
:100E78004F06BE0062014700E2004700920870007A
:100E880061005600000678001800E2000D003200EC
:100E98008C9FBE008A9FBE001420EF007144800022
:100EA800010001004F05BE004F06BE008E009000F5
:100EB800804878008E0090006000470061884000FC
:100EC800EFFF37008C9FBE008A9FBE001A002000EB
:100ED80071448000010001004F05BE004F06BE00AE
:100EE8008E00900080487800606CE10006003A00AF
:100EF800204480008C9FBE008A9FBE000000010035
:100F08004F05BE004F06BE00616CE10006003A00C6
:100F1800304480008C9FBE008A9FBE000000010004
:100F28004F05BE004F06BE001E0090004F0578001A
:080F38000080FA000000060031
:1005A8000000FA000682BF007F0060000000E20041
:1005B80001003200FBFF37000662A8008EFF07002B
:1005C8000682BF007F0060000000E20001003200E8
:1005D800FBFF37001400E2000200320006A2A80068
:1005E8000100370006A2A9000682A80082FF0700C2
:0C05F80000C2BF000080FA0000000600F6
:100A58000000FA001682BF007F0060000000E2007C
:100A680001003200FBFF37001662A80069FE07008C
:100A78001682BF007F0060000000E2000100320023
:100A8800FBFF37001400E2000200320016A2A800A3
:100A98000100370016A2A9001682A8005DFE070013
:0C0AA80010C2BF000080FA000000060031
:1011A8000A0178008B00780061805500800578007E
:1011B8000200E20009003200821F78008A9FBE0008
:1011C8001285FB0050448000000001004F05BE005E
:1011D8004F0178000420EC00F2FF37000000060001
:101164000A0178008B0078006180550080057800C2
:101174000200E2000A003200821F78008A9FBE004B
:101184001420EF00E1438000010001004F05BE0080
:101194004F017800004978000420EC00F1FF37008B
:0411A4000000060041
:101538000200FA008A1F78008B1F78008C1F780041
:101548008D1F7800600047000A4878000020EC00F2
:101558000B48780020882000104078006204E100E1
:1015680009003A0009FE0700E000470070872000E4
:101578001A20EF002C002000810578001045780023
:10158800CBFD07000D0037001AC0B300F043800000
:10159800000001001420EF0000448000000001005A
:1015A800600047002B00200000057800FCFE0700C3
:1015B8001AC0B3000044800000000100CF06780084
:1015C8004F067800CF0578004F0578000080FA00B4
:0415D8000000060009
:1027D4008A1F78008B1F78008AC6B300A4FF070005
:1027E400304588001BC0B3001A86200034FF070060
:1027F400DB8220003A458000CDFE07002BC0B300E9
:10280400DA8220002EFF0700AAC6B30098FF070053
:10281400104588001BC0B300CA86200028FF0700AB
:10282400DB8220001A458000C1FE07002BC0B300E4
:10283400DA82200022FF0700CAC6B3008CFF07001B
:10284400204588001BC0B3002A8220001CFF07001B
:10285400DB8220002A458000B5FE07002BC0B300B0
:10286400DA82200016FF07007DFE0700404588003D
:10287400514588001BC0B3009A81200010FF070057
:102884004045800051458000D1FE0700DB822000D6
:1028940000057800A6FE07002BC0B300DA822000F2
:1028A40007FF07002BC0B3006A81200004FF070064
:1028B40058012000B78525000E20ED00FEFF3A00E8
:1028C4001020ED00FCFF3A00CF0578004F0578009A
:0428D40000000600FA
:102674000200FA0080C6B3000054E10006003A00EC
:102684008A1F78001AC0B30096FB07004F05780034
:102694000047980011003700A0C6B3000054E100C1
:1026A40006003A008A1F78002AC0B3008DFB070099
:1026B4004F0578000047980008003700C0C6B300F3
:1026C4000054E10005003A008A1F78004AC0B300B4
:1026D40084FB07004F057800004798000E409000E7
:1026E4006004E10002003A0021FB0700010037000A
:0C26F400100020000080FA00000006002A
:1014E8000420EF006A14E1000F003100821F780029
:1014F8008A1F78007AC6B3004CFF07004F057800B2
:101508004F0178008080FB000A80FB0000806000AB
:101518006000E100020032000020EF000300370005
:101528000460EC00EFFF370010C0B30000000600B5
:101374000400FA008A1F78008B1F78008C1F780005
:101384008D1F7800600047000A48780020882000FC
:10139400104078006204E10010003A007CFE07006F
:1013A400E0004700708720001DC0B3001C0020002F
:1013B40081057800104578003EFE0700E1004700F3
:1013C400708720001A20EF002C002000810578008F
:1013D400104578009BFE0700360037006001470087
:1013E4008A80FB000008200000807000004978001B
:1013F4008A1F78001420EF000044800000000100E0
:101404001AC0B300F04380000000010060004700F0
:101414001B0020000005780062FF07001420EF0085
:10142400F043800000000100610047001B00200021
:10143400000578004AFF07001AC0B300004480008A
:10144400000001004F057800600147000A80FB009E
:10145400E10040000008200000807000004978008E
:101464001420EF0000448000000001001AC0B30003
:10147400F043800000000100600047001B002000D2
:101484000005780047FF07001420EF00F0438000B8
:1014940000000100610047000020EC001B00200058
:1014A400000578002EFF07001AC0B3000044800036
:1014B4000000010061014700610041001080FB0051
:1014C400C800DD001280FB0000807000CF067800A9
:1014D4004F067800CF0578004F0578000080FA00A9
:0414E40000000600FE
:102334000000FA008A1F78000820EF000A007800E5
:102344006050E10003003D0014002000600015000F
:1023540000003700000578009FFC070063002000A0
:10236400040178006018E10006003600838045000F
:102374006180510000804500904878000620ED00FF
:10238400F8FF370000C2B300804D78000400E2007B
:102394000C0032000420EF000280450090407800D9
:1023A40000C2B300000CE10002003A000420EC007B
:1023B400F9FF37006100510080804500D0C2B300AE
:1023C400804878004F0578000080FA00000006007D
:1015DC000200FA000420EF006514E100060031005F
:1015EC000280FB008080450000C2B3008048780078
:1015FC000460EC00F8FF37000280FB00808045009F
:10160C000020EF0080487800E14151000380FB008E
:10161C000080450000079800A2002000110009007E
:10162C000285D80000032000808040000E0090004E
:10163C0001487800A2002000110009000285D800A2
:10164C00000578006000E10001003A00020037005C
:10165C000660ED00EDFF37000080FA000000060088
:102264008A1F7800EAC6B30041FC0700CF80DE0075
:102274000081EB003FFE07000200200003F0230072
:10228400AFFD070002002000831B2400F6FC0700BA
:082294004F0578000000060070
:101B78000000FA00020007006E0E040000000000DA
:101B88000400E20006003A000005EB000200E20053
:101B98000F003E000000E200270032000C00370072
:101BA800A10088000200E2000400350008003C00A3
:101BB8000000E2002000320005003700600010003D
:101BC800E080180002003B0001F02C001A003700EA
:101BD8000084BE006011B8006B0920000982CF00A4
:101BE800020039000882CF000441B0006942520067
:101BF8000E00320008003B00828171006101640020
:101C08008904D1000884D3008B05E8000442E80069
:101C1800F9FF3A00050037000804440089844C00A5
:101C28008B05E9000442E900FBFF3A0003000700C6
:101C38000AF0A70003E0A8000000060081002000C9
:101C4800618055000B003D000B00200061FE2F0055
:101C58000100E1001D00340082817100610164000F
:101C68008904D1000884D3000000E800FAFF3A0094
:101C78007100200061006400030070000200600031
:101C88000900320061044400E0844C000988A50082
:101C9800050032008B05E8006808E10002003A0000
:101CA8008904D1000884D300F20F20000258E10013
:101CB80005003D00C75DDD00F907B20089807500A9
:101CC80008008800000006000BF827001B008800A9
:0C1CD800000005000080FA00000006007B
:101944000000FA0002000700B80D040000000000C7
:10195400889FBE008A9FBE008C1F7800300007005D
:101964003700330003866C006450E1002400320029
:101974006420E100270032006150E10022003200BF
:101984006120E100210032008B854200EB07B100A9
:101994000134B800003AB8000804420089844A00BF
:1019A400013AB8000030B8008880400009014A00BC
:1019B4000400330000004000818048000201490017
:1019C4008B05E900C909DD008301700001003200C4
:1019D40013002000C814DE004814DD004709DE00AF
:1019E4001200B200C808DE0008847000240007005A
:1019F40001F0A1000CF0A70003E0A80019003700D3
:101A04006120E1001B0032000881BE000280BE009C
:101A1400F7FF37006150E100FCFF3A001500370082
:101A24000084BE003C0007000083BE000485BE00A5
:101A34000280BE0038000700844F750000000600D5
:101A44000280BE006450E100050036006420E1001D
:101A5400020036000968A30001003A000880BE00B5
:101A640002C0A8004F0678004F05BE004F04BE0018
:101A740000000600F0FF2F00F1FF2700F9FF3700F8
:101A840081002000618055000B003D000B00200008
:101A940061FE2F000100E1001D003400828171000D
:101AA400610164008904D1000884D3000000E800C7
:101AB400FAFF3A0071002000610064000300700026
:101AC400020060000900320061044400E0844C001C
:101AD4000988A500050032008B05E8006808E100CC
:101AE40002003A008904D1000884D300F20F2000D8
:101AF4000258E10005003D00C75DDD00F907B200B2
:101B04008980750008008800000006000BF8270093
:101B14001B00880000000500C70ADE00F107B200C0
:101B2400F50FB20008003200E1CF4200020032009B
:101B340002E0A80024000500810F700001003200BB
:101B44000408050044000500810F700002003A00FB
:101B5400140005008502E9000000400081C048002F
:101B6400FCFF3B0002E0A800240005000080FA000E
:041B74000000060067
:10166C000000FA00020007009E0C040000000000BD
:10167C00889FBE008A9FBE008C1F7800590007000F
:10168C00600033006450E1004F0032006420E10040
:10169C005200320003826C0007003B000905D000A9
:1016AC000306D000820F54000C065D0002003900C6
:1016BC000200320039008800C30088008582550082
:1016CC0004003D000003FD008103FD008502EA00DB
:1016DC008B854200840F720002003B0060001000FA
:1016EC00E08018006011B8000005EB007A28E100DA
:1016FC000A00390006008800C75DDD00F707B2005C
:10170C00878075002D003700828171002A008800C7
:10171C00610560008180D1000080D3008502E90062
:10172C00F9FF3B00060440008784480002003B00A0
:10173C0060041400E0841C000988A3000700320038
:10174C008A81710082817100610164008904D10079
:10175C000884D3008B05E800170037000978A30034
:10176C0013003A001600E200130034008B05E90068
:10177C000804440089844C000A4474000978A300CE
:10178C000D003A001600E200070034008B05E9005A
:10179C000804440089844C0001003A000B0020002E
:1017AC000978A300F7FF32000001EB0002003700BC
:1017BC00828171002A008800220007000CF0A7002B
:1017CC0003E0A800180037006420E10002003A0092
:1017DC00838F6C00180033000881BE000280BE00AD
:1017EC00110037000084BE003C0007000083BE00DF
:1017FC000485BE000280BE0038000700844F7500CF
:10180C00000006000280BE006450E10005003600B6
:10181C006420E100020036000968A30001003A00D0
:10182C000880BE0002C0A8004F0678004F05BE001D
:10183C004F04BE0000000600F0FF2F00F1FF270050
:10184C00F9FF370081002000618055000B003D003E
:10185C000B00200061FE2F000100E1001D00340090
:10186C0082817100610164008904D1000884D30075
:10187C000000E800FAFF3A007100200061006400EB
:10188C000300700002006000090032006104440093
:10189C00E0844C000988A500050032008B05E800A7
:1018AC006808E10002003A008904D1000884D300E2
:1018BC00F20F20000258E10005003D00C75DDD007D
:1018CC00F907B20089807500080088000000060046
:1018DC000BF827001B00880000000500C70ADE007B
:1018EC00F107B200F50FB20008003200E1CF420060
:1018FC000200320002E0A80024000500810F7000F5
:10190C00010032000408050044000500810F70003E
:10191C0002003A00140005008502E90000004000B6
:10192C0081C04800FCFF3B0002E0A8002400050039
:08193C000080FA000000060023
:1023D4000000FA00020007005E1204000000000082
:1023E4000081BE001F0007000470A70003F0A100D5
:1023F4006509B100160032000D0035006828E100BF
:1024040006003500F0FF2F00F1FF27000600E20070
:1024140013003B00010028000000050000004000FC
:10242400818048008502E900FCFF3A00080037007B
:10243400F88F420002003C008000EB000000050021
:102444008100D1000080D3008502E800FCFF3A003F
:102454000600E20002003B0060001000E08018006B
:1024640000000600C70ADE00F107B200F50FB20053
:1024740008003200E1CF42000200320002E0A8006E
:1024840024000500810F70000100320004080500DB
:1024940044000500810F700002003A00140005009A
:1024A4008502E9000000400081C04800FCFF3B00B9
:1024B40002E0A800240005000080FA0000000600E5
:102948000A8020000B002000560009000B1D7800AB
:042958000000060075
:10295C0001802000000028003A000900B01878001F
:08296C00B058780000000600DD
:020000040001F9
:10000000202D00002D2D00002053000079730000EA
:10001000746500006D200000696E000069740000C6
:0C002000202D00002D2D0000200000000D
:10002C002020000000200000546500006D700000CE
:08003C00203A00002000000042
:10004400205A00002061000078690000732000003D
:100054003A20000000000000000000000000000042
:10006400000000000000000000000000000000008C
:10007400000000000000000000000000000000007C
:10008400000000000000000000000000000000006C
:10009400000000000000000000000000000000005C
:1000A400000000000000000000000000000000004C
:0C00B40000000000000000000000000040
:1000C00002200000582000006178000069730000E1
:0800D000203A000020000000AE
:1000D80020590000206100007869000073200000AA
:0800E8003A20000000000000B6
:1000F000BC0E0000DA0E0000D00E0000C60E00009C
:100100000A11000014110000F61000000011000098
:100110001E11000028110000BA100000C4100000D9
:10012000FFFF0000FFFF0000FFFF0000FFFF0000D7
:10013000FFFF0000FFFF0000FFFF0000FFFF0000C7
:10014000FFFF0000FFFF0000FFFF0000FFFF0000B7
:1001500040030000C0020000160300007E02000001
:040160002C0500006A
:08016400A0860000010000006C
:0200000401F009
:20000000CF000000CF00000007000000A2000000850000007F000000E7000000C1000000ED
:00000001FF
